{
	"RPS.sol": {
		"RPS": {
			"abi": [
				{
					"anonymous": false,
					"inputs": [
						{
							"indexed": false,
							"internalType": "address",
							"name": "sender",
							"type": "address"
						},
						{
							"indexed": false,
							"internalType": "bytes32",
							"name": "dataHash",
							"type": "bytes32"
						},
						{
							"indexed": false,
							"internalType": "uint64",
							"name": "block",
							"type": "uint64"
						}
					],
					"name": "CommitHash",
					"type": "event"
				},
				{
					"anonymous": false,
					"inputs": [
						{
							"indexed": false,
							"internalType": "address",
							"name": "sender",
							"type": "address"
						},
						{
							"indexed": false,
							"internalType": "bytes32",
							"name": "revealHash",
							"type": "bytes32"
						},
						{
							"indexed": false,
							"internalType": "uint256",
							"name": "random",
							"type": "uint256"
						}
					],
					"name": "RevealHash",
					"type": "event"
				},
				{
					"inputs": [],
					"name": "addPlayer",
					"outputs": [],
					"stateMutability": "payable",
					"type": "function"
				},
				{
					"inputs": [
						{
							"internalType": "bytes32",
							"name": "dataHash",
							"type": "bytes32"
						}
					],
					"name": "commit",
					"outputs": [],
					"stateMutability": "nonpayable",
					"type": "function"
				},
				{
					"inputs": [
						{
							"internalType": "address",
							"name": "",
							"type": "address"
						}
					],
					"name": "commits",
					"outputs": [
						{
							"internalType": "bytes32",
							"name": "commit",
							"type": "bytes32"
						},
						{
							"internalType": "uint64",
							"name": "block",
							"type": "uint64"
						},
						{
							"internalType": "bool",
							"name": "revealed",
							"type": "bool"
						}
					],
					"stateMutability": "view",
					"type": "function"
				},
				{
					"inputs": [],
					"name": "elapsedMinutes",
					"outputs": [
						{
							"internalType": "uint256",
							"name": "",
							"type": "uint256"
						}
					],
					"stateMutability": "view",
					"type": "function"
				},
				{
					"inputs": [],
					"name": "elapsedSeconds",
					"outputs": [
						{
							"internalType": "uint256",
							"name": "",
							"type": "uint256"
						}
					],
					"stateMutability": "view",
					"type": "function"
				},
				{
					"inputs": [
						{
							"internalType": "bytes32",
							"name": "data",
							"type": "bytes32"
						}
					],
					"name": "getHash",
					"outputs": [
						{
							"internalType": "bytes32",
							"name": "",
							"type": "bytes32"
						}
					],
					"stateMutability": "pure",
					"type": "function"
				},
				{
					"inputs": [
						{
							"internalType": "uint256",
							"name": "choice",
							"type": "uint256"
						}
					],
					"name": "input",
					"outputs": [],
					"stateMutability": "nonpayable",
					"type": "function"
				},
				{
					"inputs": [],
					"name": "max",
					"outputs": [
						{
							"internalType": "uint8",
							"name": "",
							"type": "uint8"
						}
					],
					"stateMutability": "view",
					"type": "function"
				},
				{
					"inputs": [],
					"name": "numInput",
					"outputs": [
						{
							"internalType": "uint256",
							"name": "",
							"type": "uint256"
						}
					],
					"stateMutability": "view",
					"type": "function"
				},
				{
					"inputs": [],
					"name": "numPlayer",
					"outputs": [
						{
							"internalType": "uint256",
							"name": "",
							"type": "uint256"
						}
					],
					"stateMutability": "view",
					"type": "function"
				},
				{
					"inputs": [
						{
							"internalType": "address",
							"name": "",
							"type": "address"
						}
					],
					"name": "player_choice",
					"outputs": [
						{
							"internalType": "uint256",
							"name": "",
							"type": "uint256"
						}
					],
					"stateMutability": "view",
					"type": "function"
				},
				{
					"inputs": [
						{
							"internalType": "address",
							"name": "",
							"type": "address"
						}
					],
					"name": "player_not_played",
					"outputs": [
						{
							"internalType": "bool",
							"name": "",
							"type": "bool"
						}
					],
					"stateMutability": "view",
					"type": "function"
				},
				{
					"inputs": [
						{
							"internalType": "uint256",
							"name": "",
							"type": "uint256"
						}
					],
					"name": "players",
					"outputs": [
						{
							"internalType": "address",
							"name": "",
							"type": "address"
						}
					],
					"stateMutability": "view",
					"type": "function"
				},
				{
					"inputs": [
						{
							"internalType": "uint256",
							"name": "",
							"type": "uint256"
						}
					],
					"name": "real_players",
					"outputs": [
						{
							"internalType": "address",
							"name": "",
							"type": "address"
						}
					],
					"stateMutability": "view",
					"type": "function"
				},
				{
					"inputs": [
						{
							"internalType": "bytes32",
							"name": "revealHash",
							"type": "bytes32"
						}
					],
					"name": "reveal",
					"outputs": [],
					"stateMutability": "nonpayable",
					"type": "function"
				},
				{
					"inputs": [],
					"name": "reward",
					"outputs": [
						{
							"internalType": "uint256",
							"name": "",
							"type": "uint256"
						}
					],
					"stateMutability": "view",
					"type": "function"
				},
				{
					"inputs": [],
					"name": "setStartTime",
					"outputs": [],
					"stateMutability": "nonpayable",
					"type": "function"
				},
				{
					"inputs": [],
					"name": "startTime",
					"outputs": [
						{
							"internalType": "uint256",
							"name": "",
							"type": "uint256"
						}
					],
					"stateMutability": "view",
					"type": "function"
				}
			],
			"devdoc": {
				"kind": "dev",
				"methods": {},
				"version": 1
			},
			"evm": {
				"assembly": "    /* \"RPS.sol\":149:3317  contract RPS is CommitReveal, TimeUnit {... */\n  mstore(0x40, 0x80)\n    /* \"CommitReveal.sol\":116:119  100 */\n  0x64\n    /* \"CommitReveal.sol\":97:119  uint8 public max = 100 */\n  0x00\n  dup1\n  0x0100\n  exp\n  dup2\n  sload\n  dup2\n  0xff\n  mul\n  not\n  and\n  swap1\n  dup4\n  0xff\n  and\n  mul\n  or\n  swap1\n  sstore\n  pop\n    /* \"RPS.sol\":218:219  0 */\n  0x00\n    /* \"RPS.sol\":194:219  uint public numPlayer = 0 */\n  0x03\n  sstore\n    /* \"RPS.sol\":246:247  0 */\n  0x00\n    /* \"RPS.sol\":225:247  uint public reward = 0 */\n  0x04\n  sstore\n    /* \"RPS.sol\":453:677  address[4] public real_players = [0x5B38Da6a701c568545dCfcB03FcB875f56beddC4, ... */\n  mload(0x40)\n  dup1\n  0x80\n  add\n  0x40\n  mstore\n  dup1\n    /* \"RPS.sol\":487:529  0x5B38Da6a701c568545dCfcB03FcB875f56beddC4 */\n  0x5b38da6a701c568545dcfcb03fcb875f56beddc4\n    /* \"RPS.sol\":453:677  address[4] public real_players = [0x5B38Da6a701c568545dCfcB03FcB875f56beddC4, ... */\n  0xffffffffffffffffffffffffffffffffffffffff\n  and\n  0xffffffffffffffffffffffffffffffffffffffff\n  and\n  dup2\n  mstore\n  0x20\n  add\n    /* \"RPS.sol\":536:578  0xAb8483F64d9C6d1EcF9b849Ae677dD3315835cb2 */\n  0xab8483f64d9c6d1ecf9b849ae677dd3315835cb2\n    /* \"RPS.sol\":453:677  address[4] public real_players = [0x5B38Da6a701c568545dCfcB03FcB875f56beddC4, ... */\n  0xffffffffffffffffffffffffffffffffffffffff\n  and\n  0xffffffffffffffffffffffffffffffffffffffff\n  and\n  dup2\n  mstore\n  0x20\n  add\n    /* \"RPS.sol\":585:627  0x4B20993Bc481177ec7E8f571ceCaE8A9e22C02db */\n  0x4b20993bc481177ec7e8f571cecae8a9e22c02db\n    /* \"RPS.sol\":453:677  address[4] public real_players = [0x5B38Da6a701c568545dCfcB03FcB875f56beddC4, ... */\n  0xffffffffffffffffffffffffffffffffffffffff\n  and\n  0xffffffffffffffffffffffffffffffffffffffff\n  and\n  dup2\n  mstore\n  0x20\n  add\n    /* \"RPS.sol\":634:676  0x78731D3Ca6b7E34aC0F824c42a7cC18A495cabaB */\n  0x78731d3ca6b7e34ac0f824c42a7cc18a495cabab\n    /* \"RPS.sol\":453:677  address[4] public real_players = [0x5B38Da6a701c568545dCfcB03FcB875f56beddC4, ... */\n  0xffffffffffffffffffffffffffffffffffffffff\n  and\n  0xffffffffffffffffffffffffffffffffffffffff\n  and\n  dup2\n  mstore\n  pop\n  0x08\n  swap1\n  0x04\n  tag_1\n  swap3\n  swap2\n  swap1\n  tag_2\n  jump\t// in\ntag_1:\n  pop\n    /* \"RPS.sol\":735:736  0 */\n  0x00\n    /* \"RPS.sol\":712:736  uint public numInput = 0 */\n  0x0c\n  sstore\n    /* \"RPS.sol\":149:3317  contract RPS is CommitReveal, TimeUnit {... */\n  callvalue\n  dup1\n  iszero\n  tag_3\n  jumpi\n  0x00\n  dup1\n  revert\ntag_3:\n  pop\n  jump(tag_4)\ntag_2:\n  dup3\n  0x04\n  dup2\n  add\n  swap3\n  dup3\n  iszero\n  tag_5\n  jumpi\n  swap2\n  0x20\n  mul\n  dup3\n  add\ntag_6:\n  dup3\n  dup2\n  gt\n  iszero\n  tag_7\n  jumpi\n  dup3\n  mload\n  dup3\n  exp(0x0100, 0x00)\n  dup2\n  sload\n  dup2\n  0xffffffffffffffffffffffffffffffffffffffff\n  mul\n  not\n  and\n  swap1\n  dup4\n  0xffffffffffffffffffffffffffffffffffffffff\n  and\n  mul\n  or\n  swap1\n  sstore\n  pop\n  swap2\n  0x20\n  add\n  swap2\n  swap1\n  0x01\n  add\n  swap1\n  jump(tag_6)\ntag_7:\ntag_5:\n  pop\n  swap1\n  pop\n  tag_8\n  swap2\n  swap1\n  tag_9\n  jump\t// in\ntag_8:\n  pop\n  swap1\n  jump\t// out\ntag_9:\ntag_10:\n  dup1\n  dup3\n  gt\n  iszero\n  tag_11\n  jumpi\n  0x00\n  dup2\n  0x00\n  swap1\n  sstore\n  pop\n  0x01\n  add\n  jump(tag_10)\ntag_11:\n  pop\n  swap1\n  jump\t// out\ntag_4:\n  dataSize(sub_0)\n  dup1\n  dataOffset(sub_0)\n  0x00\n  codecopy\n  0x00\n  return\nstop\n\nsub_0: assembly {\n        /* \"RPS.sol\":149:3317  contract RPS is CommitReveal, TimeUnit {... */\n      mstore(0x40, 0x80)\n      jumpi(tag_1, lt(calldatasize, 0x04))\n      shr(0xe0, calldataload(0x00))\n      dup1\n      0x7b43a8e6\n      gt\n      tag_20\n      jumpi\n      dup1\n      0xbc06b8cd\n      gt\n      tag_21\n      jumpi\n      dup1\n      0xbc06b8cd\n      eq\n      tag_15\n      jumpi\n      dup1\n      0xce6e1c4e\n      eq\n      tag_16\n      jumpi\n      dup1\n      0xd97c8416\n      eq\n      tag_17\n      jumpi\n      dup1\n      0xf14fcbc8\n      eq\n      tag_18\n      jumpi\n      dup1\n      0xf71d96cb\n      eq\n      tag_19\n      jumpi\n      jump(tag_1)\n    tag_21:\n      dup1\n      0x7b43a8e6\n      eq\n      tag_11\n      jumpi\n      dup1\n      0x90d5d0c3\n      eq\n      tag_12\n      jumpi\n      dup1\n      0xa040478d\n      eq\n      tag_13\n      jumpi\n      dup1\n      0xa63f7c53\n      eq\n      tag_14\n      jumpi\n      jump(tag_1)\n    tag_20:\n      dup1\n      0x27b5db8a\n      gt\n      tag_22\n      jumpi\n      dup1\n      0x27b5db8a\n      eq\n      tag_6\n      jumpi\n      dup1\n      0x3cf5040a\n      eq\n      tag_7\n      jumpi\n      dup1\n      0x6ac5db19\n      eq\n      tag_8\n      jumpi\n      dup1\n      0x701fd0f1\n      eq\n      tag_9\n      jumpi\n      dup1\n      0x78e97925\n      eq\n      tag_10\n      jumpi\n      jump(tag_1)\n    tag_22:\n      dup1\n      0x086f7815\n      eq\n      tag_2\n      jumpi\n      dup1\n      0x14e421fe\n      eq\n      tag_3\n      jumpi\n      dup1\n      0x190cf745\n      eq\n      tag_4\n      jumpi\n      dup1\n      0x228cb733\n      eq\n      tag_5\n      jumpi\n    tag_1:\n      0x00\n      dup1\n      revert\n        /* \"RPS.sol\":712:736  uint public numInput = 0 */\n    tag_2:\n      callvalue\n      dup1\n      iszero\n      tag_23\n      jumpi\n      0x00\n      dup1\n      revert\n    tag_23:\n      pop\n      tag_24\n      tag_25\n      jump\t// in\n    tag_24:\n      mload(0x40)\n      tag_26\n      swap2\n      swap1\n      tag_27\n      jump\t// in\n    tag_26:\n      mload(0x40)\n      dup1\n      swap2\n      sub\n      swap1\n      return\n        /* \"RPS.sol\":453:677  address[4] public real_players = [0x5B38Da6a701c568545dCfcB03FcB875f56beddC4, ... */\n    tag_3:\n      callvalue\n      dup1\n      iszero\n      tag_28\n      jumpi\n      0x00\n      dup1\n      revert\n    tag_28:\n      pop\n      tag_29\n      0x04\n      dup1\n      calldatasize\n      sub\n      dup2\n      add\n      swap1\n      tag_30\n      swap2\n      swap1\n      tag_31\n      jump\t// in\n    tag_30:\n      tag_32\n      jump\t// in\n    tag_29:\n      mload(0x40)\n      tag_33\n      swap2\n      swap1\n      tag_34\n      jump\t// in\n    tag_33:\n      mload(0x40)\n      dup1\n      swap2\n      sub\n      swap1\n      return\n        /* \"RPS.sol\":368:417  mapping(address => bool) public player_not_played */\n    tag_4:\n      callvalue\n      dup1\n      iszero\n      tag_35\n      jumpi\n      0x00\n      dup1\n      revert\n    tag_35:\n      pop\n      tag_36\n      0x04\n      dup1\n      calldatasize\n      sub\n      dup2\n      add\n      swap1\n      tag_37\n      swap2\n      swap1\n      tag_38\n      jump\t// in\n    tag_37:\n      tag_39\n      jump\t// in\n    tag_36:\n      mload(0x40)\n      tag_40\n      swap2\n      swap1\n      tag_41\n      jump\t// in\n    tag_40:\n      mload(0x40)\n      dup1\n      swap2\n      sub\n      swap1\n      return\n        /* \"RPS.sol\":225:247  uint public reward = 0 */\n    tag_5:\n      callvalue\n      dup1\n      iszero\n      tag_42\n      jumpi\n      0x00\n      dup1\n      revert\n    tag_42:\n      pop\n      tag_43\n      tag_44\n      jump\t// in\n    tag_43:\n      mload(0x40)\n      tag_45\n      swap2\n      swap1\n      tag_27\n      jump\t// in\n    tag_45:\n      mload(0x40)\n      dup1\n      swap2\n      sub\n      swap1\n      return\n        /* \"RPS.sol\":743:1374  function addPlayer() public payable {... */\n    tag_6:\n      tag_46\n      tag_47\n      jump\t// in\n    tag_46:\n      stop\n        /* \"CommitReveal.sol\":1816:1926  function getHash(bytes32 data) public pure returns(bytes32){... */\n    tag_7:\n      callvalue\n      dup1\n      iszero\n      tag_48\n      jumpi\n      0x00\n      dup1\n      revert\n    tag_48:\n      pop\n      tag_49\n      0x04\n      dup1\n      calldatasize\n      sub\n      dup2\n      add\n      swap1\n      tag_50\n      swap2\n      swap1\n      tag_51\n      jump\t// in\n    tag_50:\n      tag_52\n      jump\t// in\n    tag_49:\n      mload(0x40)\n      tag_53\n      swap2\n      swap1\n      tag_54\n      jump\t// in\n    tag_53:\n      mload(0x40)\n      dup1\n      swap2\n      sub\n      swap1\n      return\n        /* \"CommitReveal.sol\":97:119  uint8 public max = 100 */\n    tag_8:\n      callvalue\n      dup1\n      iszero\n      tag_55\n      jumpi\n      0x00\n      dup1\n      revert\n    tag_55:\n      pop\n      tag_56\n      tag_57\n      jump\t// in\n    tag_56:\n      mload(0x40)\n      tag_58\n      swap2\n      swap1\n      tag_59\n      jump\t// in\n    tag_58:\n      mload(0x40)\n      dup1\n      swap2\n      sub\n      swap1\n      return\n        /* \"CommitReveal.sol\":594:1743  function reveal(bytes32 revealHash) public {... */\n    tag_9:\n      callvalue\n      dup1\n      iszero\n      tag_60\n      jumpi\n      0x00\n      dup1\n      revert\n    tag_60:\n      pop\n      tag_61\n      0x04\n      dup1\n      calldatasize\n      sub\n      dup2\n      add\n      swap1\n      tag_62\n      swap2\n      swap1\n      tag_51\n      jump\t// in\n    tag_62:\n      tag_63\n      jump\t// in\n    tag_61:\n      stop\n        /* \"TimeUnit.sol\":298:322  uint256 public startTime */\n    tag_10:\n      callvalue\n      dup1\n      iszero\n      tag_64\n      jumpi\n      0x00\n      dup1\n      revert\n    tag_64:\n      pop\n      tag_65\n      tag_66\n      jump\t// in\n    tag_65:\n      mload(0x40)\n      tag_67\n      swap2\n      swap1\n      tag_27\n      jump\t// in\n    tag_67:\n      mload(0x40)\n      dup1\n      swap2\n      sub\n      swap1\n      return\n        /* \"CommitReveal.sol\":204:246  mapping (address => Commit) public commits */\n    tag_11:\n      callvalue\n      dup1\n      iszero\n      tag_68\n      jumpi\n      0x00\n      dup1\n      revert\n    tag_68:\n      pop\n      tag_69\n      0x04\n      dup1\n      calldatasize\n      sub\n      dup2\n      add\n      swap1\n      tag_70\n      swap2\n      swap1\n      tag_38\n      jump\t// in\n    tag_70:\n      tag_71\n      jump\t// in\n    tag_69:\n      mload(0x40)\n      tag_72\n      swap4\n      swap3\n      swap2\n      swap1\n      tag_73\n      jump\t// in\n    tag_72:\n      mload(0x40)\n      dup1\n      swap2\n      sub\n      swap1\n      return\n        /* \"RPS.sol\":194:219  uint public numPlayer = 0 */\n    tag_12:\n      callvalue\n      dup1\n      iszero\n      tag_74\n      jumpi\n      0x00\n      dup1\n      revert\n    tag_74:\n      pop\n      tag_75\n      tag_76\n      jump\t// in\n    tag_75:\n      mload(0x40)\n      tag_77\n      swap2\n      swap1\n      tag_27\n      jump\t// in\n    tag_77:\n      mload(0x40)\n      dup1\n      swap2\n      sub\n      swap1\n      return\n        /* \"RPS.sol\":253:299  mapping (address => uint) public player_choice */\n    tag_13:\n      callvalue\n      dup1\n      iszero\n      tag_78\n      jumpi\n      0x00\n      dup1\n      revert\n    tag_78:\n      pop\n      tag_79\n      0x04\n      dup1\n      calldatasize\n      sub\n      dup2\n      add\n      swap1\n      tag_80\n      swap2\n      swap1\n      tag_38\n      jump\t// in\n    tag_80:\n      tag_81\n      jump\t// in\n    tag_79:\n      mload(0x40)\n      tag_82\n      swap2\n      swap1\n      tag_27\n      jump\t// in\n    tag_82:\n      mload(0x40)\n      dup1\n      swap2\n      sub\n      swap1\n      return\n        /* \"TimeUnit.sol\":367:438  function setStartTime() public { ... */\n    tag_14:\n      callvalue\n      dup1\n      iszero\n      tag_83\n      jumpi\n      0x00\n      dup1\n      revert\n    tag_83:\n      pop\n      tag_84\n      tag_85\n      jump\t// in\n    tag_84:\n      stop\n        /* \"TimeUnit.sol\":557:662  function elapsedSeconds() public view returns (uint256) { ... */\n    tag_15:\n      callvalue\n      dup1\n      iszero\n      tag_86\n      jumpi\n      0x00\n      dup1\n      revert\n    tag_86:\n      pop\n      tag_87\n      tag_88\n      jump\t// in\n    tag_87:\n      mload(0x40)\n      tag_89\n      swap2\n      swap1\n      tag_27\n      jump\t// in\n    tag_89:\n      mload(0x40)\n      dup1\n      swap2\n      sub\n      swap1\n      return\n        /* \"RPS.sol\":1380:1814  function input(uint choice) public  {... */\n    tag_16:\n      callvalue\n      dup1\n      iszero\n      tag_90\n      jumpi\n      0x00\n      dup1\n      revert\n    tag_90:\n      pop\n      tag_91\n      0x04\n      dup1\n      calldatasize\n      sub\n      dup2\n      add\n      swap1\n      tag_92\n      swap2\n      swap1\n      tag_31\n      jump\t// in\n    tag_92:\n      tag_93\n      jump\t// in\n    tag_91:\n      stop\n        /* \"TimeUnit.sol\":774:1051  function elapsedMinutes() public view returns (uint256) { ... */\n    tag_17:\n      callvalue\n      dup1\n      iszero\n      tag_94\n      jumpi\n      0x00\n      dup1\n      revert\n    tag_94:\n      pop\n      tag_95\n      tag_96\n      jump\t// in\n    tag_95:\n      mload(0x40)\n      tag_97\n      swap2\n      swap1\n      tag_27\n      jump\t// in\n    tag_97:\n      mload(0x40)\n      dup1\n      swap2\n      sub\n      swap1\n      return\n        /* \"CommitReveal.sol\":251:522  function commit(bytes32 dataHash) public {... */\n    tag_18:\n      callvalue\n      dup1\n      iszero\n      tag_98\n      jumpi\n      0x00\n      dup1\n      revert\n    tag_98:\n      pop\n      tag_99\n      0x04\n      dup1\n      calldatasize\n      sub\n      dup2\n      add\n      swap1\n      tag_100\n      swap2\n      swap1\n      tag_51\n      jump\t// in\n    tag_100:\n      tag_101\n      jump\t// in\n    tag_99:\n      stop\n        /* \"RPS.sol\":423:447  address[] public players */\n    tag_19:\n      callvalue\n      dup1\n      iszero\n      tag_102\n      jumpi\n      0x00\n      dup1\n      revert\n    tag_102:\n      pop\n      tag_103\n      0x04\n      dup1\n      calldatasize\n      sub\n      dup2\n      add\n      swap1\n      tag_104\n      swap2\n      swap1\n      tag_31\n      jump\t// in\n    tag_104:\n      tag_105\n      jump\t// in\n    tag_103:\n      mload(0x40)\n      tag_106\n      swap2\n      swap1\n      tag_34\n      jump\t// in\n    tag_106:\n      mload(0x40)\n      dup1\n      swap2\n      sub\n      swap1\n      return\n        /* \"RPS.sol\":712:736  uint public numInput = 0 */\n    tag_25:\n      sload(0x0c)\n      dup2\n      jump\t// out\n        /* \"RPS.sol\":453:677  address[4] public real_players = [0x5B38Da6a701c568545dCfcB03FcB875f56beddC4, ... */\n    tag_32:\n      0x08\n      dup2\n      0x04\n      dup2\n      lt\n      tag_107\n      jumpi\n      0x00\n      dup1\n      revert\n    tag_107:\n      add\n      0x00\n      swap2\n      pop\n      sload\n      swap1\n      0x0100\n      exp\n      swap1\n      div\n      0xffffffffffffffffffffffffffffffffffffffff\n      and\n      dup2\n      jump\t// out\n        /* \"RPS.sol\":368:417  mapping(address => bool) public player_not_played */\n    tag_39:\n      mstore(0x20, 0x06)\n      dup1\n      0x00\n      mstore\n      keccak256(0x00, 0x40)\n      0x00\n      swap2\n      pop\n      sload\n      swap1\n      0x0100\n      exp\n      swap1\n      div\n      0xff\n      and\n      dup2\n      jump\t// out\n        /* \"RPS.sol\":225:247  uint public reward = 0 */\n    tag_44:\n      sload(0x04)\n      dup2\n      jump\t// out\n        /* \"RPS.sol\":743:1374  function addPlayer() public payable {... */\n    tag_47:\n        /* \"RPS.sol\":809:810  2 */\n      0x02\n        /* \"RPS.sol\":797:806  numPlayer */\n      sload(0x03)\n        /* \"RPS.sol\":797:810  numPlayer < 2 */\n      lt\n        /* \"RPS.sol\":789:811  require(numPlayer < 2) */\n      tag_110\n      jumpi\n      0x00\n      dup1\n      revert\n    tag_110:\n        /* \"RPS.sol\":837:838  0 */\n      0x00\n        /* \"RPS.sol\":825:834  numPlayer */\n      sload(0x03)\n        /* \"RPS.sol\":825:838  numPlayer > 0 */\n      gt\n        /* \"RPS.sol\":821:898  if (numPlayer > 0) {... */\n      iszero\n      tag_111\n      jumpi\n        /* \"RPS.sol\":876:883  players */\n      0x07\n        /* \"RPS.sol\":884:885  0 */\n      0x00\n        /* \"RPS.sol\":876:886  players[0] */\n      dup2\n      sload\n      dup2\n      lt\n      tag_112\n      jumpi\n      tag_113\n      tag_114\n      jump\t// in\n    tag_113:\n    tag_112:\n      swap1\n      0x00\n      mstore\n      keccak256(0x00, 0x20)\n      add\n      0x00\n      swap1\n      sload\n      swap1\n      0x0100\n      exp\n      swap1\n      div\n      0xffffffffffffffffffffffffffffffffffffffff\n      and\n        /* \"RPS.sol\":862:886  msg.sender != players[0] */\n      0xffffffffffffffffffffffffffffffffffffffff\n      and\n        /* \"RPS.sol\":862:872  msg.sender */\n      caller\n        /* \"RPS.sol\":862:886  msg.sender != players[0] */\n      0xffffffffffffffffffffffffffffffffffffffff\n      and\n      sub\n        /* \"RPS.sol\":854:887  require(msg.sender != players[0]) */\n      tag_116\n      jumpi\n      0x00\n      dup1\n      revert\n    tag_116:\n        /* \"RPS.sol\":821:898  if (numPlayer > 0) {... */\n    tag_111:\n        /* \"RPS.sol\":907:917  bool allow */\n      0x00\n        /* \"RPS.sol\":940:946  uint i */\n      dup1\n        /* \"RPS.sol\":935:1109  for (uint i = 0; i < real_players.length; i++) {... */\n    tag_117:\n        /* \"RPS.sol\":956:975  real_players.length */\n      0x04\n        /* \"RPS.sol\":952:953  i */\n      dup2\n        /* \"RPS.sol\":952:975  i < real_players.length */\n      lt\n        /* \"RPS.sol\":935:1109  for (uint i = 0; i < real_players.length; i++) {... */\n      iszero\n      tag_118\n      jumpi\n        /* \"RPS.sol\":1014:1026  real_players */\n      0x08\n        /* \"RPS.sol\":1027:1028  i */\n      dup2\n        /* \"RPS.sol\":1014:1029  real_players[i] */\n      0x04\n      dup2\n      lt\n      tag_120\n      jumpi\n      tag_121\n      tag_114\n      jump\t// in\n    tag_121:\n    tag_120:\n      add\n      0x00\n      swap1\n      sload\n      swap1\n      0x0100\n      exp\n      swap1\n      div\n      0xffffffffffffffffffffffffffffffffffffffff\n      and\n        /* \"RPS.sol\":1000:1029  msg.sender == real_players[i] */\n      0xffffffffffffffffffffffffffffffffffffffff\n      and\n        /* \"RPS.sol\":1000:1010  msg.sender */\n      caller\n        /* \"RPS.sol\":1000:1029  msg.sender == real_players[i] */\n      0xffffffffffffffffffffffffffffffffffffffff\n      and\n      sub\n        /* \"RPS.sol\":996:1099  if (msg.sender == real_players[i]) {... */\n      tag_123\n      jumpi\n        /* \"RPS.sol\":1057:1061  true */\n      0x01\n        /* \"RPS.sol\":1049:1061  allow = true */\n      swap2\n      pop\n        /* \"RPS.sol\":1079:1084  break */\n      jump(tag_118)\n        /* \"RPS.sol\":996:1099  if (msg.sender == real_players[i]) {... */\n    tag_123:\n        /* \"RPS.sol\":977:980  i++ */\n      dup1\n      dup1\n      0x01\n      add\n      swap2\n      pop\n      pop\n        /* \"RPS.sol\":935:1109  for (uint i = 0; i < real_players.length; i++) {... */\n      jump(tag_117)\n    tag_118:\n      pop\n        /* \"RPS.sol\":1193:1197  true */\n      0x01\n        /* \"RPS.sol\":1184:1197  allow == true */\n      iszero\n      iszero\n        /* \"RPS.sol\":1184:1189  allow */\n      dup2\n        /* \"RPS.sol\":1184:1197  allow == true */\n      iszero\n      iszero\n      eq\n        /* \"RPS.sol\":1176:1198  require(allow == true) */\n      tag_124\n      jumpi\n      0x00\n      dup1\n      revert\n    tag_124:\n        /* \"RPS.sol\":1229:1236  1 ether */\n      0x0de0b6b3a7640000\n        /* \"RPS.sol\":1216:1225  msg.value */\n      callvalue\n        /* \"RPS.sol\":1216:1236  msg.value == 1 ether */\n      eq\n        /* \"RPS.sol\":1208:1237  require(msg.value == 1 ether) */\n      tag_125\n      jumpi\n      0x00\n      dup1\n      revert\n    tag_125:\n        /* \"RPS.sol\":1257:1266  msg.value */\n      callvalue\n        /* \"RPS.sol\":1247:1253  reward */\n      0x04\n      0x00\n        /* \"RPS.sol\":1247:1266  reward += msg.value */\n      dup3\n      dup3\n      sload\n      tag_126\n      swap2\n      swap1\n      tag_127\n      jump\t// in\n    tag_126:\n      swap3\n      pop\n      pop\n      dup2\n      swap1\n      sstore\n      pop\n        /* \"RPS.sol\":1308:1312  true */\n      0x01\n        /* \"RPS.sol\":1276:1293  player_not_played */\n      0x06\n        /* \"RPS.sol\":1276:1305  player_not_played[msg.sender] */\n      0x00\n        /* \"RPS.sol\":1294:1304  msg.sender */\n      caller\n        /* \"RPS.sol\":1276:1305  player_not_played[msg.sender] */\n      0xffffffffffffffffffffffffffffffffffffffff\n      and\n      0xffffffffffffffffffffffffffffffffffffffff\n      and\n      dup2\n      mstore\n      0x20\n      add\n      swap1\n      dup2\n      mstore\n      0x20\n      add\n      0x00\n      keccak256\n      0x00\n        /* \"RPS.sol\":1276:1312  player_not_played[msg.sender] = true */\n      0x0100\n      exp\n      dup2\n      sload\n      dup2\n      0xff\n      mul\n      not\n      and\n      swap1\n      dup4\n      iszero\n      iszero\n      mul\n      or\n      swap1\n      sstore\n      pop\n        /* \"RPS.sol\":1322:1329  players */\n      0x07\n        /* \"RPS.sol\":1335:1345  msg.sender */\n      caller\n        /* \"RPS.sol\":1322:1346  players.push(msg.sender) */\n      swap1\n      dup1\n      0x01\n      dup2\n      sload\n      add\n      dup1\n      dup3\n      sstore\n      dup1\n      swap2\n      pop\n      pop\n      0x01\n      swap1\n      sub\n      swap1\n      0x00\n      mstore\n      keccak256(0x00, 0x20)\n      add\n      0x00\n      swap1\n      swap2\n      swap1\n      swap2\n      swap1\n      swap2\n      0x0100\n      exp\n      dup2\n      sload\n      dup2\n      0xffffffffffffffffffffffffffffffffffffffff\n      mul\n      not\n      and\n      swap1\n      dup4\n      0xffffffffffffffffffffffffffffffffffffffff\n      and\n      mul\n      or\n      swap1\n      sstore\n      pop\n        /* \"RPS.sol\":1356:1365  numPlayer */\n      0x03\n      0x00\n        /* \"RPS.sol\":1356:1367  numPlayer++ */\n      dup2\n      sload\n      dup1\n      swap3\n      swap2\n      swap1\n      tag_129\n      swap1\n      tag_130\n      jump\t// in\n    tag_129:\n      swap2\n      swap1\n      pop\n      sstore\n      pop\n        /* \"RPS.sol\":779:1374  {... */\n      pop\n        /* \"RPS.sol\":743:1374  function addPlayer() public payable {... */\n      jump\t// out\n        /* \"CommitReveal.sol\":1816:1926  function getHash(bytes32 data) public pure returns(bytes32){... */\n    tag_52:\n        /* \"CommitReveal.sol\":1867:1874  bytes32 */\n      0x00\n        /* \"CommitReveal.sol\":1915:1919  data */\n      dup2\n        /* \"CommitReveal.sol\":1898:1920  abi.encodePacked(data) */\n      add(0x20, mload(0x40))\n      tag_132\n      swap2\n      swap1\n      tag_133\n      jump\t// in\n    tag_132:\n      mload(0x40)\n      0x20\n      dup2\n      dup4\n      sub\n      sub\n      dup2\n      mstore\n      swap1\n      0x40\n      mstore\n        /* \"CommitReveal.sol\":1888:1921  keccak256(abi.encodePacked(data)) */\n      dup1\n      mload\n      swap1\n      0x20\n      add\n      keccak256\n        /* \"CommitReveal.sol\":1881:1921  return keccak256(abi.encodePacked(data)) */\n      swap1\n      pop\n        /* \"CommitReveal.sol\":1816:1926  function getHash(bytes32 data) public pure returns(bytes32){... */\n      swap2\n      swap1\n      pop\n      jump\t// out\n        /* \"CommitReveal.sol\":97:119  uint8 public max = 100 */\n    tag_57:\n      0x00\n      dup1\n      sload\n      swap1\n      0x0100\n      exp\n      swap1\n      div\n      0xff\n      and\n      dup2\n      jump\t// out\n        /* \"CommitReveal.sol\":594:1743  function reveal(bytes32 revealHash) public {... */\n    tag_63:\n        /* \"CommitReveal.sol\":748:753  false */\n      0x00\n        /* \"CommitReveal.sol\":718:753  commits[msg.sender].revealed==false */\n      iszero\n      iszero\n        /* \"CommitReveal.sol\":718:725  commits */\n      0x01\n        /* \"CommitReveal.sol\":718:737  commits[msg.sender] */\n      0x00\n        /* \"CommitReveal.sol\":726:736  msg.sender */\n      caller\n        /* \"CommitReveal.sol\":718:737  commits[msg.sender] */\n      0xffffffffffffffffffffffffffffffffffffffff\n      and\n      0xffffffffffffffffffffffffffffffffffffffff\n      and\n      dup2\n      mstore\n      0x20\n      add\n      swap1\n      dup2\n      mstore\n      0x20\n      add\n      0x00\n      keccak256\n        /* \"CommitReveal.sol\":718:746  commits[msg.sender].revealed */\n      0x01\n      add\n      0x08\n      swap1\n      sload\n      swap1\n      0x0100\n      exp\n      swap1\n      div\n      0xff\n      and\n        /* \"CommitReveal.sol\":718:753  commits[msg.sender].revealed==false */\n      iszero\n      iszero\n      eq\n        /* \"CommitReveal.sol\":710:795  require(commits[msg.sender].revealed==false,\"CommitReveal::reveal: Already revealed\") */\n      tag_135\n      jumpi\n      mload(0x40)\n      0x08c379a000000000000000000000000000000000000000000000000000000000\n      dup2\n      mstore\n      0x04\n      add\n      tag_136\n      swap1\n      tag_137\n      jump\t// in\n    tag_136:\n      mload(0x40)\n      dup1\n      swap2\n      sub\n      swap1\n      revert\n    tag_135:\n        /* \"CommitReveal.sol\":830:834  true */\n      0x01\n        /* \"CommitReveal.sol\":801:808  commits */\n      dup1\n        /* \"CommitReveal.sol\":801:820  commits[msg.sender] */\n      0x00\n        /* \"CommitReveal.sol\":809:819  msg.sender */\n      caller\n        /* \"CommitReveal.sol\":801:820  commits[msg.sender] */\n      0xffffffffffffffffffffffffffffffffffffffff\n      and\n      0xffffffffffffffffffffffffffffffffffffffff\n      and\n      dup2\n      mstore\n      0x20\n      add\n      swap1\n      dup2\n      mstore\n      0x20\n      add\n      0x00\n      keccak256\n        /* \"CommitReveal.sol\":801:829  commits[msg.sender].revealed */\n      0x01\n      add\n      0x08\n        /* \"CommitReveal.sol\":801:834  commits[msg.sender].revealed=true */\n      0x0100\n      exp\n      dup2\n      sload\n      dup2\n      0xff\n      mul\n      not\n      and\n      swap1\n      dup4\n      iszero\n      iszero\n      mul\n      or\n      swap1\n      sstore\n      pop\n        /* \"CommitReveal.sol\":924:931  commits */\n      0x01\n        /* \"CommitReveal.sol\":924:943  commits[msg.sender] */\n      0x00\n        /* \"CommitReveal.sol\":932:942  msg.sender */\n      caller\n        /* \"CommitReveal.sol\":924:943  commits[msg.sender] */\n      0xffffffffffffffffffffffffffffffffffffffff\n      and\n      0xffffffffffffffffffffffffffffffffffffffff\n      and\n      dup2\n      mstore\n      0x20\n      add\n      swap1\n      dup2\n      mstore\n      0x20\n      add\n      0x00\n      keccak256\n        /* \"CommitReveal.sol\":924:950  commits[msg.sender].commit */\n      0x00\n      add\n      sload\n        /* \"CommitReveal.sol\":903:922  getHash(revealHash) */\n      tag_138\n        /* \"CommitReveal.sol\":911:921  revealHash */\n      dup3\n        /* \"CommitReveal.sol\":903:910  getHash */\n      tag_52\n        /* \"CommitReveal.sol\":903:922  getHash(revealHash) */\n      jump\t// in\n    tag_138:\n        /* \"CommitReveal.sol\":903:950  getHash(revealHash)==commits[msg.sender].commit */\n      eq\n        /* \"CommitReveal.sol\":895:1011  require(getHash(revealHash)==commits[msg.sender].commit,\"CommitReveal::reveal: Revealed hash does not match commit\") */\n      tag_139\n      jumpi\n      mload(0x40)\n      0x08c379a000000000000000000000000000000000000000000000000000000000\n      dup2\n      mstore\n      0x04\n      add\n      tag_140\n      swap1\n      tag_141\n      jump\t// in\n    tag_140:\n      mload(0x40)\n      dup1\n      swap2\n      sub\n      swap1\n      revert\n    tag_139:\n        /* \"CommitReveal.sol\":1117:1124  commits */\n      0x01\n        /* \"CommitReveal.sol\":1117:1136  commits[msg.sender] */\n      0x00\n        /* \"CommitReveal.sol\":1125:1135  msg.sender */\n      caller\n        /* \"CommitReveal.sol\":1117:1136  commits[msg.sender] */\n      0xffffffffffffffffffffffffffffffffffffffff\n      and\n      0xffffffffffffffffffffffffffffffffffffffff\n      and\n      dup2\n      mstore\n      0x20\n      add\n      swap1\n      dup2\n      mstore\n      0x20\n      add\n      0x00\n      keccak256\n        /* \"CommitReveal.sol\":1117:1142  commits[msg.sender].block */\n      0x01\n      add\n      0x00\n      swap1\n      sload\n      swap1\n      0x0100\n      exp\n      swap1\n      div\n      0xffffffffffffffff\n      and\n        /* \"CommitReveal.sol\":1096:1142  uint64(block.number)>commits[msg.sender].block */\n      0xffffffffffffffff\n      and\n        /* \"CommitReveal.sol\":1103:1115  block.number */\n      number\n        /* \"CommitReveal.sol\":1096:1142  uint64(block.number)>commits[msg.sender].block */\n      0xffffffffffffffff\n      and\n      gt\n        /* \"CommitReveal.sol\":1088:1212  require(uint64(block.number)>commits[msg.sender].block,\"CommitReveal::reveal: Reveal and commit happened on the same block\") */\n      tag_142\n      jumpi\n      mload(0x40)\n      0x08c379a000000000000000000000000000000000000000000000000000000000\n      dup2\n      mstore\n      0x04\n      add\n      tag_143\n      swap1\n      tag_144\n      jump\t// in\n    tag_143:\n      mload(0x40)\n      dup1\n      swap2\n      sub\n      swap1\n      revert\n    tag_142:\n        /* \"CommitReveal.sol\":1329:1332  250 */\n      0xfa\n        /* \"CommitReveal.sol\":1303:1310  commits */\n      0x01\n        /* \"CommitReveal.sol\":1303:1322  commits[msg.sender] */\n      0x00\n        /* \"CommitReveal.sol\":1311:1321  msg.sender */\n      caller\n        /* \"CommitReveal.sol\":1303:1322  commits[msg.sender] */\n      0xffffffffffffffffffffffffffffffffffffffff\n      and\n      0xffffffffffffffffffffffffffffffffffffffff\n      and\n      dup2\n      mstore\n      0x20\n      add\n      swap1\n      dup2\n      mstore\n      0x20\n      add\n      0x00\n      keccak256\n        /* \"CommitReveal.sol\":1303:1328  commits[msg.sender].block */\n      0x01\n      add\n      0x00\n      swap1\n      sload\n      swap1\n      0x0100\n      exp\n      swap1\n      div\n      0xffffffffffffffff\n      and\n        /* \"CommitReveal.sol\":1303:1332  commits[msg.sender].block+250 */\n      tag_145\n      swap2\n      swap1\n      tag_146\n      jump\t// in\n    tag_145:\n        /* \"CommitReveal.sol\":1281:1332  uint64(block.number)<=commits[msg.sender].block+250 */\n      0xffffffffffffffff\n      and\n        /* \"CommitReveal.sol\":1288:1300  block.number */\n      number\n        /* \"CommitReveal.sol\":1281:1332  uint64(block.number)<=commits[msg.sender].block+250 */\n      0xffffffffffffffff\n      and\n      gt\n      iszero\n        /* \"CommitReveal.sol\":1273:1375  require(uint64(block.number)<=commits[msg.sender].block+250,\"CommitReveal::reveal: Revealed too late\") */\n      tag_147\n      jumpi\n      mload(0x40)\n      0x08c379a000000000000000000000000000000000000000000000000000000000\n      dup2\n      mstore\n      0x04\n      add\n      tag_148\n      swap1\n      tag_149\n      jump\t// in\n    tag_148:\n      mload(0x40)\n      dup1\n      swap2\n      sub\n      swap1\n      revert\n    tag_147:\n        /* \"CommitReveal.sol\":1448:1465  bytes32 blockHash */\n      0x00\n        /* \"CommitReveal.sol\":1478:1485  commits */\n      0x01\n        /* \"CommitReveal.sol\":1478:1497  commits[msg.sender] */\n      0x00\n        /* \"CommitReveal.sol\":1486:1496  msg.sender */\n      caller\n        /* \"CommitReveal.sol\":1478:1497  commits[msg.sender] */\n      0xffffffffffffffffffffffffffffffffffffffff\n      and\n      0xffffffffffffffffffffffffffffffffffffffff\n      and\n      dup2\n      mstore\n      0x20\n      add\n      swap1\n      dup2\n      mstore\n      0x20\n      add\n      0x00\n      keccak256\n        /* \"CommitReveal.sol\":1478:1503  commits[msg.sender].block */\n      0x01\n      add\n      0x00\n      swap1\n      sload\n      swap1\n      0x0100\n      exp\n      swap1\n      div\n      0xffffffffffffffff\n      and\n        /* \"CommitReveal.sol\":1468:1504  blockhash(commits[msg.sender].block) */\n      0xffffffffffffffff\n      and\n      blockhash\n        /* \"CommitReveal.sol\":1448:1504  bytes32 blockHash = blockhash(commits[msg.sender].block) */\n      swap1\n      pop\n        /* \"CommitReveal.sol\":1614:1625  uint random */\n      0x00\n        /* \"CommitReveal.sol\":1684:1687  max */\n      dup1\n      0x00\n      swap1\n      sload\n      swap1\n      0x0100\n      exp\n      swap1\n      div\n      0xff\n      and\n        /* \"CommitReveal.sol\":1628:1687  uint(keccak256(abi.encodePacked(blockHash,revealHash)))%max */\n      0xff\n      and\n        /* \"CommitReveal.sol\":1660:1669  blockHash */\n      dup3\n        /* \"CommitReveal.sol\":1670:1680  revealHash */\n      dup5\n        /* \"CommitReveal.sol\":1643:1681  abi.encodePacked(blockHash,revealHash) */\n      add(0x20, mload(0x40))\n      tag_150\n      swap3\n      swap2\n      swap1\n      tag_151\n      jump\t// in\n    tag_150:\n      mload(0x40)\n      0x20\n      dup2\n      dup4\n      sub\n      sub\n      dup2\n      mstore\n      swap1\n      0x40\n      mstore\n        /* \"CommitReveal.sol\":1633:1682  keccak256(abi.encodePacked(blockHash,revealHash)) */\n      dup1\n      mload\n      swap1\n      0x20\n      add\n      keccak256\n        /* \"CommitReveal.sol\":1628:1683  uint(keccak256(abi.encodePacked(blockHash,revealHash))) */\n      0x00\n      shr\n        /* \"CommitReveal.sol\":1628:1687  uint(keccak256(abi.encodePacked(blockHash,revealHash)))%max */\n      tag_152\n      swap2\n      swap1\n      tag_153\n      jump\t// in\n    tag_152:\n        /* \"CommitReveal.sol\":1614:1687  uint random = uint(keccak256(abi.encodePacked(blockHash,revealHash)))%max */\n      swap1\n      pop\n        /* \"CommitReveal.sol\":1698:1738  RevealHash(msg.sender,revealHash,random) */\n      0xbc016dd1cadeaefcb851af7a0a93532e0023d536894b730801f7bcfe7065bcc2\n        /* \"CommitReveal.sol\":1709:1719  msg.sender */\n      caller\n        /* \"CommitReveal.sol\":1720:1730  revealHash */\n      dup5\n        /* \"CommitReveal.sol\":1731:1737  random */\n      dup4\n        /* \"CommitReveal.sol\":1698:1738  RevealHash(msg.sender,revealHash,random) */\n      mload(0x40)\n      tag_154\n      swap4\n      swap3\n      swap2\n      swap1\n      tag_155\n      jump\t// in\n    tag_154:\n      mload(0x40)\n      dup1\n      swap2\n      sub\n      swap1\n      log1\n        /* \"CommitReveal.sol\":637:1743  {... */\n      pop\n      pop\n        /* \"CommitReveal.sol\":594:1743  function reveal(bytes32 revealHash) public {... */\n      pop\n      jump\t// out\n        /* \"TimeUnit.sol\":298:322  uint256 public startTime */\n    tag_66:\n      sload(0x02)\n      dup2\n      jump\t// out\n        /* \"CommitReveal.sol\":204:246  mapping (address => Commit) public commits */\n    tag_71:\n      mstore(0x20, 0x01)\n      dup1\n      0x00\n      mstore\n      keccak256(0x00, 0x40)\n      0x00\n      swap2\n      pop\n      swap1\n      pop\n      dup1\n      0x00\n      add\n      sload\n      swap1\n      dup1\n      0x01\n      add\n      0x00\n      swap1\n      sload\n      swap1\n      0x0100\n      exp\n      swap1\n      div\n      0xffffffffffffffff\n      and\n      swap1\n      dup1\n      0x01\n      add\n      0x08\n      swap1\n      sload\n      swap1\n      0x0100\n      exp\n      swap1\n      div\n      0xff\n      and\n      swap1\n      pop\n      dup4\n      jump\t// out\n        /* \"RPS.sol\":194:219  uint public numPlayer = 0 */\n    tag_76:\n      sload(0x03)\n      dup2\n      jump\t// out\n        /* \"RPS.sol\":253:299  mapping (address => uint) public player_choice */\n    tag_81:\n      mstore(0x20, 0x05)\n      dup1\n      0x00\n      mstore\n      keccak256(0x00, 0x40)\n      0x00\n      swap2\n      pop\n      swap1\n      pop\n      sload\n      dup2\n      jump\t// out\n        /* \"TimeUnit.sol\":367:438  function setStartTime() public { ... */\n    tag_85:\n        /* \"TimeUnit.sol\":417:432  block.timestamp */\n      timestamp\n        /* \"TimeUnit.sol\":405:414  startTime */\n      0x02\n        /* \"TimeUnit.sol\":405:432  startTime = block.timestamp */\n      dup2\n      swap1\n      sstore\n      pop\n        /* \"TimeUnit.sol\":367:438  function setStartTime() public { ... */\n      jump\t// out\n        /* \"TimeUnit.sol\":557:662  function elapsedSeconds() public view returns (uint256) { ... */\n    tag_88:\n        /* \"TimeUnit.sol\":604:611  uint256 */\n      0x00\n        /* \"TimeUnit.sol\":646:655  startTime */\n      sload(0x02)\n        /* \"TimeUnit.sol\":628:643  block.timestamp */\n      timestamp\n        /* \"TimeUnit.sol\":628:655  block.timestamp - startTime */\n      tag_158\n      swap2\n      swap1\n      tag_159\n      jump\t// in\n    tag_158:\n        /* \"TimeUnit.sol\":620:656  return (block.timestamp - startTime) */\n      swap1\n      pop\n        /* \"TimeUnit.sol\":557:662  function elapsedSeconds() public view returns (uint256) { ... */\n      swap1\n      jump\t// out\n        /* \"RPS.sol\":1380:1814  function input(uint choice) public  {... */\n    tag_93:\n        /* \"RPS.sol\":1447:1448  2 */\n      0x02\n        /* \"RPS.sol\":1434:1443  numPlayer */\n      sload(0x03)\n        /* \"RPS.sol\":1434:1448  numPlayer == 2 */\n      eq\n        /* \"RPS.sol\":1426:1449  require(numPlayer == 2) */\n      tag_161\n      jumpi\n      0x00\n      dup1\n      revert\n    tag_161:\n        /* \"RPS.sol\":1467:1484  player_not_played */\n      0x06\n        /* \"RPS.sol\":1467:1496  player_not_played[msg.sender] */\n      0x00\n        /* \"RPS.sol\":1485:1495  msg.sender */\n      caller\n        /* \"RPS.sol\":1467:1496  player_not_played[msg.sender] */\n      0xffffffffffffffffffffffffffffffffffffffff\n      and\n      0xffffffffffffffffffffffffffffffffffffffff\n      and\n      dup2\n      mstore\n      0x20\n      add\n      swap1\n      dup2\n      mstore\n      0x20\n      add\n      0x00\n      keccak256\n      0x00\n      swap1\n      sload\n      swap1\n      0x0100\n      exp\n      swap1\n      div\n      0xff\n      and\n        /* \"RPS.sol\":1459:1497  require(player_not_played[msg.sender]) */\n      tag_162\n      jumpi\n      0x00\n      dup1\n      revert\n    tag_162:\n        /* \"RPS.sol\":1525:1526  0 */\n      0x00\n        /* \"RPS.sol\":1515:1521  choice */\n      dup2\n        /* \"RPS.sol\":1515:1526  choice == 0 */\n      eq\n        /* \"RPS.sol\":1515:1541  choice == 0 || choice == 1 */\n      dup1\n      tag_163\n      jumpi\n      pop\n        /* \"RPS.sol\":1540:1541  1 */\n      0x01\n        /* \"RPS.sol\":1530:1536  choice */\n      dup2\n        /* \"RPS.sol\":1530:1541  choice == 1 */\n      eq\n        /* \"RPS.sol\":1515:1541  choice == 0 || choice == 1 */\n    tag_163:\n        /* \"RPS.sol\":1515:1556  choice == 0 || choice == 1 || choice == 2 */\n      dup1\n      tag_164\n      jumpi\n      pop\n        /* \"RPS.sol\":1555:1556  2 */\n      0x02\n        /* \"RPS.sol\":1545:1551  choice */\n      dup2\n        /* \"RPS.sol\":1545:1556  choice == 2 */\n      eq\n        /* \"RPS.sol\":1515:1556  choice == 0 || choice == 1 || choice == 2 */\n    tag_164:\n        /* \"RPS.sol\":1515:1571  choice == 0 || choice == 1 || choice == 2 || choice == 3 */\n      dup1\n      tag_165\n      jumpi\n      pop\n        /* \"RPS.sol\":1570:1571  3 */\n      0x03\n        /* \"RPS.sol\":1560:1566  choice */\n      dup2\n        /* \"RPS.sol\":1560:1571  choice == 3 */\n      eq\n        /* \"RPS.sol\":1515:1571  choice == 0 || choice == 1 || choice == 2 || choice == 3 */\n    tag_165:\n        /* \"RPS.sol\":1515:1586  choice == 0 || choice == 1 || choice == 2 || choice == 3 || choice == 4 */\n      dup1\n      tag_166\n      jumpi\n      pop\n        /* \"RPS.sol\":1585:1586  4 */\n      0x04\n        /* \"RPS.sol\":1575:1581  choice */\n      dup2\n        /* \"RPS.sol\":1575:1586  choice == 4 */\n      eq\n        /* \"RPS.sol\":1515:1586  choice == 0 || choice == 1 || choice == 2 || choice == 3 || choice == 4 */\n    tag_166:\n        /* \"RPS.sol\":1507:1587  require(choice == 0 || choice == 1 || choice == 2 || choice == 3 || choice == 4) */\n      tag_167\n      jumpi\n      0x00\n      dup1\n      revert\n    tag_167:\n        /* \"RPS.sol\":1661:1667  choice */\n      dup1\n        /* \"RPS.sol\":1633:1646  player_choice */\n      0x05\n        /* \"RPS.sol\":1633:1658  player_choice[msg.sender] */\n      0x00\n        /* \"RPS.sol\":1647:1657  msg.sender */\n      caller\n        /* \"RPS.sol\":1633:1658  player_choice[msg.sender] */\n      0xffffffffffffffffffffffffffffffffffffffff\n      and\n      0xffffffffffffffffffffffffffffffffffffffff\n      and\n      dup2\n      mstore\n      0x20\n      add\n      swap1\n      dup2\n      mstore\n      0x20\n      add\n      0x00\n      keccak256\n        /* \"RPS.sol\":1633:1667  player_choice[msg.sender] = choice */\n      dup2\n      swap1\n      sstore\n      pop\n        /* \"RPS.sol\":1709:1714  false */\n      0x00\n        /* \"RPS.sol\":1677:1694  player_not_played */\n      0x06\n        /* \"RPS.sol\":1677:1706  player_not_played[msg.sender] */\n      0x00\n        /* \"RPS.sol\":1695:1705  msg.sender */\n      caller\n        /* \"RPS.sol\":1677:1706  player_not_played[msg.sender] */\n      0xffffffffffffffffffffffffffffffffffffffff\n      and\n      0xffffffffffffffffffffffffffffffffffffffff\n      and\n      dup2\n      mstore\n      0x20\n      add\n      swap1\n      dup2\n      mstore\n      0x20\n      add\n      0x00\n      keccak256\n      0x00\n        /* \"RPS.sol\":1677:1714  player_not_played[msg.sender] = false */\n      0x0100\n      exp\n      dup2\n      sload\n      dup2\n      0xff\n      mul\n      not\n      and\n      swap1\n      dup4\n      iszero\n      iszero\n      mul\n      or\n      swap1\n      sstore\n      pop\n        /* \"RPS.sol\":1724:1732  numInput */\n      0x0c\n      0x00\n        /* \"RPS.sol\":1724:1734  numInput++ */\n      dup2\n      sload\n      dup1\n      swap3\n      swap2\n      swap1\n      tag_168\n      swap1\n      tag_130\n      jump\t// in\n    tag_168:\n      swap2\n      swap1\n      pop\n      sstore\n      pop\n        /* \"RPS.sol\":1760:1761  2 */\n      0x02\n        /* \"RPS.sol\":1748:1756  numInput */\n      sload(0x0c)\n        /* \"RPS.sol\":1748:1761  numInput == 2 */\n      sub\n        /* \"RPS.sol\":1744:1808  if (numInput == 2) {... */\n      tag_169\n      jumpi\n        /* \"RPS.sol\":1777:1797  _checkWinnerAndPay() */\n      tag_170\n        /* \"RPS.sol\":1777:1795  _checkWinnerAndPay */\n      tag_171\n        /* \"RPS.sol\":1777:1797  _checkWinnerAndPay() */\n      jump\t// in\n    tag_170:\n        /* \"RPS.sol\":1744:1808  if (numInput == 2) {... */\n    tag_169:\n        /* \"RPS.sol\":1380:1814  function input(uint choice) public  {... */\n      pop\n      jump\t// out\n        /* \"TimeUnit.sol\":774:1051  function elapsedMinutes() public view returns (uint256) { ... */\n    tag_96:\n        /* \"TimeUnit.sol\":821:828  uint256 */\n      0x00\n        /* \"TimeUnit.sol\":1036:1045  1 minutes */\n      0x3c\n        /* \"TimeUnit.sol\":1023:1032  startTime */\n      sload(0x02)\n        /* \"TimeUnit.sol\":1005:1020  block.timestamp */\n      timestamp\n        /* \"TimeUnit.sol\":1005:1032  block.timestamp - startTime */\n      tag_173\n      swap2\n      swap1\n      tag_159\n      jump\t// in\n    tag_173:\n        /* \"TimeUnit.sol\":1004:1045  (block.timestamp - startTime) / 1 minutes */\n      tag_174\n      swap2\n      swap1\n      tag_175\n      jump\t// in\n    tag_174:\n        /* \"TimeUnit.sol\":997:1045  return (block.timestamp - startTime) / 1 minutes */\n      swap1\n      pop\n        /* \"TimeUnit.sol\":774:1051  function elapsedMinutes() public view returns (uint256) { ... */\n      swap1\n      jump\t// out\n        /* \"CommitReveal.sol\":251:522  function commit(bytes32 dataHash) public {... */\n    tag_101:\n        /* \"CommitReveal.sol\":327:335  dataHash */\n      dup1\n        /* \"CommitReveal.sol\":298:305  commits */\n      0x01\n        /* \"CommitReveal.sol\":298:317  commits[msg.sender] */\n      0x00\n        /* \"CommitReveal.sol\":306:316  msg.sender */\n      caller\n        /* \"CommitReveal.sol\":298:317  commits[msg.sender] */\n      0xffffffffffffffffffffffffffffffffffffffff\n      and\n      0xffffffffffffffffffffffffffffffffffffffff\n      and\n      dup2\n      mstore\n      0x20\n      add\n      swap1\n      dup2\n      mstore\n      0x20\n      add\n      0x00\n      keccak256\n        /* \"CommitReveal.sol\":298:324  commits[msg.sender].commit */\n      0x00\n      add\n        /* \"CommitReveal.sol\":298:335  commits[msg.sender].commit = dataHash */\n      dup2\n      swap1\n      sstore\n      pop\n        /* \"CommitReveal.sol\":376:388  block.number */\n      number\n        /* \"CommitReveal.sol\":341:348  commits */\n      0x01\n        /* \"CommitReveal.sol\":341:360  commits[msg.sender] */\n      0x00\n        /* \"CommitReveal.sol\":349:359  msg.sender */\n      caller\n        /* \"CommitReveal.sol\":341:360  commits[msg.sender] */\n      0xffffffffffffffffffffffffffffffffffffffff\n      and\n      0xffffffffffffffffffffffffffffffffffffffff\n      and\n      dup2\n      mstore\n      0x20\n      add\n      swap1\n      dup2\n      mstore\n      0x20\n      add\n      0x00\n      keccak256\n        /* \"CommitReveal.sol\":341:366  commits[msg.sender].block */\n      0x01\n      add\n      0x00\n        /* \"CommitReveal.sol\":341:389  commits[msg.sender].block = uint64(block.number) */\n      0x0100\n      exp\n      dup2\n      sload\n      dup2\n      0xffffffffffffffff\n      mul\n      not\n      and\n      swap1\n      dup4\n      0xffffffffffffffff\n      and\n      mul\n      or\n      swap1\n      sstore\n      pop\n        /* \"CommitReveal.sol\":426:431  false */\n      0x00\n        /* \"CommitReveal.sol\":395:402  commits */\n      0x01\n        /* \"CommitReveal.sol\":395:414  commits[msg.sender] */\n      0x00\n        /* \"CommitReveal.sol\":403:413  msg.sender */\n      caller\n        /* \"CommitReveal.sol\":395:414  commits[msg.sender] */\n      0xffffffffffffffffffffffffffffffffffffffff\n      and\n      0xffffffffffffffffffffffffffffffffffffffff\n      and\n      dup2\n      mstore\n      0x20\n      add\n      swap1\n      dup2\n      mstore\n      0x20\n      add\n      0x00\n      keccak256\n        /* \"CommitReveal.sol\":395:423  commits[msg.sender].revealed */\n      0x01\n      add\n      0x08\n        /* \"CommitReveal.sol\":395:431  commits[msg.sender].revealed = false */\n      0x0100\n      exp\n      dup2\n      sload\n      dup2\n      0xff\n      mul\n      not\n      and\n      swap1\n      dup4\n      iszero\n      iszero\n      mul\n      or\n      swap1\n      sstore\n      pop\n        /* \"CommitReveal.sol\":442:517  CommitHash(msg.sender,commits[msg.sender].commit,commits[msg.sender].block) */\n      0x3c1a1f8f38335b17f751c6da4ba7d1865f26b3997535176f5080de9fad891603\n        /* \"CommitReveal.sol\":453:463  msg.sender */\n      caller\n        /* \"CommitReveal.sol\":464:471  commits */\n      0x01\n        /* \"CommitReveal.sol\":464:483  commits[msg.sender] */\n      0x00\n        /* \"CommitReveal.sol\":472:482  msg.sender */\n      caller\n        /* \"CommitReveal.sol\":464:483  commits[msg.sender] */\n      0xffffffffffffffffffffffffffffffffffffffff\n      and\n      0xffffffffffffffffffffffffffffffffffffffff\n      and\n      dup2\n      mstore\n      0x20\n      add\n      swap1\n      dup2\n      mstore\n      0x20\n      add\n      0x00\n      keccak256\n        /* \"CommitReveal.sol\":464:490  commits[msg.sender].commit */\n      0x00\n      add\n      sload\n        /* \"CommitReveal.sol\":491:498  commits */\n      0x01\n        /* \"CommitReveal.sol\":491:510  commits[msg.sender] */\n      0x00\n        /* \"CommitReveal.sol\":499:509  msg.sender */\n      caller\n        /* \"CommitReveal.sol\":491:510  commits[msg.sender] */\n      0xffffffffffffffffffffffffffffffffffffffff\n      and\n      0xffffffffffffffffffffffffffffffffffffffff\n      and\n      dup2\n      mstore\n      0x20\n      add\n      swap1\n      dup2\n      mstore\n      0x20\n      add\n      0x00\n      keccak256\n        /* \"CommitReveal.sol\":491:516  commits[msg.sender].block */\n      0x01\n      add\n      0x00\n      swap1\n      sload\n      swap1\n      0x0100\n      exp\n      swap1\n      div\n      0xffffffffffffffff\n      and\n        /* \"CommitReveal.sol\":442:517  CommitHash(msg.sender,commits[msg.sender].commit,commits[msg.sender].block) */\n      mload(0x40)\n      tag_177\n      swap4\n      swap3\n      swap2\n      swap1\n      tag_178\n      jump\t// in\n    tag_177:\n      mload(0x40)\n      dup1\n      swap2\n      sub\n      swap1\n      log1\n        /* \"CommitReveal.sol\":251:522  function commit(bytes32 dataHash) public {... */\n      pop\n      jump\t// out\n        /* \"RPS.sol\":423:447  address[] public players */\n    tag_105:\n      0x07\n      dup2\n      dup2\n      sload\n      dup2\n      lt\n      tag_179\n      jumpi\n      0x00\n      dup1\n      revert\n    tag_179:\n      swap1\n      0x00\n      mstore\n      keccak256(0x00, 0x20)\n      add\n      0x00\n      swap2\n      pop\n      sload\n      swap1\n      0x0100\n      exp\n      swap1\n      div\n      0xffffffffffffffffffffffffffffffffffffffff\n      and\n      dup2\n      jump\t// out\n        /* \"RPS.sol\":1820:2946  function _checkWinnerAndPay() private {... */\n    tag_171:\n        /* \"RPS.sol\":1868:1881  uint p0Choice */\n      0x00\n        /* \"RPS.sol\":1884:1897  player_choice */\n      0x05\n        /* \"RPS.sol\":1884:1909  player_choice[players[0]] */\n      0x00\n        /* \"RPS.sol\":1898:1905  players */\n      0x07\n        /* \"RPS.sol\":1906:1907  0 */\n      0x00\n        /* \"RPS.sol\":1898:1908  players[0] */\n      dup2\n      sload\n      dup2\n      lt\n      tag_182\n      jumpi\n      tag_183\n      tag_114\n      jump\t// in\n    tag_183:\n    tag_182:\n      swap1\n      0x00\n      mstore\n      keccak256(0x00, 0x20)\n      add\n      0x00\n      swap1\n      sload\n      swap1\n      0x0100\n      exp\n      swap1\n      div\n      0xffffffffffffffffffffffffffffffffffffffff\n      and\n        /* \"RPS.sol\":1884:1909  player_choice[players[0]] */\n      0xffffffffffffffffffffffffffffffffffffffff\n      and\n      0xffffffffffffffffffffffffffffffffffffffff\n      and\n      dup2\n      mstore\n      0x20\n      add\n      swap1\n      dup2\n      mstore\n      0x20\n      add\n      0x00\n      keccak256\n      sload\n        /* \"RPS.sol\":1868:1909  uint p0Choice = player_choice[players[0]] */\n      swap1\n      pop\n        /* \"RPS.sol\":1919:1932  uint p1Choice */\n      0x00\n        /* \"RPS.sol\":1935:1948  player_choice */\n      0x05\n        /* \"RPS.sol\":1935:1960  player_choice[players[1]] */\n      0x00\n        /* \"RPS.sol\":1949:1956  players */\n      0x07\n        /* \"RPS.sol\":1957:1958  1 */\n      0x01\n        /* \"RPS.sol\":1949:1959  players[1] */\n      dup2\n      sload\n      dup2\n      lt\n      tag_185\n      jumpi\n      tag_186\n      tag_114\n      jump\t// in\n    tag_186:\n    tag_185:\n      swap1\n      0x00\n      mstore\n      keccak256(0x00, 0x20)\n      add\n      0x00\n      swap1\n      sload\n      swap1\n      0x0100\n      exp\n      swap1\n      div\n      0xffffffffffffffffffffffffffffffffffffffff\n      and\n        /* \"RPS.sol\":1935:1960  player_choice[players[1]] */\n      0xffffffffffffffffffffffffffffffffffffffff\n      and\n      0xffffffffffffffffffffffffffffffffffffffff\n      and\n      dup2\n      mstore\n      0x20\n      add\n      swap1\n      dup2\n      mstore\n      0x20\n      add\n      0x00\n      keccak256\n      sload\n        /* \"RPS.sol\":1919:1960  uint p1Choice = player_choice[players[1]] */\n      swap1\n      pop\n        /* \"RPS.sol\":1970:1994  address payable account0 */\n      0x00\n        /* \"RPS.sol\":2005:2012  players */\n      0x07\n        /* \"RPS.sol\":2013:2014  0 */\n      0x00\n        /* \"RPS.sol\":2005:2015  players[0] */\n      dup2\n      sload\n      dup2\n      lt\n      tag_188\n      jumpi\n      tag_189\n      tag_114\n      jump\t// in\n    tag_189:\n    tag_188:\n      swap1\n      0x00\n      mstore\n      keccak256(0x00, 0x20)\n      add\n      0x00\n      swap1\n      sload\n      swap1\n      0x0100\n      exp\n      swap1\n      div\n      0xffffffffffffffffffffffffffffffffffffffff\n      and\n        /* \"RPS.sol\":1970:2016  address payable account0 = payable(players[0]) */\n      swap1\n      pop\n        /* \"RPS.sol\":2026:2050  address payable account1 */\n      0x00\n        /* \"RPS.sol\":2061:2068  players */\n      0x07\n        /* \"RPS.sol\":2069:2070  1 */\n      0x01\n        /* \"RPS.sol\":2061:2071  players[1] */\n      dup2\n      sload\n      dup2\n      lt\n      tag_191\n      jumpi\n      tag_192\n      tag_114\n      jump\t// in\n    tag_192:\n    tag_191:\n      swap1\n      0x00\n      mstore\n      keccak256(0x00, 0x20)\n      add\n      0x00\n      swap1\n      sload\n      swap1\n      0x0100\n      exp\n      swap1\n      div\n      0xffffffffffffffffffffffffffffffffffffffff\n      and\n        /* \"RPS.sol\":2026:2072  address payable account1 = payable(players[1]) */\n      swap1\n      pop\n        /* \"RPS.sol\":2463:2471  p1Choice */\n      dup3\n        /* \"RPS.sol\":2458:2459  5 */\n      0x05\n        /* \"RPS.sol\":2453:2454  1 */\n      0x01\n        /* \"RPS.sol\":2442:2450  p0Choice */\n      dup7\n        /* \"RPS.sol\":2442:2454  p0Choice + 1 */\n      tag_194\n      swap2\n      swap1\n      tag_127\n      jump\t// in\n    tag_194:\n        /* \"RPS.sol\":2441:2459  (p0Choice + 1) % 5 */\n      tag_195\n      swap2\n      swap1\n      tag_153\n      jump\t// in\n    tag_195:\n        /* \"RPS.sol\":2441:2471  (p0Choice + 1) % 5 == p1Choice */\n      eq\n        /* \"RPS.sol\":2441:2505  (p0Choice + 1) % 5 == p1Choice || (p0Choice + 3) % 5 == p1Choice */\n      dup1\n      tag_196\n      jumpi\n      pop\n        /* \"RPS.sol\":2497:2505  p1Choice */\n      dup3\n        /* \"RPS.sol\":2492:2493  5 */\n      0x05\n        /* \"RPS.sol\":2487:2488  3 */\n      0x03\n        /* \"RPS.sol\":2476:2484  p0Choice */\n      dup7\n        /* \"RPS.sol\":2476:2488  p0Choice + 3 */\n      tag_197\n      swap2\n      swap1\n      tag_127\n      jump\t// in\n    tag_197:\n        /* \"RPS.sol\":2475:2493  (p0Choice + 3) % 5 */\n      tag_198\n      swap2\n      swap1\n      tag_153\n      jump\t// in\n    tag_198:\n        /* \"RPS.sol\":2475:2505  (p0Choice + 3) % 5 == p1Choice */\n      eq\n        /* \"RPS.sol\":2441:2505  (p0Choice + 1) % 5 == p1Choice || (p0Choice + 3) % 5 == p1Choice */\n    tag_196:\n        /* \"RPS.sol\":2437:2901  if ((p0Choice + 1) % 5 == p1Choice || (p0Choice + 3) % 5 == p1Choice) {... */\n      iszero\n      tag_199\n      jumpi\n        /* \"RPS.sol\":2553:2561  account1 */\n      dup1\n        /* \"RPS.sol\":2553:2570  account1.transfer */\n      0xffffffffffffffffffffffffffffffffffffffff\n      and\n        /* \"RPS.sol\":2553:2578  account1.transfer(reward) */\n      0x08fc\n        /* \"RPS.sol\":2571:2577  reward */\n      sload(0x04)\n        /* \"RPS.sol\":2553:2578  account1.transfer(reward) */\n      swap1\n      dup2\n      iszero\n      mul\n      swap1\n      mload(0x40)\n      0x00\n      mload(0x40)\n      dup1\n      dup4\n      sub\n      dup2\n      dup6\n      dup9\n      dup9\n      call\n      swap4\n      pop\n      pop\n      pop\n      pop\n      iszero\n      dup1\n      iszero\n      tag_201\n      jumpi\n      returndatasize\n      0x00\n      dup1\n      returndatacopy\n      revert(0x00, returndatasize)\n    tag_201:\n      pop\n        /* \"RPS.sol\":2437:2901  if ((p0Choice + 1) % 5 == p1Choice || (p0Choice + 3) % 5 == p1Choice) {... */\n      jump(tag_202)\n    tag_199:\n        /* \"RPS.sol\":2629:2637  p0Choice */\n      dup4\n        /* \"RPS.sol\":2624:2625  5 */\n      0x05\n        /* \"RPS.sol\":2619:2620  1 */\n      0x01\n        /* \"RPS.sol\":2608:2616  p1Choice */\n      dup6\n        /* \"RPS.sol\":2608:2620  p1Choice + 1 */\n      tag_203\n      swap2\n      swap1\n      tag_127\n      jump\t// in\n    tag_203:\n        /* \"RPS.sol\":2607:2625  (p1Choice + 1) % 5 */\n      tag_204\n      swap2\n      swap1\n      tag_153\n      jump\t// in\n    tag_204:\n        /* \"RPS.sol\":2607:2637  (p1Choice + 1) % 5 == p0Choice */\n      eq\n        /* \"RPS.sol\":2607:2671  (p1Choice + 1) % 5 == p0Choice || (p1Choice + 3) % 5 == p0Choice */\n      dup1\n      tag_205\n      jumpi\n      pop\n        /* \"RPS.sol\":2663:2671  p0Choice */\n      dup4\n        /* \"RPS.sol\":2658:2659  5 */\n      0x05\n        /* \"RPS.sol\":2653:2654  3 */\n      0x03\n        /* \"RPS.sol\":2642:2650  p1Choice */\n      dup6\n        /* \"RPS.sol\":2642:2654  p1Choice + 3 */\n      tag_206\n      swap2\n      swap1\n      tag_127\n      jump\t// in\n    tag_206:\n        /* \"RPS.sol\":2641:2659  (p1Choice + 3) % 5 */\n      tag_207\n      swap2\n      swap1\n      tag_153\n      jump\t// in\n    tag_207:\n        /* \"RPS.sol\":2641:2671  (p1Choice + 3) % 5 == p0Choice */\n      eq\n        /* \"RPS.sol\":2607:2671  (p1Choice + 1) % 5 == p0Choice || (p1Choice + 3) % 5 == p0Choice */\n    tag_205:\n        /* \"RPS.sol\":2603:2901  if ((p1Choice + 1) % 5 == p0Choice || (p1Choice + 3) % 5 == p0Choice) {... */\n      iszero\n      tag_208\n      jumpi\n        /* \"RPS.sol\":2719:2727  account0 */\n      dup2\n        /* \"RPS.sol\":2719:2736  account0.transfer */\n      0xffffffffffffffffffffffffffffffffffffffff\n      and\n        /* \"RPS.sol\":2719:2744  account0.transfer(reward) */\n      0x08fc\n        /* \"RPS.sol\":2737:2743  reward */\n      sload(0x04)\n        /* \"RPS.sol\":2719:2744  account0.transfer(reward) */\n      swap1\n      dup2\n      iszero\n      mul\n      swap1\n      mload(0x40)\n      0x00\n      mload(0x40)\n      dup1\n      dup4\n      sub\n      dup2\n      dup6\n      dup9\n      dup9\n      call\n      swap4\n      pop\n      pop\n      pop\n      pop\n      iszero\n      dup1\n      iszero\n      tag_210\n      jumpi\n      returndatasize\n      0x00\n      dup1\n      returndatacopy\n      revert(0x00, returndatasize)\n    tag_210:\n      pop\n        /* \"RPS.sol\":2603:2901  if ((p1Choice + 1) % 5 == p0Choice || (p1Choice + 3) % 5 == p0Choice) {... */\n      jump(tag_211)\n    tag_208:\n        /* \"RPS.sol\":2818:2826  account0 */\n      dup2\n        /* \"RPS.sol\":2818:2835  account0.transfer */\n      0xffffffffffffffffffffffffffffffffffffffff\n      and\n        /* \"RPS.sol\":2818:2847  account0.transfer(reward / 2) */\n      0x08fc\n        /* \"RPS.sol\":2845:2846  2 */\n      0x02\n        /* \"RPS.sol\":2836:2842  reward */\n      sload(0x04)\n        /* \"RPS.sol\":2836:2846  reward / 2 */\n      tag_212\n      swap2\n      swap1\n      tag_175\n      jump\t// in\n    tag_212:\n        /* \"RPS.sol\":2818:2847  account0.transfer(reward / 2) */\n      swap1\n      dup2\n      iszero\n      mul\n      swap1\n      mload(0x40)\n      0x00\n      mload(0x40)\n      dup1\n      dup4\n      sub\n      dup2\n      dup6\n      dup9\n      dup9\n      call\n      swap4\n      pop\n      pop\n      pop\n      pop\n      iszero\n      dup1\n      iszero\n      tag_214\n      jumpi\n      returndatasize\n      0x00\n      dup1\n      returndatacopy\n      revert(0x00, returndatasize)\n    tag_214:\n      pop\n        /* \"RPS.sol\":2861:2869  account1 */\n      dup1\n        /* \"RPS.sol\":2861:2878  account1.transfer */\n      0xffffffffffffffffffffffffffffffffffffffff\n      and\n        /* \"RPS.sol\":2861:2890  account1.transfer(reward / 2) */\n      0x08fc\n        /* \"RPS.sol\":2888:2889  2 */\n      0x02\n        /* \"RPS.sol\":2879:2885  reward */\n      sload(0x04)\n        /* \"RPS.sol\":2879:2889  reward / 2 */\n      tag_215\n      swap2\n      swap1\n      tag_175\n      jump\t// in\n    tag_215:\n        /* \"RPS.sol\":2861:2890  account1.transfer(reward / 2) */\n      swap1\n      dup2\n      iszero\n      mul\n      swap1\n      mload(0x40)\n      0x00\n      mload(0x40)\n      dup1\n      dup4\n      sub\n      dup2\n      dup6\n      dup9\n      dup9\n      call\n      swap4\n      pop\n      pop\n      pop\n      pop\n      iszero\n      dup1\n      iszero\n      tag_217\n      jumpi\n      returndatasize\n      0x00\n      dup1\n      returndatacopy\n      revert(0x00, returndatasize)\n    tag_217:\n      pop\n        /* \"RPS.sol\":2603:2901  if ((p1Choice + 1) % 5 == p0Choice || (p1Choice + 3) % 5 == p0Choice) {... */\n    tag_211:\n        /* \"RPS.sol\":2437:2901  if ((p0Choice + 1) % 5 == p1Choice || (p0Choice + 3) % 5 == p1Choice) {... */\n    tag_202:\n        /* \"RPS.sol\":2910:2920  newRound() */\n      tag_218\n        /* \"RPS.sol\":2910:2918  newRound */\n      tag_219\n        /* \"RPS.sol\":2910:2920  newRound() */\n      jump\t// in\n    tag_218:\n        /* \"RPS.sol\":1858:2946  {... */\n      pop\n      pop\n      pop\n      pop\n        /* \"RPS.sol\":1820:2946  function _checkWinnerAndPay() private {... */\n      jump\t// out\n        /* \"RPS.sol\":3045:3315  function newRound() private {... */\n    tag_219:\n        /* \"RPS.sol\":3095:3096  0 */\n      0x00\n        /* \"RPS.sol\":3083:3092  numPlayer */\n      0x03\n        /* \"RPS.sol\":3083:3096  numPlayer = 0 */\n      dup2\n      swap1\n      sstore\n      pop\n        /* \"RPS.sol\":3115:3116  0 */\n      0x00\n        /* \"RPS.sol\":3106:3112  reward */\n      0x04\n        /* \"RPS.sol\":3106:3116  reward = 0 */\n      dup2\n      swap1\n      sstore\n      pop\n        /* \"RPS.sol\":3154:3155  0 */\n      0x00\n        /* \"RPS.sol\":3126:3139  player_choice */\n      0x05\n        /* \"RPS.sol\":3126:3151  player_choice[players[0]] */\n      0x00\n        /* \"RPS.sol\":3140:3147  players */\n      0x07\n        /* \"RPS.sol\":3148:3149  0 */\n      0x00\n        /* \"RPS.sol\":3140:3150  players[0] */\n      dup2\n      sload\n      dup2\n      lt\n      tag_221\n      jumpi\n      tag_222\n      tag_114\n      jump\t// in\n    tag_222:\n    tag_221:\n      swap1\n      0x00\n      mstore\n      keccak256(0x00, 0x20)\n      add\n      0x00\n      swap1\n      sload\n      swap1\n      0x0100\n      exp\n      swap1\n      div\n      0xffffffffffffffffffffffffffffffffffffffff\n      and\n        /* \"RPS.sol\":3126:3151  player_choice[players[0]] */\n      0xffffffffffffffffffffffffffffffffffffffff\n      and\n      0xffffffffffffffffffffffffffffffffffffffff\n      and\n      dup2\n      mstore\n      0x20\n      add\n      swap1\n      dup2\n      mstore\n      0x20\n      add\n      0x00\n      keccak256\n        /* \"RPS.sol\":3126:3155  player_choice[players[0]] = 0 */\n      dup2\n      swap1\n      sstore\n      pop\n        /* \"RPS.sol\":3193:3194  0 */\n      0x00\n        /* \"RPS.sol\":3165:3178  player_choice */\n      0x05\n        /* \"RPS.sol\":3165:3190  player_choice[players[1]] */\n      0x00\n        /* \"RPS.sol\":3179:3186  players */\n      0x07\n        /* \"RPS.sol\":3187:3188  1 */\n      0x01\n        /* \"RPS.sol\":3179:3189  players[1] */\n      dup2\n      sload\n      dup2\n      lt\n      tag_224\n      jumpi\n      tag_225\n      tag_114\n      jump\t// in\n    tag_225:\n    tag_224:\n      swap1\n      0x00\n      mstore\n      keccak256(0x00, 0x20)\n      add\n      0x00\n      swap1\n      sload\n      swap1\n      0x0100\n      exp\n      swap1\n      div\n      0xffffffffffffffffffffffffffffffffffffffff\n      and\n        /* \"RPS.sol\":3165:3190  player_choice[players[1]] */\n      0xffffffffffffffffffffffffffffffffffffffff\n      and\n      0xffffffffffffffffffffffffffffffffffffffff\n      and\n      dup2\n      mstore\n      0x20\n      add\n      swap1\n      dup2\n      mstore\n      0x20\n      add\n      0x00\n      keccak256\n        /* \"RPS.sol\":3165:3194  player_choice[players[1]] = 0 */\n      dup2\n      swap1\n      sstore\n      pop\n        /* \"RPS.sol\":3236:3240  true */\n      0x01\n        /* \"RPS.sol\":3204:3221  player_not_played */\n      0x06\n        /* \"RPS.sol\":3204:3233  player_not_played[players[0]] */\n      0x00\n        /* \"RPS.sol\":3222:3229  players */\n      0x07\n        /* \"RPS.sol\":3230:3231  0 */\n      0x00\n        /* \"RPS.sol\":3222:3232  players[0] */\n      dup2\n      sload\n      dup2\n      lt\n      tag_227\n      jumpi\n      tag_228\n      tag_114\n      jump\t// in\n    tag_228:\n    tag_227:\n      swap1\n      0x00\n      mstore\n      keccak256(0x00, 0x20)\n      add\n      0x00\n      swap1\n      sload\n      swap1\n      0x0100\n      exp\n      swap1\n      div\n      0xffffffffffffffffffffffffffffffffffffffff\n      and\n        /* \"RPS.sol\":3204:3233  player_not_played[players[0]] */\n      0xffffffffffffffffffffffffffffffffffffffff\n      and\n      0xffffffffffffffffffffffffffffffffffffffff\n      and\n      dup2\n      mstore\n      0x20\n      add\n      swap1\n      dup2\n      mstore\n      0x20\n      add\n      0x00\n      keccak256\n      0x00\n        /* \"RPS.sol\":3204:3240  player_not_played[players[0]] = true */\n      0x0100\n      exp\n      dup2\n      sload\n      dup2\n      0xff\n      mul\n      not\n      and\n      swap1\n      dup4\n      iszero\n      iszero\n      mul\n      or\n      swap1\n      sstore\n      pop\n        /* \"RPS.sol\":3282:3286  true */\n      0x01\n        /* \"RPS.sol\":3250:3267  player_not_played */\n      0x06\n        /* \"RPS.sol\":3250:3279  player_not_played[players[1]] */\n      0x00\n        /* \"RPS.sol\":3268:3275  players */\n      0x07\n        /* \"RPS.sol\":3276:3277  1 */\n      0x01\n        /* \"RPS.sol\":3268:3278  players[1] */\n      dup2\n      sload\n      dup2\n      lt\n      tag_230\n      jumpi\n      tag_231\n      tag_114\n      jump\t// in\n    tag_231:\n    tag_230:\n      swap1\n      0x00\n      mstore\n      keccak256(0x00, 0x20)\n      add\n      0x00\n      swap1\n      sload\n      swap1\n      0x0100\n      exp\n      swap1\n      div\n      0xffffffffffffffffffffffffffffffffffffffff\n      and\n        /* \"RPS.sol\":3250:3279  player_not_played[players[1]] */\n      0xffffffffffffffffffffffffffffffffffffffff\n      and\n      0xffffffffffffffffffffffffffffffffffffffff\n      and\n      dup2\n      mstore\n      0x20\n      add\n      swap1\n      dup2\n      mstore\n      0x20\n      add\n      0x00\n      keccak256\n      0x00\n        /* \"RPS.sol\":3250:3286  player_not_played[players[1]] = true */\n      0x0100\n      exp\n      dup2\n      sload\n      dup2\n      0xff\n      mul\n      not\n      and\n      swap1\n      dup4\n      iszero\n      iszero\n      mul\n      or\n      swap1\n      sstore\n      pop\n        /* \"RPS.sol\":3307:3308  0 */\n      0x00\n        /* \"RPS.sol\":3296:3304  numInput */\n      0x0c\n        /* \"RPS.sol\":3296:3308  numInput = 0 */\n      dup2\n      swap1\n      sstore\n      pop\n        /* \"RPS.sol\":3045:3315  function newRound() private {... */\n      jump\t// out\n        /* \"#utility.yul\":7:84   */\n    tag_233:\n        /* \"#utility.yul\":44:51   */\n      0x00\n        /* \"#utility.yul\":73:78   */\n      dup2\n        /* \"#utility.yul\":62:78   */\n      swap1\n      pop\n        /* \"#utility.yul\":7:84   */\n      swap2\n      swap1\n      pop\n      jump\t// out\n        /* \"#utility.yul\":90:208   */\n    tag_234:\n        /* \"#utility.yul\":177:201   */\n      tag_271\n        /* \"#utility.yul\":195:200   */\n      dup2\n        /* \"#utility.yul\":177:201   */\n      tag_233\n      jump\t// in\n    tag_271:\n        /* \"#utility.yul\":172:175   */\n      dup3\n        /* \"#utility.yul\":165:202   */\n      mstore\n        /* \"#utility.yul\":90:208   */\n      pop\n      pop\n      jump\t// out\n        /* \"#utility.yul\":214:436   */\n    tag_27:\n        /* \"#utility.yul\":307:311   */\n      0x00\n        /* \"#utility.yul\":345:347   */\n      0x20\n        /* \"#utility.yul\":334:343   */\n      dup3\n        /* \"#utility.yul\":330:348   */\n      add\n        /* \"#utility.yul\":322:348   */\n      swap1\n      pop\n        /* \"#utility.yul\":358:429   */\n      tag_273\n        /* \"#utility.yul\":426:427   */\n      0x00\n        /* \"#utility.yul\":415:424   */\n      dup4\n        /* \"#utility.yul\":411:428   */\n      add\n        /* \"#utility.yul\":402:408   */\n      dup5\n        /* \"#utility.yul\":358:429   */\n      tag_234\n      jump\t// in\n    tag_273:\n        /* \"#utility.yul\":214:436   */\n      swap3\n      swap2\n      pop\n      pop\n      jump\t// out\n        /* \"#utility.yul\":523:640   */\n    tag_236:\n        /* \"#utility.yul\":632:633   */\n      0x00\n        /* \"#utility.yul\":629:630   */\n      dup1\n        /* \"#utility.yul\":622:634   */\n      revert\n        /* \"#utility.yul\":769:891   */\n    tag_238:\n        /* \"#utility.yul\":842:866   */\n      tag_278\n        /* \"#utility.yul\":860:865   */\n      dup2\n        /* \"#utility.yul\":842:866   */\n      tag_233\n      jump\t// in\n    tag_278:\n        /* \"#utility.yul\":835:840   */\n      dup2\n        /* \"#utility.yul\":832:867   */\n      eq\n        /* \"#utility.yul\":822:885   */\n      tag_279\n      jumpi\n        /* \"#utility.yul\":881:882   */\n      0x00\n        /* \"#utility.yul\":878:879   */\n      dup1\n        /* \"#utility.yul\":871:883   */\n      revert\n        /* \"#utility.yul\":822:885   */\n    tag_279:\n        /* \"#utility.yul\":769:891   */\n      pop\n      jump\t// out\n        /* \"#utility.yul\":897:1036   */\n    tag_239:\n        /* \"#utility.yul\":943:948   */\n      0x00\n        /* \"#utility.yul\":981:987   */\n      dup2\n        /* \"#utility.yul\":968:988   */\n      calldataload\n        /* \"#utility.yul\":959:988   */\n      swap1\n      pop\n        /* \"#utility.yul\":997:1030   */\n      tag_281\n        /* \"#utility.yul\":1024:1029   */\n      dup2\n        /* \"#utility.yul\":997:1030   */\n      tag_238\n      jump\t// in\n    tag_281:\n        /* \"#utility.yul\":897:1036   */\n      swap3\n      swap2\n      pop\n      pop\n      jump\t// out\n        /* \"#utility.yul\":1042:1371   */\n    tag_31:\n        /* \"#utility.yul\":1101:1107   */\n      0x00\n        /* \"#utility.yul\":1150:1152   */\n      0x20\n        /* \"#utility.yul\":1138:1147   */\n      dup3\n        /* \"#utility.yul\":1129:1136   */\n      dup5\n        /* \"#utility.yul\":1125:1148   */\n      sub\n        /* \"#utility.yul\":1121:1153   */\n      slt\n        /* \"#utility.yul\":1118:1237   */\n      iszero\n      tag_283\n      jumpi\n        /* \"#utility.yul\":1156:1235   */\n      tag_284\n      tag_236\n      jump\t// in\n    tag_284:\n        /* \"#utility.yul\":1118:1237   */\n    tag_283:\n        /* \"#utility.yul\":1276:1277   */\n      0x00\n        /* \"#utility.yul\":1301:1354   */\n      tag_285\n        /* \"#utility.yul\":1346:1353   */\n      dup5\n        /* \"#utility.yul\":1337:1343   */\n      dup3\n        /* \"#utility.yul\":1326:1335   */\n      dup6\n        /* \"#utility.yul\":1322:1344   */\n      add\n        /* \"#utility.yul\":1301:1354   */\n      tag_239\n      jump\t// in\n    tag_285:\n        /* \"#utility.yul\":1291:1354   */\n      swap2\n      pop\n        /* \"#utility.yul\":1247:1364   */\n      pop\n        /* \"#utility.yul\":1042:1371   */\n      swap3\n      swap2\n      pop\n      pop\n      jump\t// out\n        /* \"#utility.yul\":1377:1503   */\n    tag_240:\n        /* \"#utility.yul\":1414:1421   */\n      0x00\n        /* \"#utility.yul\":1454:1496   */\n      0xffffffffffffffffffffffffffffffffffffffff\n        /* \"#utility.yul\":1447:1452   */\n      dup3\n        /* \"#utility.yul\":1443:1497   */\n      and\n        /* \"#utility.yul\":1432:1497   */\n      swap1\n      pop\n        /* \"#utility.yul\":1377:1503   */\n      swap2\n      swap1\n      pop\n      jump\t// out\n        /* \"#utility.yul\":1509:1605   */\n    tag_241:\n        /* \"#utility.yul\":1546:1553   */\n      0x00\n        /* \"#utility.yul\":1575:1599   */\n      tag_288\n        /* \"#utility.yul\":1593:1598   */\n      dup3\n        /* \"#utility.yul\":1575:1599   */\n      tag_240\n      jump\t// in\n    tag_288:\n        /* \"#utility.yul\":1564:1599   */\n      swap1\n      pop\n        /* \"#utility.yul\":1509:1605   */\n      swap2\n      swap1\n      pop\n      jump\t// out\n        /* \"#utility.yul\":1611:1729   */\n    tag_242:\n        /* \"#utility.yul\":1698:1722   */\n      tag_290\n        /* \"#utility.yul\":1716:1721   */\n      dup2\n        /* \"#utility.yul\":1698:1722   */\n      tag_241\n      jump\t// in\n    tag_290:\n        /* \"#utility.yul\":1693:1696   */\n      dup3\n        /* \"#utility.yul\":1686:1723   */\n      mstore\n        /* \"#utility.yul\":1611:1729   */\n      pop\n      pop\n      jump\t// out\n        /* \"#utility.yul\":1735:1957   */\n    tag_34:\n        /* \"#utility.yul\":1828:1832   */\n      0x00\n        /* \"#utility.yul\":1866:1868   */\n      0x20\n        /* \"#utility.yul\":1855:1864   */\n      dup3\n        /* \"#utility.yul\":1851:1869   */\n      add\n        /* \"#utility.yul\":1843:1869   */\n      swap1\n      pop\n        /* \"#utility.yul\":1879:1950   */\n      tag_292\n        /* \"#utility.yul\":1947:1948   */\n      0x00\n        /* \"#utility.yul\":1936:1945   */\n      dup4\n        /* \"#utility.yul\":1932:1949   */\n      add\n        /* \"#utility.yul\":1923:1929   */\n      dup5\n        /* \"#utility.yul\":1879:1950   */\n      tag_242\n      jump\t// in\n    tag_292:\n        /* \"#utility.yul\":1735:1957   */\n      swap3\n      swap2\n      pop\n      pop\n      jump\t// out\n        /* \"#utility.yul\":1963:2085   */\n    tag_243:\n        /* \"#utility.yul\":2036:2060   */\n      tag_294\n        /* \"#utility.yul\":2054:2059   */\n      dup2\n        /* \"#utility.yul\":2036:2060   */\n      tag_241\n      jump\t// in\n    tag_294:\n        /* \"#utility.yul\":2029:2034   */\n      dup2\n        /* \"#utility.yul\":2026:2061   */\n      eq\n        /* \"#utility.yul\":2016:2079   */\n      tag_295\n      jumpi\n        /* \"#utility.yul\":2075:2076   */\n      0x00\n        /* \"#utility.yul\":2072:2073   */\n      dup1\n        /* \"#utility.yul\":2065:2077   */\n      revert\n        /* \"#utility.yul\":2016:2079   */\n    tag_295:\n        /* \"#utility.yul\":1963:2085   */\n      pop\n      jump\t// out\n        /* \"#utility.yul\":2091:2230   */\n    tag_244:\n        /* \"#utility.yul\":2137:2142   */\n      0x00\n        /* \"#utility.yul\":2175:2181   */\n      dup2\n        /* \"#utility.yul\":2162:2182   */\n      calldataload\n        /* \"#utility.yul\":2153:2182   */\n      swap1\n      pop\n        /* \"#utility.yul\":2191:2224   */\n      tag_297\n        /* \"#utility.yul\":2218:2223   */\n      dup2\n        /* \"#utility.yul\":2191:2224   */\n      tag_243\n      jump\t// in\n    tag_297:\n        /* \"#utility.yul\":2091:2230   */\n      swap3\n      swap2\n      pop\n      pop\n      jump\t// out\n        /* \"#utility.yul\":2236:2565   */\n    tag_38:\n        /* \"#utility.yul\":2295:2301   */\n      0x00\n        /* \"#utility.yul\":2344:2346   */\n      0x20\n        /* \"#utility.yul\":2332:2341   */\n      dup3\n        /* \"#utility.yul\":2323:2330   */\n      dup5\n        /* \"#utility.yul\":2319:2342   */\n      sub\n        /* \"#utility.yul\":2315:2347   */\n      slt\n        /* \"#utility.yul\":2312:2431   */\n      iszero\n      tag_299\n      jumpi\n        /* \"#utility.yul\":2350:2429   */\n      tag_300\n      tag_236\n      jump\t// in\n    tag_300:\n        /* \"#utility.yul\":2312:2431   */\n    tag_299:\n        /* \"#utility.yul\":2470:2471   */\n      0x00\n        /* \"#utility.yul\":2495:2548   */\n      tag_301\n        /* \"#utility.yul\":2540:2547   */\n      dup5\n        /* \"#utility.yul\":2531:2537   */\n      dup3\n        /* \"#utility.yul\":2520:2529   */\n      dup6\n        /* \"#utility.yul\":2516:2538   */\n      add\n        /* \"#utility.yul\":2495:2548   */\n      tag_244\n      jump\t// in\n    tag_301:\n        /* \"#utility.yul\":2485:2548   */\n      swap2\n      pop\n        /* \"#utility.yul\":2441:2558   */\n      pop\n        /* \"#utility.yul\":2236:2565   */\n      swap3\n      swap2\n      pop\n      pop\n      jump\t// out\n        /* \"#utility.yul\":2571:2661   */\n    tag_245:\n        /* \"#utility.yul\":2605:2612   */\n      0x00\n        /* \"#utility.yul\":2648:2653   */\n      dup2\n        /* \"#utility.yul\":2641:2654   */\n      iszero\n        /* \"#utility.yul\":2634:2655   */\n      iszero\n        /* \"#utility.yul\":2623:2655   */\n      swap1\n      pop\n        /* \"#utility.yul\":2571:2661   */\n      swap2\n      swap1\n      pop\n      jump\t// out\n        /* \"#utility.yul\":2667:2776   */\n    tag_246:\n        /* \"#utility.yul\":2748:2769   */\n      tag_304\n        /* \"#utility.yul\":2763:2768   */\n      dup2\n        /* \"#utility.yul\":2748:2769   */\n      tag_245\n      jump\t// in\n    tag_304:\n        /* \"#utility.yul\":2743:2746   */\n      dup3\n        /* \"#utility.yul\":2736:2770   */\n      mstore\n        /* \"#utility.yul\":2667:2776   */\n      pop\n      pop\n      jump\t// out\n        /* \"#utility.yul\":2782:2992   */\n    tag_41:\n        /* \"#utility.yul\":2869:2873   */\n      0x00\n        /* \"#utility.yul\":2907:2909   */\n      0x20\n        /* \"#utility.yul\":2896:2905   */\n      dup3\n        /* \"#utility.yul\":2892:2910   */\n      add\n        /* \"#utility.yul\":2884:2910   */\n      swap1\n      pop\n        /* \"#utility.yul\":2920:2985   */\n      tag_306\n        /* \"#utility.yul\":2982:2983   */\n      0x00\n        /* \"#utility.yul\":2971:2980   */\n      dup4\n        /* \"#utility.yul\":2967:2984   */\n      add\n        /* \"#utility.yul\":2958:2964   */\n      dup5\n        /* \"#utility.yul\":2920:2985   */\n      tag_246\n      jump\t// in\n    tag_306:\n        /* \"#utility.yul\":2782:2992   */\n      swap3\n      swap2\n      pop\n      pop\n      jump\t// out\n        /* \"#utility.yul\":2998:3075   */\n    tag_247:\n        /* \"#utility.yul\":3035:3042   */\n      0x00\n        /* \"#utility.yul\":3064:3069   */\n      dup2\n        /* \"#utility.yul\":3053:3069   */\n      swap1\n      pop\n        /* \"#utility.yul\":2998:3075   */\n      swap2\n      swap1\n      pop\n      jump\t// out\n        /* \"#utility.yul\":3081:3203   */\n    tag_248:\n        /* \"#utility.yul\":3154:3178   */\n      tag_309\n        /* \"#utility.yul\":3172:3177   */\n      dup2\n        /* \"#utility.yul\":3154:3178   */\n      tag_247\n      jump\t// in\n    tag_309:\n        /* \"#utility.yul\":3147:3152   */\n      dup2\n        /* \"#utility.yul\":3144:3179   */\n      eq\n        /* \"#utility.yul\":3134:3197   */\n      tag_310\n      jumpi\n        /* \"#utility.yul\":3193:3194   */\n      0x00\n        /* \"#utility.yul\":3190:3191   */\n      dup1\n        /* \"#utility.yul\":3183:3195   */\n      revert\n        /* \"#utility.yul\":3134:3197   */\n    tag_310:\n        /* \"#utility.yul\":3081:3203   */\n      pop\n      jump\t// out\n        /* \"#utility.yul\":3209:3348   */\n    tag_249:\n        /* \"#utility.yul\":3255:3260   */\n      0x00\n        /* \"#utility.yul\":3293:3299   */\n      dup2\n        /* \"#utility.yul\":3280:3300   */\n      calldataload\n        /* \"#utility.yul\":3271:3300   */\n      swap1\n      pop\n        /* \"#utility.yul\":3309:3342   */\n      tag_312\n        /* \"#utility.yul\":3336:3341   */\n      dup2\n        /* \"#utility.yul\":3309:3342   */\n      tag_248\n      jump\t// in\n    tag_312:\n        /* \"#utility.yul\":3209:3348   */\n      swap3\n      swap2\n      pop\n      pop\n      jump\t// out\n        /* \"#utility.yul\":3354:3683   */\n    tag_51:\n        /* \"#utility.yul\":3413:3419   */\n      0x00\n        /* \"#utility.yul\":3462:3464   */\n      0x20\n        /* \"#utility.yul\":3450:3459   */\n      dup3\n        /* \"#utility.yul\":3441:3448   */\n      dup5\n        /* \"#utility.yul\":3437:3460   */\n      sub\n        /* \"#utility.yul\":3433:3465   */\n      slt\n        /* \"#utility.yul\":3430:3549   */\n      iszero\n      tag_314\n      jumpi\n        /* \"#utility.yul\":3468:3547   */\n      tag_315\n      tag_236\n      jump\t// in\n    tag_315:\n        /* \"#utility.yul\":3430:3549   */\n    tag_314:\n        /* \"#utility.yul\":3588:3589   */\n      0x00\n        /* \"#utility.yul\":3613:3666   */\n      tag_316\n        /* \"#utility.yul\":3658:3665   */\n      dup5\n        /* \"#utility.yul\":3649:3655   */\n      dup3\n        /* \"#utility.yul\":3638:3647   */\n      dup6\n        /* \"#utility.yul\":3634:3656   */\n      add\n        /* \"#utility.yul\":3613:3666   */\n      tag_249\n      jump\t// in\n    tag_316:\n        /* \"#utility.yul\":3603:3666   */\n      swap2\n      pop\n        /* \"#utility.yul\":3559:3676   */\n      pop\n        /* \"#utility.yul\":3354:3683   */\n      swap3\n      swap2\n      pop\n      pop\n      jump\t// out\n        /* \"#utility.yul\":3689:3807   */\n    tag_250:\n        /* \"#utility.yul\":3776:3800   */\n      tag_318\n        /* \"#utility.yul\":3794:3799   */\n      dup2\n        /* \"#utility.yul\":3776:3800   */\n      tag_247\n      jump\t// in\n    tag_318:\n        /* \"#utility.yul\":3771:3774   */\n      dup3\n        /* \"#utility.yul\":3764:3801   */\n      mstore\n        /* \"#utility.yul\":3689:3807   */\n      pop\n      pop\n      jump\t// out\n        /* \"#utility.yul\":3813:4035   */\n    tag_54:\n        /* \"#utility.yul\":3906:3910   */\n      0x00\n        /* \"#utility.yul\":3944:3946   */\n      0x20\n        /* \"#utility.yul\":3933:3942   */\n      dup3\n        /* \"#utility.yul\":3929:3947   */\n      add\n        /* \"#utility.yul\":3921:3947   */\n      swap1\n      pop\n        /* \"#utility.yul\":3957:4028   */\n      tag_320\n        /* \"#utility.yul\":4025:4026   */\n      0x00\n        /* \"#utility.yul\":4014:4023   */\n      dup4\n        /* \"#utility.yul\":4010:4027   */\n      add\n        /* \"#utility.yul\":4001:4007   */\n      dup5\n        /* \"#utility.yul\":3957:4028   */\n      tag_250\n      jump\t// in\n    tag_320:\n        /* \"#utility.yul\":3813:4035   */\n      swap3\n      swap2\n      pop\n      pop\n      jump\t// out\n        /* \"#utility.yul\":4041:4127   */\n    tag_251:\n        /* \"#utility.yul\":4076:4083   */\n      0x00\n        /* \"#utility.yul\":4116:4120   */\n      0xff\n        /* \"#utility.yul\":4109:4114   */\n      dup3\n        /* \"#utility.yul\":4105:4121   */\n      and\n        /* \"#utility.yul\":4094:4121   */\n      swap1\n      pop\n        /* \"#utility.yul\":4041:4127   */\n      swap2\n      swap1\n      pop\n      jump\t// out\n        /* \"#utility.yul\":4133:4245   */\n    tag_252:\n        /* \"#utility.yul\":4216:4238   */\n      tag_323\n        /* \"#utility.yul\":4232:4237   */\n      dup2\n        /* \"#utility.yul\":4216:4238   */\n      tag_251\n      jump\t// in\n    tag_323:\n        /* \"#utility.yul\":4211:4214   */\n      dup3\n        /* \"#utility.yul\":4204:4239   */\n      mstore\n        /* \"#utility.yul\":4133:4245   */\n      pop\n      pop\n      jump\t// out\n        /* \"#utility.yul\":4251:4465   */\n    tag_59:\n        /* \"#utility.yul\":4340:4344   */\n      0x00\n        /* \"#utility.yul\":4378:4380   */\n      0x20\n        /* \"#utility.yul\":4367:4376   */\n      dup3\n        /* \"#utility.yul\":4363:4381   */\n      add\n        /* \"#utility.yul\":4355:4381   */\n      swap1\n      pop\n        /* \"#utility.yul\":4391:4458   */\n      tag_325\n        /* \"#utility.yul\":4455:4456   */\n      0x00\n        /* \"#utility.yul\":4444:4453   */\n      dup4\n        /* \"#utility.yul\":4440:4457   */\n      add\n        /* \"#utility.yul\":4431:4437   */\n      dup5\n        /* \"#utility.yul\":4391:4458   */\n      tag_252\n      jump\t// in\n    tag_325:\n        /* \"#utility.yul\":4251:4465   */\n      swap3\n      swap2\n      pop\n      pop\n      jump\t// out\n        /* \"#utility.yul\":4471:4572   */\n    tag_253:\n        /* \"#utility.yul\":4507:4514   */\n      0x00\n        /* \"#utility.yul\":4547:4565   */\n      0xffffffffffffffff\n        /* \"#utility.yul\":4540:4545   */\n      dup3\n        /* \"#utility.yul\":4536:4566   */\n      and\n        /* \"#utility.yul\":4525:4566   */\n      swap1\n      pop\n        /* \"#utility.yul\":4471:4572   */\n      swap2\n      swap1\n      pop\n      jump\t// out\n        /* \"#utility.yul\":4578:4693   */\n    tag_254:\n        /* \"#utility.yul\":4663:4686   */\n      tag_328\n        /* \"#utility.yul\":4680:4685   */\n      dup2\n        /* \"#utility.yul\":4663:4686   */\n      tag_253\n      jump\t// in\n    tag_328:\n        /* \"#utility.yul\":4658:4661   */\n      dup3\n        /* \"#utility.yul\":4651:4687   */\n      mstore\n        /* \"#utility.yul\":4578:4693   */\n      pop\n      pop\n      jump\t// out\n        /* \"#utility.yul\":4699:5125   */\n    tag_73:\n        /* \"#utility.yul\":4840:4844   */\n      0x00\n        /* \"#utility.yul\":4878:4880   */\n      0x60\n        /* \"#utility.yul\":4867:4876   */\n      dup3\n        /* \"#utility.yul\":4863:4881   */\n      add\n        /* \"#utility.yul\":4855:4881   */\n      swap1\n      pop\n        /* \"#utility.yul\":4891:4962   */\n      tag_330\n        /* \"#utility.yul\":4959:4960   */\n      0x00\n        /* \"#utility.yul\":4948:4957   */\n      dup4\n        /* \"#utility.yul\":4944:4961   */\n      add\n        /* \"#utility.yul\":4935:4941   */\n      dup7\n        /* \"#utility.yul\":4891:4962   */\n      tag_250\n      jump\t// in\n    tag_330:\n        /* \"#utility.yul\":4972:5042   */\n      tag_331\n        /* \"#utility.yul\":5038:5040   */\n      0x20\n        /* \"#utility.yul\":5027:5036   */\n      dup4\n        /* \"#utility.yul\":5023:5041   */\n      add\n        /* \"#utility.yul\":5014:5020   */\n      dup6\n        /* \"#utility.yul\":4972:5042   */\n      tag_254\n      jump\t// in\n    tag_331:\n        /* \"#utility.yul\":5052:5118   */\n      tag_332\n        /* \"#utility.yul\":5114:5116   */\n      0x40\n        /* \"#utility.yul\":5103:5112   */\n      dup4\n        /* \"#utility.yul\":5099:5117   */\n      add\n        /* \"#utility.yul\":5090:5096   */\n      dup5\n        /* \"#utility.yul\":5052:5118   */\n      tag_246\n      jump\t// in\n    tag_332:\n        /* \"#utility.yul\":4699:5125   */\n      swap5\n      swap4\n      pop\n      pop\n      pop\n      pop\n      jump\t// out\n        /* \"#utility.yul\":5131:5311   */\n    tag_114:\n        /* \"#utility.yul\":5179:5256   */\n      0x4e487b7100000000000000000000000000000000000000000000000000000000\n        /* \"#utility.yul\":5176:5177   */\n      0x00\n        /* \"#utility.yul\":5169:5257   */\n      mstore\n        /* \"#utility.yul\":5276:5280   */\n      0x32\n        /* \"#utility.yul\":5273:5274   */\n      0x04\n        /* \"#utility.yul\":5266:5281   */\n      mstore\n        /* \"#utility.yul\":5300:5304   */\n      0x24\n        /* \"#utility.yul\":5297:5298   */\n      0x00\n        /* \"#utility.yul\":5290:5305   */\n      revert\n        /* \"#utility.yul\":5317:5497   */\n    tag_255:\n        /* \"#utility.yul\":5365:5442   */\n      0x4e487b7100000000000000000000000000000000000000000000000000000000\n        /* \"#utility.yul\":5362:5363   */\n      0x00\n        /* \"#utility.yul\":5355:5443   */\n      mstore\n        /* \"#utility.yul\":5462:5466   */\n      0x11\n        /* \"#utility.yul\":5459:5460   */\n      0x04\n        /* \"#utility.yul\":5452:5467   */\n      mstore\n        /* \"#utility.yul\":5486:5490   */\n      0x24\n        /* \"#utility.yul\":5483:5484   */\n      0x00\n        /* \"#utility.yul\":5476:5491   */\n      revert\n        /* \"#utility.yul\":5503:5694   */\n    tag_127:\n        /* \"#utility.yul\":5543:5546   */\n      0x00\n        /* \"#utility.yul\":5562:5582   */\n      tag_336\n        /* \"#utility.yul\":5580:5581   */\n      dup3\n        /* \"#utility.yul\":5562:5582   */\n      tag_233\n      jump\t// in\n    tag_336:\n        /* \"#utility.yul\":5557:5582   */\n      swap2\n      pop\n        /* \"#utility.yul\":5596:5616   */\n      tag_337\n        /* \"#utility.yul\":5614:5615   */\n      dup4\n        /* \"#utility.yul\":5596:5616   */\n      tag_233\n      jump\t// in\n    tag_337:\n        /* \"#utility.yul\":5591:5616   */\n      swap3\n      pop\n        /* \"#utility.yul\":5639:5640   */\n      dup3\n        /* \"#utility.yul\":5636:5637   */\n      dup3\n        /* \"#utility.yul\":5632:5641   */\n      add\n        /* \"#utility.yul\":5625:5641   */\n      swap1\n      pop\n        /* \"#utility.yul\":5660:5663   */\n      dup1\n        /* \"#utility.yul\":5657:5658   */\n      dup3\n        /* \"#utility.yul\":5654:5664   */\n      gt\n        /* \"#utility.yul\":5651:5687   */\n      iszero\n      tag_338\n      jumpi\n        /* \"#utility.yul\":5667:5685   */\n      tag_339\n      tag_255\n      jump\t// in\n    tag_339:\n        /* \"#utility.yul\":5651:5687   */\n    tag_338:\n        /* \"#utility.yul\":5503:5694   */\n      swap3\n      swap2\n      pop\n      pop\n      jump\t// out\n        /* \"#utility.yul\":5700:5933   */\n    tag_130:\n        /* \"#utility.yul\":5739:5742   */\n      0x00\n        /* \"#utility.yul\":5762:5786   */\n      tag_341\n        /* \"#utility.yul\":5780:5785   */\n      dup3\n        /* \"#utility.yul\":5762:5786   */\n      tag_233\n      jump\t// in\n    tag_341:\n        /* \"#utility.yul\":5753:5786   */\n      swap2\n      pop\n        /* \"#utility.yul\":5808:5874   */\n      0xffffffffffffffffffffffffffffffffffffffffffffffffffffffffffffffff\n        /* \"#utility.yul\":5801:5806   */\n      dup3\n        /* \"#utility.yul\":5798:5875   */\n      sub\n        /* \"#utility.yul\":5795:5898   */\n      tag_342\n      jumpi\n        /* \"#utility.yul\":5878:5896   */\n      tag_343\n      tag_255\n      jump\t// in\n    tag_343:\n        /* \"#utility.yul\":5795:5898   */\n    tag_342:\n        /* \"#utility.yul\":5925:5926   */\n      0x01\n        /* \"#utility.yul\":5918:5923   */\n      dup3\n        /* \"#utility.yul\":5914:5927   */\n      add\n        /* \"#utility.yul\":5907:5927   */\n      swap1\n      pop\n        /* \"#utility.yul\":5700:5933   */\n      swap2\n      swap1\n      pop\n      jump\t// out\n        /* \"#utility.yul\":5939:6018   */\n    tag_256:\n        /* \"#utility.yul\":5978:5985   */\n      0x00\n        /* \"#utility.yul\":6007:6012   */\n      dup2\n        /* \"#utility.yul\":5996:6012   */\n      swap1\n      pop\n        /* \"#utility.yul\":5939:6018   */\n      swap2\n      swap1\n      pop\n      jump\t// out\n        /* \"#utility.yul\":6024:6181   */\n    tag_257:\n        /* \"#utility.yul\":6129:6174   */\n      tag_346\n        /* \"#utility.yul\":6149:6173   */\n      tag_347\n        /* \"#utility.yul\":6167:6172   */\n      dup3\n        /* \"#utility.yul\":6149:6173   */\n      tag_247\n      jump\t// in\n    tag_347:\n        /* \"#utility.yul\":6129:6174   */\n      tag_256\n      jump\t// in\n    tag_346:\n        /* \"#utility.yul\":6124:6127   */\n      dup3\n        /* \"#utility.yul\":6117:6175   */\n      mstore\n        /* \"#utility.yul\":6024:6181   */\n      pop\n      pop\n      jump\t// out\n        /* \"#utility.yul\":6187:6443   */\n    tag_133:\n        /* \"#utility.yul\":6299:6302   */\n      0x00\n        /* \"#utility.yul\":6314:6389   */\n      tag_349\n        /* \"#utility.yul\":6385:6388   */\n      dup3\n        /* \"#utility.yul\":6376:6382   */\n      dup5\n        /* \"#utility.yul\":6314:6389   */\n      tag_257\n      jump\t// in\n    tag_349:\n        /* \"#utility.yul\":6414:6416   */\n      0x20\n        /* \"#utility.yul\":6409:6412   */\n      dup3\n        /* \"#utility.yul\":6405:6417   */\n      add\n        /* \"#utility.yul\":6398:6417   */\n      swap2\n      pop\n        /* \"#utility.yul\":6434:6437   */\n      dup2\n        /* \"#utility.yul\":6427:6437   */\n      swap1\n      pop\n        /* \"#utility.yul\":6187:6443   */\n      swap3\n      swap2\n      pop\n      pop\n      jump\t// out\n        /* \"#utility.yul\":6449:6618   */\n    tag_258:\n        /* \"#utility.yul\":6533:6544   */\n      0x00\n        /* \"#utility.yul\":6567:6573   */\n      dup3\n        /* \"#utility.yul\":6562:6565   */\n      dup3\n        /* \"#utility.yul\":6555:6574   */\n      mstore\n        /* \"#utility.yul\":6607:6611   */\n      0x20\n        /* \"#utility.yul\":6602:6605   */\n      dup3\n        /* \"#utility.yul\":6598:6612   */\n      add\n        /* \"#utility.yul\":6583:6612   */\n      swap1\n      pop\n        /* \"#utility.yul\":6449:6618   */\n      swap3\n      swap2\n      pop\n      pop\n      jump\t// out\n        /* \"#utility.yul\":6624:6849   */\n    tag_259:\n        /* \"#utility.yul\":6764:6798   */\n      0x436f6d6d697452657665616c3a3a72657665616c3a20416c7265616479207265\n        /* \"#utility.yul\":6760:6761   */\n      0x00\n        /* \"#utility.yul\":6752:6758   */\n      dup3\n        /* \"#utility.yul\":6748:6762   */\n      add\n        /* \"#utility.yul\":6741:6799   */\n      mstore\n        /* \"#utility.yul\":6833:6841   */\n      0x7665616c65640000000000000000000000000000000000000000000000000000\n        /* \"#utility.yul\":6828:6830   */\n      0x20\n        /* \"#utility.yul\":6820:6826   */\n      dup3\n        /* \"#utility.yul\":6816:6831   */\n      add\n        /* \"#utility.yul\":6809:6842   */\n      mstore\n        /* \"#utility.yul\":6624:6849   */\n      pop\n      jump\t// out\n        /* \"#utility.yul\":6855:7221   */\n    tag_260:\n        /* \"#utility.yul\":6997:7000   */\n      0x00\n        /* \"#utility.yul\":7018:7085   */\n      tag_353\n        /* \"#utility.yul\":7082:7084   */\n      0x26\n        /* \"#utility.yul\":7077:7080   */\n      dup4\n        /* \"#utility.yul\":7018:7085   */\n      tag_258\n      jump\t// in\n    tag_353:\n        /* \"#utility.yul\":7011:7085   */\n      swap2\n      pop\n        /* \"#utility.yul\":7094:7187   */\n      tag_354\n        /* \"#utility.yul\":7183:7186   */\n      dup3\n        /* \"#utility.yul\":7094:7187   */\n      tag_259\n      jump\t// in\n    tag_354:\n        /* \"#utility.yul\":7212:7214   */\n      0x40\n        /* \"#utility.yul\":7207:7210   */\n      dup3\n        /* \"#utility.yul\":7203:7215   */\n      add\n        /* \"#utility.yul\":7196:7215   */\n      swap1\n      pop\n        /* \"#utility.yul\":6855:7221   */\n      swap2\n      swap1\n      pop\n      jump\t// out\n        /* \"#utility.yul\":7227:7646   */\n    tag_137:\n        /* \"#utility.yul\":7393:7397   */\n      0x00\n        /* \"#utility.yul\":7431:7433   */\n      0x20\n        /* \"#utility.yul\":7420:7429   */\n      dup3\n        /* \"#utility.yul\":7416:7434   */\n      add\n        /* \"#utility.yul\":7408:7434   */\n      swap1\n      pop\n        /* \"#utility.yul\":7480:7489   */\n      dup2\n        /* \"#utility.yul\":7474:7478   */\n      dup2\n        /* \"#utility.yul\":7470:7490   */\n      sub\n        /* \"#utility.yul\":7466:7467   */\n      0x00\n        /* \"#utility.yul\":7455:7464   */\n      dup4\n        /* \"#utility.yul\":7451:7468   */\n      add\n        /* \"#utility.yul\":7444:7491   */\n      mstore\n        /* \"#utility.yul\":7508:7639   */\n      tag_356\n        /* \"#utility.yul\":7634:7638   */\n      dup2\n        /* \"#utility.yul\":7508:7639   */\n      tag_260\n      jump\t// in\n    tag_356:\n        /* \"#utility.yul\":7500:7639   */\n      swap1\n      pop\n        /* \"#utility.yul\":7227:7646   */\n      swap2\n      swap1\n      pop\n      jump\t// out\n        /* \"#utility.yul\":7652:7896   */\n    tag_261:\n        /* \"#utility.yul\":7792:7826   */\n      0x436f6d6d697452657665616c3a3a72657665616c3a2052657665616c65642068\n        /* \"#utility.yul\":7788:7789   */\n      0x00\n        /* \"#utility.yul\":7780:7786   */\n      dup3\n        /* \"#utility.yul\":7776:7790   */\n      add\n        /* \"#utility.yul\":7769:7827   */\n      mstore\n        /* \"#utility.yul\":7861:7888   */\n      0x61736820646f6573206e6f74206d6174636820636f6d6d697400000000000000\n        /* \"#utility.yul\":7856:7858   */\n      0x20\n        /* \"#utility.yul\":7848:7854   */\n      dup3\n        /* \"#utility.yul\":7844:7859   */\n      add\n        /* \"#utility.yul\":7837:7889   */\n      mstore\n        /* \"#utility.yul\":7652:7896   */\n      pop\n      jump\t// out\n        /* \"#utility.yul\":7902:8268   */\n    tag_262:\n        /* \"#utility.yul\":8044:8047   */\n      0x00\n        /* \"#utility.yul\":8065:8132   */\n      tag_359\n        /* \"#utility.yul\":8129:8131   */\n      0x39\n        /* \"#utility.yul\":8124:8127   */\n      dup4\n        /* \"#utility.yul\":8065:8132   */\n      tag_258\n      jump\t// in\n    tag_359:\n        /* \"#utility.yul\":8058:8132   */\n      swap2\n      pop\n        /* \"#utility.yul\":8141:8234   */\n      tag_360\n        /* \"#utility.yul\":8230:8233   */\n      dup3\n        /* \"#utility.yul\":8141:8234   */\n      tag_261\n      jump\t// in\n    tag_360:\n        /* \"#utility.yul\":8259:8261   */\n      0x40\n        /* \"#utility.yul\":8254:8257   */\n      dup3\n        /* \"#utility.yul\":8250:8262   */\n      add\n        /* \"#utility.yul\":8243:8262   */\n      swap1\n      pop\n        /* \"#utility.yul\":7902:8268   */\n      swap2\n      swap1\n      pop\n      jump\t// out\n        /* \"#utility.yul\":8274:8693   */\n    tag_141:\n        /* \"#utility.yul\":8440:8444   */\n      0x00\n        /* \"#utility.yul\":8478:8480   */\n      0x20\n        /* \"#utility.yul\":8467:8476   */\n      dup3\n        /* \"#utility.yul\":8463:8481   */\n      add\n        /* \"#utility.yul\":8455:8481   */\n      swap1\n      pop\n        /* \"#utility.yul\":8527:8536   */\n      dup2\n        /* \"#utility.yul\":8521:8525   */\n      dup2\n        /* \"#utility.yul\":8517:8537   */\n      sub\n        /* \"#utility.yul\":8513:8514   */\n      0x00\n        /* \"#utility.yul\":8502:8511   */\n      dup4\n        /* \"#utility.yul\":8498:8515   */\n      add\n        /* \"#utility.yul\":8491:8538   */\n      mstore\n        /* \"#utility.yul\":8555:8686   */\n      tag_362\n        /* \"#utility.yul\":8681:8685   */\n      dup2\n        /* \"#utility.yul\":8555:8686   */\n      tag_262\n      jump\t// in\n    tag_362:\n        /* \"#utility.yul\":8547:8686   */\n      swap1\n      pop\n        /* \"#utility.yul\":8274:8693   */\n      swap2\n      swap1\n      pop\n      jump\t// out\n        /* \"#utility.yul\":8699:8989   */\n    tag_263:\n        /* \"#utility.yul\":8839:8873   */\n      0x436f6d6d697452657665616c3a3a72657665616c3a2052657665616c20616e64\n        /* \"#utility.yul\":8835:8836   */\n      0x00\n        /* \"#utility.yul\":8827:8833   */\n      dup3\n        /* \"#utility.yul\":8823:8837   */\n      add\n        /* \"#utility.yul\":8816:8874   */\n      mstore\n        /* \"#utility.yul\":8908:8942   */\n      0x20636f6d6d69742068617070656e6564206f6e207468652073616d6520626c6f\n        /* \"#utility.yul\":8903:8905   */\n      0x20\n        /* \"#utility.yul\":8895:8901   */\n      dup3\n        /* \"#utility.yul\":8891:8906   */\n      add\n        /* \"#utility.yul\":8884:8943   */\n      mstore\n        /* \"#utility.yul\":8977:8981   */\n      0x636b000000000000000000000000000000000000000000000000000000000000\n        /* \"#utility.yul\":8972:8974   */\n      0x40\n        /* \"#utility.yul\":8964:8970   */\n      dup3\n        /* \"#utility.yul\":8960:8975   */\n      add\n        /* \"#utility.yul\":8953:8982   */\n      mstore\n        /* \"#utility.yul\":8699:8989   */\n      pop\n      jump\t// out\n        /* \"#utility.yul\":8995:9361   */\n    tag_264:\n        /* \"#utility.yul\":9137:9140   */\n      0x00\n        /* \"#utility.yul\":9158:9225   */\n      tag_365\n        /* \"#utility.yul\":9222:9224   */\n      0x42\n        /* \"#utility.yul\":9217:9220   */\n      dup4\n        /* \"#utility.yul\":9158:9225   */\n      tag_258\n      jump\t// in\n    tag_365:\n        /* \"#utility.yul\":9151:9225   */\n      swap2\n      pop\n        /* \"#utility.yul\":9234:9327   */\n      tag_366\n        /* \"#utility.yul\":9323:9326   */\n      dup3\n        /* \"#utility.yul\":9234:9327   */\n      tag_263\n      jump\t// in\n    tag_366:\n        /* \"#utility.yul\":9352:9354   */\n      0x60\n        /* \"#utility.yul\":9347:9350   */\n      dup3\n        /* \"#utility.yul\":9343:9355   */\n      add\n        /* \"#utility.yul\":9336:9355   */\n      swap1\n      pop\n        /* \"#utility.yul\":8995:9361   */\n      swap2\n      swap1\n      pop\n      jump\t// out\n        /* \"#utility.yul\":9367:9786   */\n    tag_144:\n        /* \"#utility.yul\":9533:9537   */\n      0x00\n        /* \"#utility.yul\":9571:9573   */\n      0x20\n        /* \"#utility.yul\":9560:9569   */\n      dup3\n        /* \"#utility.yul\":9556:9574   */\n      add\n        /* \"#utility.yul\":9548:9574   */\n      swap1\n      pop\n        /* \"#utility.yul\":9620:9629   */\n      dup2\n        /* \"#utility.yul\":9614:9618   */\n      dup2\n        /* \"#utility.yul\":9610:9630   */\n      sub\n        /* \"#utility.yul\":9606:9607   */\n      0x00\n        /* \"#utility.yul\":9595:9604   */\n      dup4\n        /* \"#utility.yul\":9591:9608   */\n      add\n        /* \"#utility.yul\":9584:9631   */\n      mstore\n        /* \"#utility.yul\":9648:9779   */\n      tag_368\n        /* \"#utility.yul\":9774:9778   */\n      dup2\n        /* \"#utility.yul\":9648:9779   */\n      tag_264\n      jump\t// in\n    tag_368:\n        /* \"#utility.yul\":9640:9779   */\n      swap1\n      pop\n        /* \"#utility.yul\":9367:9786   */\n      swap2\n      swap1\n      pop\n      jump\t// out\n        /* \"#utility.yul\":9792:9997   */\n    tag_146:\n        /* \"#utility.yul\":9831:9834   */\n      0x00\n        /* \"#utility.yul\":9850:9869   */\n      tag_370\n        /* \"#utility.yul\":9867:9868   */\n      dup3\n        /* \"#utility.yul\":9850:9869   */\n      tag_253\n      jump\t// in\n    tag_370:\n        /* \"#utility.yul\":9845:9869   */\n      swap2\n      pop\n        /* \"#utility.yul\":9883:9902   */\n      tag_371\n        /* \"#utility.yul\":9900:9901   */\n      dup4\n        /* \"#utility.yul\":9883:9902   */\n      tag_253\n      jump\t// in\n    tag_371:\n        /* \"#utility.yul\":9878:9902   */\n      swap3\n      pop\n        /* \"#utility.yul\":9925:9926   */\n      dup3\n        /* \"#utility.yul\":9922:9923   */\n      dup3\n        /* \"#utility.yul\":9918:9927   */\n      add\n        /* \"#utility.yul\":9911:9927   */\n      swap1\n      pop\n        /* \"#utility.yul\":9948:9966   */\n      0xffffffffffffffff\n        /* \"#utility.yul\":9943:9946   */\n      dup2\n        /* \"#utility.yul\":9940:9967   */\n      gt\n        /* \"#utility.yul\":9937:9990   */\n      iszero\n      tag_372\n      jumpi\n        /* \"#utility.yul\":9970:9988   */\n      tag_373\n      tag_255\n      jump\t// in\n    tag_373:\n        /* \"#utility.yul\":9937:9990   */\n    tag_372:\n        /* \"#utility.yul\":9792:9997   */\n      swap3\n      swap2\n      pop\n      pop\n      jump\t// out\n        /* \"#utility.yul\":10003:10229   */\n    tag_265:\n        /* \"#utility.yul\":10143:10177   */\n      0x436f6d6d697452657665616c3a3a72657665616c3a2052657665616c65642074\n        /* \"#utility.yul\":10139:10140   */\n      0x00\n        /* \"#utility.yul\":10131:10137   */\n      dup3\n        /* \"#utility.yul\":10127:10141   */\n      add\n        /* \"#utility.yul\":10120:10178   */\n      mstore\n        /* \"#utility.yul\":10212:10221   */\n      0x6f6f206c61746500000000000000000000000000000000000000000000000000\n        /* \"#utility.yul\":10207:10209   */\n      0x20\n        /* \"#utility.yul\":10199:10205   */\n      dup3\n        /* \"#utility.yul\":10195:10210   */\n      add\n        /* \"#utility.yul\":10188:10222   */\n      mstore\n        /* \"#utility.yul\":10003:10229   */\n      pop\n      jump\t// out\n        /* \"#utility.yul\":10235:10601   */\n    tag_266:\n        /* \"#utility.yul\":10377:10380   */\n      0x00\n        /* \"#utility.yul\":10398:10465   */\n      tag_376\n        /* \"#utility.yul\":10462:10464   */\n      0x27\n        /* \"#utility.yul\":10457:10460   */\n      dup4\n        /* \"#utility.yul\":10398:10465   */\n      tag_258\n      jump\t// in\n    tag_376:\n        /* \"#utility.yul\":10391:10465   */\n      swap2\n      pop\n        /* \"#utility.yul\":10474:10567   */\n      tag_377\n        /* \"#utility.yul\":10563:10566   */\n      dup3\n        /* \"#utility.yul\":10474:10567   */\n      tag_265\n      jump\t// in\n    tag_377:\n        /* \"#utility.yul\":10592:10594   */\n      0x40\n        /* \"#utility.yul\":10587:10590   */\n      dup3\n        /* \"#utility.yul\":10583:10595   */\n      add\n        /* \"#utility.yul\":10576:10595   */\n      swap1\n      pop\n        /* \"#utility.yul\":10235:10601   */\n      swap2\n      swap1\n      pop\n      jump\t// out\n        /* \"#utility.yul\":10607:11026   */\n    tag_149:\n        /* \"#utility.yul\":10773:10777   */\n      0x00\n        /* \"#utility.yul\":10811:10813   */\n      0x20\n        /* \"#utility.yul\":10800:10809   */\n      dup3\n        /* \"#utility.yul\":10796:10814   */\n      add\n        /* \"#utility.yul\":10788:10814   */\n      swap1\n      pop\n        /* \"#utility.yul\":10860:10869   */\n      dup2\n        /* \"#utility.yul\":10854:10858   */\n      dup2\n        /* \"#utility.yul\":10850:10870   */\n      sub\n        /* \"#utility.yul\":10846:10847   */\n      0x00\n        /* \"#utility.yul\":10835:10844   */\n      dup4\n        /* \"#utility.yul\":10831:10848   */\n      add\n        /* \"#utility.yul\":10824:10871   */\n      mstore\n        /* \"#utility.yul\":10888:11019   */\n      tag_379\n        /* \"#utility.yul\":11014:11018   */\n      dup2\n        /* \"#utility.yul\":10888:11019   */\n      tag_266\n      jump\t// in\n    tag_379:\n        /* \"#utility.yul\":10880:11019   */\n      swap1\n      pop\n        /* \"#utility.yul\":10607:11026   */\n      swap2\n      swap1\n      pop\n      jump\t// out\n        /* \"#utility.yul\":11032:11429   */\n    tag_151:\n        /* \"#utility.yul\":11172:11175   */\n      0x00\n        /* \"#utility.yul\":11187:11262   */\n      tag_381\n        /* \"#utility.yul\":11258:11261   */\n      dup3\n        /* \"#utility.yul\":11249:11255   */\n      dup6\n        /* \"#utility.yul\":11187:11262   */\n      tag_257\n      jump\t// in\n    tag_381:\n        /* \"#utility.yul\":11287:11289   */\n      0x20\n        /* \"#utility.yul\":11282:11285   */\n      dup3\n        /* \"#utility.yul\":11278:11290   */\n      add\n        /* \"#utility.yul\":11271:11290   */\n      swap2\n      pop\n        /* \"#utility.yul\":11300:11375   */\n      tag_382\n        /* \"#utility.yul\":11371:11374   */\n      dup3\n        /* \"#utility.yul\":11362:11368   */\n      dup5\n        /* \"#utility.yul\":11300:11375   */\n      tag_257\n      jump\t// in\n    tag_382:\n        /* \"#utility.yul\":11400:11402   */\n      0x20\n        /* \"#utility.yul\":11395:11398   */\n      dup3\n        /* \"#utility.yul\":11391:11403   */\n      add\n        /* \"#utility.yul\":11384:11403   */\n      swap2\n      pop\n        /* \"#utility.yul\":11420:11423   */\n      dup2\n        /* \"#utility.yul\":11413:11423   */\n      swap1\n      pop\n        /* \"#utility.yul\":11032:11429   */\n      swap4\n      swap3\n      pop\n      pop\n      pop\n      jump\t// out\n        /* \"#utility.yul\":11435:11615   */\n    tag_267:\n        /* \"#utility.yul\":11483:11560   */\n      0x4e487b7100000000000000000000000000000000000000000000000000000000\n        /* \"#utility.yul\":11480:11481   */\n      0x00\n        /* \"#utility.yul\":11473:11561   */\n      mstore\n        /* \"#utility.yul\":11580:11584   */\n      0x12\n        /* \"#utility.yul\":11577:11578   */\n      0x04\n        /* \"#utility.yul\":11570:11585   */\n      mstore\n        /* \"#utility.yul\":11604:11608   */\n      0x24\n        /* \"#utility.yul\":11601:11602   */\n      0x00\n        /* \"#utility.yul\":11594:11609   */\n      revert\n        /* \"#utility.yul\":11621:11797   */\n    tag_153:\n        /* \"#utility.yul\":11653:11654   */\n      0x00\n        /* \"#utility.yul\":11670:11690   */\n      tag_385\n        /* \"#utility.yul\":11688:11689   */\n      dup3\n        /* \"#utility.yul\":11670:11690   */\n      tag_233\n      jump\t// in\n    tag_385:\n        /* \"#utility.yul\":11665:11690   */\n      swap2\n      pop\n        /* \"#utility.yul\":11704:11724   */\n      tag_386\n        /* \"#utility.yul\":11722:11723   */\n      dup4\n        /* \"#utility.yul\":11704:11724   */\n      tag_233\n      jump\t// in\n    tag_386:\n        /* \"#utility.yul\":11699:11724   */\n      swap3\n      pop\n        /* \"#utility.yul\":11743:11744   */\n      dup3\n        /* \"#utility.yul\":11733:11768   */\n      tag_387\n      jumpi\n        /* \"#utility.yul\":11748:11766   */\n      tag_388\n      tag_267\n      jump\t// in\n    tag_388:\n        /* \"#utility.yul\":11733:11768   */\n    tag_387:\n        /* \"#utility.yul\":11789:11790   */\n      dup3\n        /* \"#utility.yul\":11786:11787   */\n      dup3\n        /* \"#utility.yul\":11782:11791   */\n      mod\n        /* \"#utility.yul\":11777:11791   */\n      swap1\n      pop\n        /* \"#utility.yul\":11621:11797   */\n      swap3\n      swap2\n      pop\n      pop\n      jump\t// out\n        /* \"#utility.yul\":11803:12245   */\n    tag_155:\n        /* \"#utility.yul\":11952:11956   */\n      0x00\n        /* \"#utility.yul\":11990:11992   */\n      0x60\n        /* \"#utility.yul\":11979:11988   */\n      dup3\n        /* \"#utility.yul\":11975:11993   */\n      add\n        /* \"#utility.yul\":11967:11993   */\n      swap1\n      pop\n        /* \"#utility.yul\":12003:12074   */\n      tag_390\n        /* \"#utility.yul\":12071:12072   */\n      0x00\n        /* \"#utility.yul\":12060:12069   */\n      dup4\n        /* \"#utility.yul\":12056:12073   */\n      add\n        /* \"#utility.yul\":12047:12053   */\n      dup7\n        /* \"#utility.yul\":12003:12074   */\n      tag_242\n      jump\t// in\n    tag_390:\n        /* \"#utility.yul\":12084:12156   */\n      tag_391\n        /* \"#utility.yul\":12152:12154   */\n      0x20\n        /* \"#utility.yul\":12141:12150   */\n      dup4\n        /* \"#utility.yul\":12137:12155   */\n      add\n        /* \"#utility.yul\":12128:12134   */\n      dup6\n        /* \"#utility.yul\":12084:12156   */\n      tag_250\n      jump\t// in\n    tag_391:\n        /* \"#utility.yul\":12166:12238   */\n      tag_392\n        /* \"#utility.yul\":12234:12236   */\n      0x40\n        /* \"#utility.yul\":12223:12232   */\n      dup4\n        /* \"#utility.yul\":12219:12237   */\n      add\n        /* \"#utility.yul\":12210:12216   */\n      dup5\n        /* \"#utility.yul\":12166:12238   */\n      tag_234\n      jump\t// in\n    tag_392:\n        /* \"#utility.yul\":11803:12245   */\n      swap5\n      swap4\n      pop\n      pop\n      pop\n      pop\n      jump\t// out\n        /* \"#utility.yul\":12251:12445   */\n    tag_159:\n        /* \"#utility.yul\":12291:12295   */\n      0x00\n        /* \"#utility.yul\":12311:12331   */\n      tag_394\n        /* \"#utility.yul\":12329:12330   */\n      dup3\n        /* \"#utility.yul\":12311:12331   */\n      tag_233\n      jump\t// in\n    tag_394:\n        /* \"#utility.yul\":12306:12331   */\n      swap2\n      pop\n        /* \"#utility.yul\":12345:12365   */\n      tag_395\n        /* \"#utility.yul\":12363:12364   */\n      dup4\n        /* \"#utility.yul\":12345:12365   */\n      tag_233\n      jump\t// in\n    tag_395:\n        /* \"#utility.yul\":12340:12365   */\n      swap3\n      pop\n        /* \"#utility.yul\":12389:12390   */\n      dup3\n        /* \"#utility.yul\":12386:12387   */\n      dup3\n        /* \"#utility.yul\":12382:12391   */\n      sub\n        /* \"#utility.yul\":12374:12391   */\n      swap1\n      pop\n        /* \"#utility.yul\":12413:12414   */\n      dup2\n        /* \"#utility.yul\":12407:12411   */\n      dup2\n        /* \"#utility.yul\":12404:12415   */\n      gt\n        /* \"#utility.yul\":12401:12438   */\n      iszero\n      tag_396\n      jumpi\n        /* \"#utility.yul\":12418:12436   */\n      tag_397\n      tag_255\n      jump\t// in\n    tag_397:\n        /* \"#utility.yul\":12401:12438   */\n    tag_396:\n        /* \"#utility.yul\":12251:12445   */\n      swap3\n      swap2\n      pop\n      pop\n      jump\t// out\n        /* \"#utility.yul\":12451:12636   */\n    tag_175:\n        /* \"#utility.yul\":12491:12492   */\n      0x00\n        /* \"#utility.yul\":12508:12528   */\n      tag_399\n        /* \"#utility.yul\":12526:12527   */\n      dup3\n        /* \"#utility.yul\":12508:12528   */\n      tag_233\n      jump\t// in\n    tag_399:\n        /* \"#utility.yul\":12503:12528   */\n      swap2\n      pop\n        /* \"#utility.yul\":12542:12562   */\n      tag_400\n        /* \"#utility.yul\":12560:12561   */\n      dup4\n        /* \"#utility.yul\":12542:12562   */\n      tag_233\n      jump\t// in\n    tag_400:\n        /* \"#utility.yul\":12537:12562   */\n      swap3\n      pop\n        /* \"#utility.yul\":12581:12582   */\n      dup3\n        /* \"#utility.yul\":12571:12606   */\n      tag_401\n      jumpi\n        /* \"#utility.yul\":12586:12604   */\n      tag_402\n      tag_267\n      jump\t// in\n    tag_402:\n        /* \"#utility.yul\":12571:12606   */\n    tag_401:\n        /* \"#utility.yul\":12628:12629   */\n      dup3\n        /* \"#utility.yul\":12625:12626   */\n      dup3\n        /* \"#utility.yul\":12621:12630   */\n      div\n        /* \"#utility.yul\":12616:12630   */\n      swap1\n      pop\n        /* \"#utility.yul\":12451:12636   */\n      swap3\n      swap2\n      pop\n      pop\n      jump\t// out\n        /* \"#utility.yul\":12642:13080   */\n    tag_178:\n        /* \"#utility.yul\":12789:12793   */\n      0x00\n        /* \"#utility.yul\":12827:12829   */\n      0x60\n        /* \"#utility.yul\":12816:12825   */\n      dup3\n        /* \"#utility.yul\":12812:12830   */\n      add\n        /* \"#utility.yul\":12804:12830   */\n      swap1\n      pop\n        /* \"#utility.yul\":12840:12911   */\n      tag_404\n        /* \"#utility.yul\":12908:12909   */\n      0x00\n        /* \"#utility.yul\":12897:12906   */\n      dup4\n        /* \"#utility.yul\":12893:12910   */\n      add\n        /* \"#utility.yul\":12884:12890   */\n      dup7\n        /* \"#utility.yul\":12840:12911   */\n      tag_242\n      jump\t// in\n    tag_404:\n        /* \"#utility.yul\":12921:12993   */\n      tag_405\n        /* \"#utility.yul\":12989:12991   */\n      0x20\n        /* \"#utility.yul\":12978:12987   */\n      dup4\n        /* \"#utility.yul\":12974:12992   */\n      add\n        /* \"#utility.yul\":12965:12971   */\n      dup6\n        /* \"#utility.yul\":12921:12993   */\n      tag_250\n      jump\t// in\n    tag_405:\n        /* \"#utility.yul\":13003:13073   */\n      tag_406\n        /* \"#utility.yul\":13069:13071   */\n      0x40\n        /* \"#utility.yul\":13058:13067   */\n      dup4\n        /* \"#utility.yul\":13054:13072   */\n      add\n        /* \"#utility.yul\":13045:13051   */\n      dup5\n        /* \"#utility.yul\":13003:13073   */\n      tag_254\n      jump\t// in\n    tag_406:\n        /* \"#utility.yul\":12642:13080   */\n      swap5\n      swap4\n      pop\n      pop\n      pop\n      pop\n      jump\t// out\n\n    auxdata: 0xa26469706673582212203918c30c59c79525ba7f375ab8a1bd3d131e6f9757f9b5d49df7693308b16c6c64736f6c634300081a0033\n}\n",
				"bytecode": {
					"linkReferences": {},
					"object": "608060405260645f806101000a81548160ff021916908360ff1602179055505f6003555f6004556040518060800160405280735b38da6a701c568545dcfcb03fcb875f56beddc473ffffffffffffffffffffffffffffffffffffffff1673ffffffffffffffffffffffffffffffffffffffff16815260200173ab8483f64d9c6d1ecf9b849ae677dd3315835cb273ffffffffffffffffffffffffffffffffffffffff1673ffffffffffffffffffffffffffffffffffffffff168152602001734b20993bc481177ec7e8f571cecae8a9e22c02db73ffffffffffffffffffffffffffffffffffffffff1673ffffffffffffffffffffffffffffffffffffffff1681526020017378731d3ca6b7e34ac0f824c42a7cc18a495cabab73ffffffffffffffffffffffffffffffffffffffff1673ffffffffffffffffffffffffffffffffffffffff16815250600890600461015792919061016d565b505f600c55348015610167575f80fd5b50610204565b82600481019282156101d8579160200282015b828111156101d7578251825f6101000a81548173ffffffffffffffffffffffffffffffffffffffff021916908373ffffffffffffffffffffffffffffffffffffffff16021790555091602001919060010190610180565b5b5090506101e591906101e9565b5090565b5b80821115610200575f815f9055506001016101ea565b5090565b611bee806102115f395ff3fe608060405260043610610108575f3560e01c80637b43a8e611610094578063bc06b8cd11610063578063bc06b8cd14610354578063ce6e1c4e1461037e578063d97c8416146103a6578063f14fcbc8146103d0578063f71d96cb146103f857610108565b80637b43a8e61461029a57806390d5d0c3146102d8578063a040478d14610302578063a63f7c531461033e57610108565b806327b5db8a116100db57806327b5db8a146101d85780633cf5040a146101e25780636ac5db191461021e578063701fd0f11461024857806378e979251461027057610108565b8063086f78151461010c57806314e421fe14610136578063190cf74514610172578063228cb733146101ae575b5f80fd5b348015610117575f80fd5b50610120610434565b60405161012d9190611449565b60405180910390f35b348015610141575f80fd5b5061015c60048036038101906101579190611490565b61043a565b60405161016991906114fa565b60405180910390f35b34801561017d575f80fd5b506101986004803603810190610193919061153d565b61046e565b6040516101a59190611582565b60405180910390f35b3480156101b9575f80fd5b506101c261048b565b6040516101cf9190611449565b60405180910390f35b6101e0610491565b005b3480156101ed575f80fd5b50610208600480360381019061020391906115ce565b6106b0565b6040516102159190611608565b60405180910390f35b348015610229575f80fd5b506102326106df565b60405161023f919061163c565b60405180910390f35b348015610253575f80fd5b5061026e600480360381019061026991906115ce565b6106ef565b005b34801561027b575f80fd5b50610284610aad565b6040516102919190611449565b60405180910390f35b3480156102a5575f80fd5b506102c060048036038101906102bb919061153d565b610ab3565b6040516102cf93929190611677565b60405180910390f35b3480156102e3575f80fd5b506102ec610af9565b6040516102f99190611449565b60405180910390f35b34801561030d575f80fd5b506103286004803603810190610323919061153d565b610aff565b6040516103359190611449565b60405180910390f35b348015610349575f80fd5b50610352610b14565b005b34801561035f575f80fd5b50610368610b1d565b6040516103759190611449565b60405180910390f35b348015610389575f80fd5b506103a4600480360381019061039f9190611490565b610b31565b005b3480156103b1575f80fd5b506103ba610c8b565b6040516103c79190611449565b60405180910390f35b3480156103db575f80fd5b506103f660048036038101906103f191906115ce565b610cab565b005b348015610403575f80fd5b5061041e60048036038101906104199190611490565b610e7d565b60405161042b91906114fa565b60405180910390f35b600c5481565b60088160048110610449575f80fd5b015f915054906101000a900473ffffffffffffffffffffffffffffffffffffffff1681565b6006602052805f5260405f205f915054906101000a900460ff1681565b60045481565b60026003541061049f575f80fd5b5f600354111561051c5760075f815481106104bd576104bc6116ac565b5b905f5260205f20015f9054906101000a900473ffffffffffffffffffffffffffffffffffffffff1673ffffffffffffffffffffffffffffffffffffffff163373ffffffffffffffffffffffffffffffffffffffff160361051b575f80fd5b5b5f805b60048110156105a5576008816004811061053c5761053b6116ac565b5b015f9054906101000a900473ffffffffffffffffffffffffffffffffffffffff1673ffffffffffffffffffffffffffffffffffffffff163373ffffffffffffffffffffffffffffffffffffffff160361059857600191506105a5565b808060010191505061051f565b5060011515811515146105b6575f80fd5b670de0b6b3a764000034146105c9575f80fd5b3460045f8282546105da9190611706565b92505081905550600160065f3373ffffffffffffffffffffffffffffffffffffffff1673ffffffffffffffffffffffffffffffffffffffff1681526020019081526020015f205f6101000a81548160ff021916908315150217905550600733908060018154018082558091505060019003905f5260205f20015f9091909190916101000a81548173ffffffffffffffffffffffffffffffffffffffff021916908373ffffffffffffffffffffffffffffffffffffffff16021790555060035f8154809291906106a890611739565b919050555050565b5f816040516020016106c291906117a0565b604051602081830303815290604052805190602001209050919050565b5f8054906101000a900460ff1681565b5f151560015f3373ffffffffffffffffffffffffffffffffffffffff1673ffffffffffffffffffffffffffffffffffffffff1681526020019081526020015f2060010160089054906101000a900460ff16151514610782576040517f08c379a00000000000000000000000000000000000000000000000000000000081526004016107799061183a565b60405180910390fd5b6001805f3373ffffffffffffffffffffffffffffffffffffffff1673ffffffffffffffffffffffffffffffffffffffff1681526020019081526020015f2060010160086101000a81548160ff02191690831515021790555060015f3373ffffffffffffffffffffffffffffffffffffffff1673ffffffffffffffffffffffffffffffffffffffff1681526020019081526020015f205f0154610823826106b0565b14610863576040517f08c379a000000000000000000000000000000000000000000000000000000000815260040161085a906118c8565b60405180910390fd5b60015f3373ffffffffffffffffffffffffffffffffffffffff1673ffffffffffffffffffffffffffffffffffffffff1681526020019081526020015f206001015f9054906101000a900467ffffffffffffffff1667ffffffffffffffff164367ffffffffffffffff161161090c576040517f08c379a00000000000000000000000000000000000000000000000000000000081526004016109039061197c565b60405180910390fd5b60fa60015f3373ffffffffffffffffffffffffffffffffffffffff1673ffffffffffffffffffffffffffffffffffffffff1681526020019081526020015f206001015f9054906101000a900467ffffffffffffffff1661096c919061199a565b67ffffffffffffffff164367ffffffffffffffff1611156109c2576040517f08c379a00000000000000000000000000000000000000000000000000000000081526004016109b990611a45565b60405180910390fd5b5f60015f3373ffffffffffffffffffffffffffffffffffffffff1673ffffffffffffffffffffffffffffffffffffffff1681526020019081526020015f206001015f9054906101000a900467ffffffffffffffff1667ffffffffffffffff164090505f805f9054906101000a900460ff1660ff168284604051602001610a49929190611a63565b604051602081830303815290604052805190602001205f1c610a6b9190611abb565b90507fbc016dd1cadeaefcb851af7a0a93532e0023d536894b730801f7bcfe7065bcc2338483604051610aa093929190611aeb565b60405180910390a1505050565b60025481565b6001602052805f5260405f205f91509050805f015490806001015f9054906101000a900467ffffffffffffffff16908060010160089054906101000a900460ff16905083565b60035481565b6005602052805f5260405f205f915090505481565b42600281905550565b5f60025442610b2c9190611b20565b905090565b600260035414610b3f575f80fd5b60065f3373ffffffffffffffffffffffffffffffffffffffff1673ffffffffffffffffffffffffffffffffffffffff1681526020019081526020015f205f9054906101000a900460ff16610b91575f80fd5b5f811480610b9f5750600181145b80610baa5750600281145b80610bb55750600381145b80610bc05750600481145b610bc8575f80fd5b8060055f3373ffffffffffffffffffffffffffffffffffffffff1673ffffffffffffffffffffffffffffffffffffffff1681526020019081526020015f20819055505f60065f3373ffffffffffffffffffffffffffffffffffffffff1673ffffffffffffffffffffffffffffffffffffffff1681526020019081526020015f205f6101000a81548160ff021916908315150217905550600c5f815480929190610c7090611739565b91905055506002600c5403610c8857610c87610eb8565b5b50565b5f603c60025442610c9c9190611b20565b610ca69190611b53565b905090565b8060015f3373ffffffffffffffffffffffffffffffffffffffff1673ffffffffffffffffffffffffffffffffffffffff1681526020019081526020015f205f01819055504360015f3373ffffffffffffffffffffffffffffffffffffffff1673ffffffffffffffffffffffffffffffffffffffff1681526020019081526020015f206001015f6101000a81548167ffffffffffffffff021916908367ffffffffffffffff1602179055505f60015f3373ffffffffffffffffffffffffffffffffffffffff1673ffffffffffffffffffffffffffffffffffffffff1681526020019081526020015f2060010160086101000a81548160ff0219169083151502179055507f3c1a1f8f38335b17f751c6da4ba7d1865f26b3997535176f5080de9fad8916033360015f3373ffffffffffffffffffffffffffffffffffffffff1673ffffffffffffffffffffffffffffffffffffffff1681526020019081526020015f205f015460015f3373ffffffffffffffffffffffffffffffffffffffff1673ffffffffffffffffffffffffffffffffffffffff1681526020019081526020015f206001015f9054906101000a900467ffffffffffffffff16604051610e7293929190611b83565b60405180910390a150565b60078181548110610e8c575f80fd5b905f5260205f20015f915054906101000a900473ffffffffffffffffffffffffffffffffffffffff1681565b5f60055f60075f81548110610ed057610ecf6116ac565b5b905f5260205f20015f9054906101000a900473ffffffffffffffffffffffffffffffffffffffff1673ffffffffffffffffffffffffffffffffffffffff1673ffffffffffffffffffffffffffffffffffffffff1681526020019081526020015f205490505f60055f6007600181548110610f4d57610f4c6116ac565b5b905f5260205f20015f9054906101000a900473ffffffffffffffffffffffffffffffffffffffff1673ffffffffffffffffffffffffffffffffffffffff1673ffffffffffffffffffffffffffffffffffffffff1681526020019081526020015f205490505f60075f81548110610fc657610fc56116ac565b5b905f5260205f20015f9054906101000a900473ffffffffffffffffffffffffffffffffffffffff1690505f6007600181548110611006576110056116ac565b5b905f5260205f20015f9054906101000a900473ffffffffffffffffffffffffffffffffffffffff1690508260056001866110409190611706565b61104a9190611abb565b148061106d57508260056003866110619190611706565b61106b9190611abb565b145b156110bd578073ffffffffffffffffffffffffffffffffffffffff166108fc60045490811502906040515f60405180830381858888f193505050501580156110b7573d5f803e3d5ffd5b506111f0565b8360056001856110cd9190611706565b6110d79190611abb565b14806110fa57508360056003856110ee9190611706565b6110f89190611abb565b145b1561114a578173ffffffffffffffffffffffffffffffffffffffff166108fc60045490811502906040515f60405180830381858888f19350505050158015611144573d5f803e3d5ffd5b506111ef565b8173ffffffffffffffffffffffffffffffffffffffff166108fc60026004546111739190611b53565b90811502906040515f60405180830381858888f1935050505015801561119b573d5f803e3d5ffd5b508073ffffffffffffffffffffffffffffffffffffffff166108fc60026004546111c59190611b53565b90811502906040515f60405180830381858888f193505050501580156111ed573d5f803e3d5ffd5b505b5b6111f86111fe565b50505050565b5f6003819055505f6004819055505f60055f60075f81548110611224576112236116ac565b5b905f5260205f20015f9054906101000a900473ffffffffffffffffffffffffffffffffffffffff1673ffffffffffffffffffffffffffffffffffffffff1673ffffffffffffffffffffffffffffffffffffffff1681526020019081526020015f20819055505f60055f60076001815481106112a2576112a16116ac565b5b905f5260205f20015f9054906101000a900473ffffffffffffffffffffffffffffffffffffffff1673ffffffffffffffffffffffffffffffffffffffff1673ffffffffffffffffffffffffffffffffffffffff1681526020019081526020015f2081905550600160065f60075f815481106113205761131f6116ac565b5b905f5260205f20015f9054906101000a900473ffffffffffffffffffffffffffffffffffffffff1673ffffffffffffffffffffffffffffffffffffffff1673ffffffffffffffffffffffffffffffffffffffff1681526020019081526020015f205f6101000a81548160ff021916908315150217905550600160065f60076001815481106113b1576113b06116ac565b5b905f5260205f20015f9054906101000a900473ffffffffffffffffffffffffffffffffffffffff1673ffffffffffffffffffffffffffffffffffffffff1673ffffffffffffffffffffffffffffffffffffffff1681526020019081526020015f205f6101000a81548160ff0219169083151502179055505f600c81905550565b5f819050919050565b61144381611431565b82525050565b5f60208201905061145c5f83018461143a565b92915050565b5f80fd5b61146f81611431565b8114611479575f80fd5b50565b5f8135905061148a81611466565b92915050565b5f602082840312156114a5576114a4611462565b5b5f6114b28482850161147c565b91505092915050565b5f73ffffffffffffffffffffffffffffffffffffffff82169050919050565b5f6114e4826114bb565b9050919050565b6114f4816114da565b82525050565b5f60208201905061150d5f8301846114eb565b92915050565b61151c816114da565b8114611526575f80fd5b50565b5f8135905061153781611513565b92915050565b5f6020828403121561155257611551611462565b5b5f61155f84828501611529565b91505092915050565b5f8115159050919050565b61157c81611568565b82525050565b5f6020820190506115955f830184611573565b92915050565b5f819050919050565b6115ad8161159b565b81146115b7575f80fd5b50565b5f813590506115c8816115a4565b92915050565b5f602082840312156115e3576115e2611462565b5b5f6115f0848285016115ba565b91505092915050565b6116028161159b565b82525050565b5f60208201905061161b5f8301846115f9565b92915050565b5f60ff82169050919050565b61163681611621565b82525050565b5f60208201905061164f5f83018461162d565b92915050565b5f67ffffffffffffffff82169050919050565b61167181611655565b82525050565b5f60608201905061168a5f8301866115f9565b6116976020830185611668565b6116a46040830184611573565b949350505050565b7f4e487b71000000000000000000000000000000000000000000000000000000005f52603260045260245ffd5b7f4e487b71000000000000000000000000000000000000000000000000000000005f52601160045260245ffd5b5f61171082611431565b915061171b83611431565b9250828201905080821115611733576117326116d9565b5b92915050565b5f61174382611431565b91507fffffffffffffffffffffffffffffffffffffffffffffffffffffffffffffffff8203611775576117746116d9565b5b600182019050919050565b5f819050919050565b61179a6117958261159b565b611780565b82525050565b5f6117ab8284611789565b60208201915081905092915050565b5f82825260208201905092915050565b7f436f6d6d697452657665616c3a3a72657665616c3a20416c72656164792072655f8201527f7665616c65640000000000000000000000000000000000000000000000000000602082015250565b5f6118246026836117ba565b915061182f826117ca565b604082019050919050565b5f6020820190508181035f83015261185181611818565b9050919050565b7f436f6d6d697452657665616c3a3a72657665616c3a2052657665616c656420685f8201527f61736820646f6573206e6f74206d6174636820636f6d6d697400000000000000602082015250565b5f6118b26039836117ba565b91506118bd82611858565b604082019050919050565b5f6020820190508181035f8301526118df816118a6565b9050919050565b7f436f6d6d697452657665616c3a3a72657665616c3a2052657665616c20616e645f8201527f20636f6d6d69742068617070656e6564206f6e207468652073616d6520626c6f60208201527f636b000000000000000000000000000000000000000000000000000000000000604082015250565b5f6119666042836117ba565b9150611971826118e6565b606082019050919050565b5f6020820190508181035f8301526119938161195a565b9050919050565b5f6119a482611655565b91506119af83611655565b9250828201905067ffffffffffffffff8111156119cf576119ce6116d9565b5b92915050565b7f436f6d6d697452657665616c3a3a72657665616c3a2052657665616c656420745f8201527f6f6f206c61746500000000000000000000000000000000000000000000000000602082015250565b5f611a2f6027836117ba565b9150611a3a826119d5565b604082019050919050565b5f6020820190508181035f830152611a5c81611a23565b9050919050565b5f611a6e8285611789565b602082019150611a7e8284611789565b6020820191508190509392505050565b7f4e487b71000000000000000000000000000000000000000000000000000000005f52601260045260245ffd5b5f611ac582611431565b9150611ad083611431565b925082611ae057611adf611a8e565b5b828206905092915050565b5f606082019050611afe5f8301866114eb565b611b0b60208301856115f9565b611b18604083018461143a565b949350505050565b5f611b2a82611431565b9150611b3583611431565b9250828203905081811115611b4d57611b4c6116d9565b5b92915050565b5f611b5d82611431565b9150611b6883611431565b925082611b7857611b77611a8e565b5b828204905092915050565b5f606082019050611b965f8301866114eb565b611ba360208301856115f9565b611bb06040830184611668565b94935050505056fea26469706673582212203918c30c59c79525ba7f375ab8a1bd3d131e6f9757f9b5d49df7693308b16c6c64736f6c634300081a0033",
					"opcodes": "PUSH1 0x80 PUSH1 0x40 MSTORE PUSH1 0x64 PUSH0 DUP1 PUSH2 0x100 EXP DUP2 SLOAD DUP2 PUSH1 0xFF MUL NOT AND SWAP1 DUP4 PUSH1 0xFF AND MUL OR SWAP1 SSTORE POP PUSH0 PUSH1 0x3 SSTORE PUSH0 PUSH1 0x4 SSTORE PUSH1 0x40 MLOAD DUP1 PUSH1 0x80 ADD PUSH1 0x40 MSTORE DUP1 PUSH20 0x5B38DA6A701C568545DCFCB03FCB875F56BEDDC4 PUSH20 0xFFFFFFFFFFFFFFFFFFFFFFFFFFFFFFFFFFFFFFFF AND PUSH20 0xFFFFFFFFFFFFFFFFFFFFFFFFFFFFFFFFFFFFFFFF AND DUP2 MSTORE PUSH1 0x20 ADD PUSH20 0xAB8483F64D9C6D1ECF9B849AE677DD3315835CB2 PUSH20 0xFFFFFFFFFFFFFFFFFFFFFFFFFFFFFFFFFFFFFFFF AND PUSH20 0xFFFFFFFFFFFFFFFFFFFFFFFFFFFFFFFFFFFFFFFF AND DUP2 MSTORE PUSH1 0x20 ADD PUSH20 0x4B20993BC481177EC7E8F571CECAE8A9E22C02DB PUSH20 0xFFFFFFFFFFFFFFFFFFFFFFFFFFFFFFFFFFFFFFFF AND PUSH20 0xFFFFFFFFFFFFFFFFFFFFFFFFFFFFFFFFFFFFFFFF AND DUP2 MSTORE PUSH1 0x20 ADD PUSH20 0x78731D3CA6B7E34AC0F824C42A7CC18A495CABAB PUSH20 0xFFFFFFFFFFFFFFFFFFFFFFFFFFFFFFFFFFFFFFFF AND PUSH20 0xFFFFFFFFFFFFFFFFFFFFFFFFFFFFFFFFFFFFFFFF AND DUP2 MSTORE POP PUSH1 0x8 SWAP1 PUSH1 0x4 PUSH2 0x157 SWAP3 SWAP2 SWAP1 PUSH2 0x16D JUMP JUMPDEST POP PUSH0 PUSH1 0xC SSTORE CALLVALUE DUP1 ISZERO PUSH2 0x167 JUMPI PUSH0 DUP1 REVERT JUMPDEST POP PUSH2 0x204 JUMP JUMPDEST DUP3 PUSH1 0x4 DUP2 ADD SWAP3 DUP3 ISZERO PUSH2 0x1D8 JUMPI SWAP2 PUSH1 0x20 MUL DUP3 ADD JUMPDEST DUP3 DUP2 GT ISZERO PUSH2 0x1D7 JUMPI DUP3 MLOAD DUP3 PUSH0 PUSH2 0x100 EXP DUP2 SLOAD DUP2 PUSH20 0xFFFFFFFFFFFFFFFFFFFFFFFFFFFFFFFFFFFFFFFF MUL NOT AND SWAP1 DUP4 PUSH20 0xFFFFFFFFFFFFFFFFFFFFFFFFFFFFFFFFFFFFFFFF AND MUL OR SWAP1 SSTORE POP SWAP2 PUSH1 0x20 ADD SWAP2 SWAP1 PUSH1 0x1 ADD SWAP1 PUSH2 0x180 JUMP JUMPDEST JUMPDEST POP SWAP1 POP PUSH2 0x1E5 SWAP2 SWAP1 PUSH2 0x1E9 JUMP JUMPDEST POP SWAP1 JUMP JUMPDEST JUMPDEST DUP1 DUP3 GT ISZERO PUSH2 0x200 JUMPI PUSH0 DUP2 PUSH0 SWAP1 SSTORE POP PUSH1 0x1 ADD PUSH2 0x1EA JUMP JUMPDEST POP SWAP1 JUMP JUMPDEST PUSH2 0x1BEE DUP1 PUSH2 0x211 PUSH0 CODECOPY PUSH0 RETURN INVALID PUSH1 0x80 PUSH1 0x40 MSTORE PUSH1 0x4 CALLDATASIZE LT PUSH2 0x108 JUMPI PUSH0 CALLDATALOAD PUSH1 0xE0 SHR DUP1 PUSH4 0x7B43A8E6 GT PUSH2 0x94 JUMPI DUP1 PUSH4 0xBC06B8CD GT PUSH2 0x63 JUMPI DUP1 PUSH4 0xBC06B8CD EQ PUSH2 0x354 JUMPI DUP1 PUSH4 0xCE6E1C4E EQ PUSH2 0x37E JUMPI DUP1 PUSH4 0xD97C8416 EQ PUSH2 0x3A6 JUMPI DUP1 PUSH4 0xF14FCBC8 EQ PUSH2 0x3D0 JUMPI DUP1 PUSH4 0xF71D96CB EQ PUSH2 0x3F8 JUMPI PUSH2 0x108 JUMP JUMPDEST DUP1 PUSH4 0x7B43A8E6 EQ PUSH2 0x29A JUMPI DUP1 PUSH4 0x90D5D0C3 EQ PUSH2 0x2D8 JUMPI DUP1 PUSH4 0xA040478D EQ PUSH2 0x302 JUMPI DUP1 PUSH4 0xA63F7C53 EQ PUSH2 0x33E JUMPI PUSH2 0x108 JUMP JUMPDEST DUP1 PUSH4 0x27B5DB8A GT PUSH2 0xDB JUMPI DUP1 PUSH4 0x27B5DB8A EQ PUSH2 0x1D8 JUMPI DUP1 PUSH4 0x3CF5040A EQ PUSH2 0x1E2 JUMPI DUP1 PUSH4 0x6AC5DB19 EQ PUSH2 0x21E JUMPI DUP1 PUSH4 0x701FD0F1 EQ PUSH2 0x248 JUMPI DUP1 PUSH4 0x78E97925 EQ PUSH2 0x270 JUMPI PUSH2 0x108 JUMP JUMPDEST DUP1 PUSH4 0x86F7815 EQ PUSH2 0x10C JUMPI DUP1 PUSH4 0x14E421FE EQ PUSH2 0x136 JUMPI DUP1 PUSH4 0x190CF745 EQ PUSH2 0x172 JUMPI DUP1 PUSH4 0x228CB733 EQ PUSH2 0x1AE JUMPI JUMPDEST PUSH0 DUP1 REVERT JUMPDEST CALLVALUE DUP1 ISZERO PUSH2 0x117 JUMPI PUSH0 DUP1 REVERT JUMPDEST POP PUSH2 0x120 PUSH2 0x434 JUMP JUMPDEST PUSH1 0x40 MLOAD PUSH2 0x12D SWAP2 SWAP1 PUSH2 0x1449 JUMP JUMPDEST PUSH1 0x40 MLOAD DUP1 SWAP2 SUB SWAP1 RETURN JUMPDEST CALLVALUE DUP1 ISZERO PUSH2 0x141 JUMPI PUSH0 DUP1 REVERT JUMPDEST POP PUSH2 0x15C PUSH1 0x4 DUP1 CALLDATASIZE SUB DUP2 ADD SWAP1 PUSH2 0x157 SWAP2 SWAP1 PUSH2 0x1490 JUMP JUMPDEST PUSH2 0x43A JUMP JUMPDEST PUSH1 0x40 MLOAD PUSH2 0x169 SWAP2 SWAP1 PUSH2 0x14FA JUMP JUMPDEST PUSH1 0x40 MLOAD DUP1 SWAP2 SUB SWAP1 RETURN JUMPDEST CALLVALUE DUP1 ISZERO PUSH2 0x17D JUMPI PUSH0 DUP1 REVERT JUMPDEST POP PUSH2 0x198 PUSH1 0x4 DUP1 CALLDATASIZE SUB DUP2 ADD SWAP1 PUSH2 0x193 SWAP2 SWAP1 PUSH2 0x153D JUMP JUMPDEST PUSH2 0x46E JUMP JUMPDEST PUSH1 0x40 MLOAD PUSH2 0x1A5 SWAP2 SWAP1 PUSH2 0x1582 JUMP JUMPDEST PUSH1 0x40 MLOAD DUP1 SWAP2 SUB SWAP1 RETURN JUMPDEST CALLVALUE DUP1 ISZERO PUSH2 0x1B9 JUMPI PUSH0 DUP1 REVERT JUMPDEST POP PUSH2 0x1C2 PUSH2 0x48B JUMP JUMPDEST PUSH1 0x40 MLOAD PUSH2 0x1CF SWAP2 SWAP1 PUSH2 0x1449 JUMP JUMPDEST PUSH1 0x40 MLOAD DUP1 SWAP2 SUB SWAP1 RETURN JUMPDEST PUSH2 0x1E0 PUSH2 0x491 JUMP JUMPDEST STOP JUMPDEST CALLVALUE DUP1 ISZERO PUSH2 0x1ED JUMPI PUSH0 DUP1 REVERT JUMPDEST POP PUSH2 0x208 PUSH1 0x4 DUP1 CALLDATASIZE SUB DUP2 ADD SWAP1 PUSH2 0x203 SWAP2 SWAP1 PUSH2 0x15CE JUMP JUMPDEST PUSH2 0x6B0 JUMP JUMPDEST PUSH1 0x40 MLOAD PUSH2 0x215 SWAP2 SWAP1 PUSH2 0x1608 JUMP JUMPDEST PUSH1 0x40 MLOAD DUP1 SWAP2 SUB SWAP1 RETURN JUMPDEST CALLVALUE DUP1 ISZERO PUSH2 0x229 JUMPI PUSH0 DUP1 REVERT JUMPDEST POP PUSH2 0x232 PUSH2 0x6DF JUMP JUMPDEST PUSH1 0x40 MLOAD PUSH2 0x23F SWAP2 SWAP1 PUSH2 0x163C JUMP JUMPDEST PUSH1 0x40 MLOAD DUP1 SWAP2 SUB SWAP1 RETURN JUMPDEST CALLVALUE DUP1 ISZERO PUSH2 0x253 JUMPI PUSH0 DUP1 REVERT JUMPDEST POP PUSH2 0x26E PUSH1 0x4 DUP1 CALLDATASIZE SUB DUP2 ADD SWAP1 PUSH2 0x269 SWAP2 SWAP1 PUSH2 0x15CE JUMP JUMPDEST PUSH2 0x6EF JUMP JUMPDEST STOP JUMPDEST CALLVALUE DUP1 ISZERO PUSH2 0x27B JUMPI PUSH0 DUP1 REVERT JUMPDEST POP PUSH2 0x284 PUSH2 0xAAD JUMP JUMPDEST PUSH1 0x40 MLOAD PUSH2 0x291 SWAP2 SWAP1 PUSH2 0x1449 JUMP JUMPDEST PUSH1 0x40 MLOAD DUP1 SWAP2 SUB SWAP1 RETURN JUMPDEST CALLVALUE DUP1 ISZERO PUSH2 0x2A5 JUMPI PUSH0 DUP1 REVERT JUMPDEST POP PUSH2 0x2C0 PUSH1 0x4 DUP1 CALLDATASIZE SUB DUP2 ADD SWAP1 PUSH2 0x2BB SWAP2 SWAP1 PUSH2 0x153D JUMP JUMPDEST PUSH2 0xAB3 JUMP JUMPDEST PUSH1 0x40 MLOAD PUSH2 0x2CF SWAP4 SWAP3 SWAP2 SWAP1 PUSH2 0x1677 JUMP JUMPDEST PUSH1 0x40 MLOAD DUP1 SWAP2 SUB SWAP1 RETURN JUMPDEST CALLVALUE DUP1 ISZERO PUSH2 0x2E3 JUMPI PUSH0 DUP1 REVERT JUMPDEST POP PUSH2 0x2EC PUSH2 0xAF9 JUMP JUMPDEST PUSH1 0x40 MLOAD PUSH2 0x2F9 SWAP2 SWAP1 PUSH2 0x1449 JUMP JUMPDEST PUSH1 0x40 MLOAD DUP1 SWAP2 SUB SWAP1 RETURN JUMPDEST CALLVALUE DUP1 ISZERO PUSH2 0x30D JUMPI PUSH0 DUP1 REVERT JUMPDEST POP PUSH2 0x328 PUSH1 0x4 DUP1 CALLDATASIZE SUB DUP2 ADD SWAP1 PUSH2 0x323 SWAP2 SWAP1 PUSH2 0x153D JUMP JUMPDEST PUSH2 0xAFF JUMP JUMPDEST PUSH1 0x40 MLOAD PUSH2 0x335 SWAP2 SWAP1 PUSH2 0x1449 JUMP JUMPDEST PUSH1 0x40 MLOAD DUP1 SWAP2 SUB SWAP1 RETURN JUMPDEST CALLVALUE DUP1 ISZERO PUSH2 0x349 JUMPI PUSH0 DUP1 REVERT JUMPDEST POP PUSH2 0x352 PUSH2 0xB14 JUMP JUMPDEST STOP JUMPDEST CALLVALUE DUP1 ISZERO PUSH2 0x35F JUMPI PUSH0 DUP1 REVERT JUMPDEST POP PUSH2 0x368 PUSH2 0xB1D JUMP JUMPDEST PUSH1 0x40 MLOAD PUSH2 0x375 SWAP2 SWAP1 PUSH2 0x1449 JUMP JUMPDEST PUSH1 0x40 MLOAD DUP1 SWAP2 SUB SWAP1 RETURN JUMPDEST CALLVALUE DUP1 ISZERO PUSH2 0x389 JUMPI PUSH0 DUP1 REVERT JUMPDEST POP PUSH2 0x3A4 PUSH1 0x4 DUP1 CALLDATASIZE SUB DUP2 ADD SWAP1 PUSH2 0x39F SWAP2 SWAP1 PUSH2 0x1490 JUMP JUMPDEST PUSH2 0xB31 JUMP JUMPDEST STOP JUMPDEST CALLVALUE DUP1 ISZERO PUSH2 0x3B1 JUMPI PUSH0 DUP1 REVERT JUMPDEST POP PUSH2 0x3BA PUSH2 0xC8B JUMP JUMPDEST PUSH1 0x40 MLOAD PUSH2 0x3C7 SWAP2 SWAP1 PUSH2 0x1449 JUMP JUMPDEST PUSH1 0x40 MLOAD DUP1 SWAP2 SUB SWAP1 RETURN JUMPDEST CALLVALUE DUP1 ISZERO PUSH2 0x3DB JUMPI PUSH0 DUP1 REVERT JUMPDEST POP PUSH2 0x3F6 PUSH1 0x4 DUP1 CALLDATASIZE SUB DUP2 ADD SWAP1 PUSH2 0x3F1 SWAP2 SWAP1 PUSH2 0x15CE JUMP JUMPDEST PUSH2 0xCAB JUMP JUMPDEST STOP JUMPDEST CALLVALUE DUP1 ISZERO PUSH2 0x403 JUMPI PUSH0 DUP1 REVERT JUMPDEST POP PUSH2 0x41E PUSH1 0x4 DUP1 CALLDATASIZE SUB DUP2 ADD SWAP1 PUSH2 0x419 SWAP2 SWAP1 PUSH2 0x1490 JUMP JUMPDEST PUSH2 0xE7D JUMP JUMPDEST PUSH1 0x40 MLOAD PUSH2 0x42B SWAP2 SWAP1 PUSH2 0x14FA JUMP JUMPDEST PUSH1 0x40 MLOAD DUP1 SWAP2 SUB SWAP1 RETURN JUMPDEST PUSH1 0xC SLOAD DUP2 JUMP JUMPDEST PUSH1 0x8 DUP2 PUSH1 0x4 DUP2 LT PUSH2 0x449 JUMPI PUSH0 DUP1 REVERT JUMPDEST ADD PUSH0 SWAP2 POP SLOAD SWAP1 PUSH2 0x100 EXP SWAP1 DIV PUSH20 0xFFFFFFFFFFFFFFFFFFFFFFFFFFFFFFFFFFFFFFFF AND DUP2 JUMP JUMPDEST PUSH1 0x6 PUSH1 0x20 MSTORE DUP1 PUSH0 MSTORE PUSH1 0x40 PUSH0 KECCAK256 PUSH0 SWAP2 POP SLOAD SWAP1 PUSH2 0x100 EXP SWAP1 DIV PUSH1 0xFF AND DUP2 JUMP JUMPDEST PUSH1 0x4 SLOAD DUP2 JUMP JUMPDEST PUSH1 0x2 PUSH1 0x3 SLOAD LT PUSH2 0x49F JUMPI PUSH0 DUP1 REVERT JUMPDEST PUSH0 PUSH1 0x3 SLOAD GT ISZERO PUSH2 0x51C JUMPI PUSH1 0x7 PUSH0 DUP2 SLOAD DUP2 LT PUSH2 0x4BD JUMPI PUSH2 0x4BC PUSH2 0x16AC JUMP JUMPDEST JUMPDEST SWAP1 PUSH0 MSTORE PUSH1 0x20 PUSH0 KECCAK256 ADD PUSH0 SWAP1 SLOAD SWAP1 PUSH2 0x100 EXP SWAP1 DIV PUSH20 0xFFFFFFFFFFFFFFFFFFFFFFFFFFFFFFFFFFFFFFFF AND PUSH20 0xFFFFFFFFFFFFFFFFFFFFFFFFFFFFFFFFFFFFFFFF AND CALLER PUSH20 0xFFFFFFFFFFFFFFFFFFFFFFFFFFFFFFFFFFFFFFFF AND SUB PUSH2 0x51B JUMPI PUSH0 DUP1 REVERT JUMPDEST JUMPDEST PUSH0 DUP1 JUMPDEST PUSH1 0x4 DUP2 LT ISZERO PUSH2 0x5A5 JUMPI PUSH1 0x8 DUP2 PUSH1 0x4 DUP2 LT PUSH2 0x53C JUMPI PUSH2 0x53B PUSH2 0x16AC JUMP JUMPDEST JUMPDEST ADD PUSH0 SWAP1 SLOAD SWAP1 PUSH2 0x100 EXP SWAP1 DIV PUSH20 0xFFFFFFFFFFFFFFFFFFFFFFFFFFFFFFFFFFFFFFFF AND PUSH20 0xFFFFFFFFFFFFFFFFFFFFFFFFFFFFFFFFFFFFFFFF AND CALLER PUSH20 0xFFFFFFFFFFFFFFFFFFFFFFFFFFFFFFFFFFFFFFFF AND SUB PUSH2 0x598 JUMPI PUSH1 0x1 SWAP2 POP PUSH2 0x5A5 JUMP JUMPDEST DUP1 DUP1 PUSH1 0x1 ADD SWAP2 POP POP PUSH2 0x51F JUMP JUMPDEST POP PUSH1 0x1 ISZERO ISZERO DUP2 ISZERO ISZERO EQ PUSH2 0x5B6 JUMPI PUSH0 DUP1 REVERT JUMPDEST PUSH8 0xDE0B6B3A7640000 CALLVALUE EQ PUSH2 0x5C9 JUMPI PUSH0 DUP1 REVERT JUMPDEST CALLVALUE PUSH1 0x4 PUSH0 DUP3 DUP3 SLOAD PUSH2 0x5DA SWAP2 SWAP1 PUSH2 0x1706 JUMP JUMPDEST SWAP3 POP POP DUP2 SWAP1 SSTORE POP PUSH1 0x1 PUSH1 0x6 PUSH0 CALLER PUSH20 0xFFFFFFFFFFFFFFFFFFFFFFFFFFFFFFFFFFFFFFFF AND PUSH20 0xFFFFFFFFFFFFFFFFFFFFFFFFFFFFFFFFFFFFFFFF AND DUP2 MSTORE PUSH1 0x20 ADD SWAP1 DUP2 MSTORE PUSH1 0x20 ADD PUSH0 KECCAK256 PUSH0 PUSH2 0x100 EXP DUP2 SLOAD DUP2 PUSH1 0xFF MUL NOT AND SWAP1 DUP4 ISZERO ISZERO MUL OR SWAP1 SSTORE POP PUSH1 0x7 CALLER SWAP1 DUP1 PUSH1 0x1 DUP2 SLOAD ADD DUP1 DUP3 SSTORE DUP1 SWAP2 POP POP PUSH1 0x1 SWAP1 SUB SWAP1 PUSH0 MSTORE PUSH1 0x20 PUSH0 KECCAK256 ADD PUSH0 SWAP1 SWAP2 SWAP1 SWAP2 SWAP1 SWAP2 PUSH2 0x100 EXP DUP2 SLOAD DUP2 PUSH20 0xFFFFFFFFFFFFFFFFFFFFFFFFFFFFFFFFFFFFFFFF MUL NOT AND SWAP1 DUP4 PUSH20 0xFFFFFFFFFFFFFFFFFFFFFFFFFFFFFFFFFFFFFFFF AND MUL OR SWAP1 SSTORE POP PUSH1 0x3 PUSH0 DUP2 SLOAD DUP1 SWAP3 SWAP2 SWAP1 PUSH2 0x6A8 SWAP1 PUSH2 0x1739 JUMP JUMPDEST SWAP2 SWAP1 POP SSTORE POP POP JUMP JUMPDEST PUSH0 DUP2 PUSH1 0x40 MLOAD PUSH1 0x20 ADD PUSH2 0x6C2 SWAP2 SWAP1 PUSH2 0x17A0 JUMP JUMPDEST PUSH1 0x40 MLOAD PUSH1 0x20 DUP2 DUP4 SUB SUB DUP2 MSTORE SWAP1 PUSH1 0x40 MSTORE DUP1 MLOAD SWAP1 PUSH1 0x20 ADD KECCAK256 SWAP1 POP SWAP2 SWAP1 POP JUMP JUMPDEST PUSH0 DUP1 SLOAD SWAP1 PUSH2 0x100 EXP SWAP1 DIV PUSH1 0xFF AND DUP2 JUMP JUMPDEST PUSH0 ISZERO ISZERO PUSH1 0x1 PUSH0 CALLER PUSH20 0xFFFFFFFFFFFFFFFFFFFFFFFFFFFFFFFFFFFFFFFF AND PUSH20 0xFFFFFFFFFFFFFFFFFFFFFFFFFFFFFFFFFFFFFFFF AND DUP2 MSTORE PUSH1 0x20 ADD SWAP1 DUP2 MSTORE PUSH1 0x20 ADD PUSH0 KECCAK256 PUSH1 0x1 ADD PUSH1 0x8 SWAP1 SLOAD SWAP1 PUSH2 0x100 EXP SWAP1 DIV PUSH1 0xFF AND ISZERO ISZERO EQ PUSH2 0x782 JUMPI PUSH1 0x40 MLOAD PUSH32 0x8C379A000000000000000000000000000000000000000000000000000000000 DUP2 MSTORE PUSH1 0x4 ADD PUSH2 0x779 SWAP1 PUSH2 0x183A JUMP JUMPDEST PUSH1 0x40 MLOAD DUP1 SWAP2 SUB SWAP1 REVERT JUMPDEST PUSH1 0x1 DUP1 PUSH0 CALLER PUSH20 0xFFFFFFFFFFFFFFFFFFFFFFFFFFFFFFFFFFFFFFFF AND PUSH20 0xFFFFFFFFFFFFFFFFFFFFFFFFFFFFFFFFFFFFFFFF AND DUP2 MSTORE PUSH1 0x20 ADD SWAP1 DUP2 MSTORE PUSH1 0x20 ADD PUSH0 KECCAK256 PUSH1 0x1 ADD PUSH1 0x8 PUSH2 0x100 EXP DUP2 SLOAD DUP2 PUSH1 0xFF MUL NOT AND SWAP1 DUP4 ISZERO ISZERO MUL OR SWAP1 SSTORE POP PUSH1 0x1 PUSH0 CALLER PUSH20 0xFFFFFFFFFFFFFFFFFFFFFFFFFFFFFFFFFFFFFFFF AND PUSH20 0xFFFFFFFFFFFFFFFFFFFFFFFFFFFFFFFFFFFFFFFF AND DUP2 MSTORE PUSH1 0x20 ADD SWAP1 DUP2 MSTORE PUSH1 0x20 ADD PUSH0 KECCAK256 PUSH0 ADD SLOAD PUSH2 0x823 DUP3 PUSH2 0x6B0 JUMP JUMPDEST EQ PUSH2 0x863 JUMPI PUSH1 0x40 MLOAD PUSH32 0x8C379A000000000000000000000000000000000000000000000000000000000 DUP2 MSTORE PUSH1 0x4 ADD PUSH2 0x85A SWAP1 PUSH2 0x18C8 JUMP JUMPDEST PUSH1 0x40 MLOAD DUP1 SWAP2 SUB SWAP1 REVERT JUMPDEST PUSH1 0x1 PUSH0 CALLER PUSH20 0xFFFFFFFFFFFFFFFFFFFFFFFFFFFFFFFFFFFFFFFF AND PUSH20 0xFFFFFFFFFFFFFFFFFFFFFFFFFFFFFFFFFFFFFFFF AND DUP2 MSTORE PUSH1 0x20 ADD SWAP1 DUP2 MSTORE PUSH1 0x20 ADD PUSH0 KECCAK256 PUSH1 0x1 ADD PUSH0 SWAP1 SLOAD SWAP1 PUSH2 0x100 EXP SWAP1 DIV PUSH8 0xFFFFFFFFFFFFFFFF AND PUSH8 0xFFFFFFFFFFFFFFFF AND NUMBER PUSH8 0xFFFFFFFFFFFFFFFF AND GT PUSH2 0x90C JUMPI PUSH1 0x40 MLOAD PUSH32 0x8C379A000000000000000000000000000000000000000000000000000000000 DUP2 MSTORE PUSH1 0x4 ADD PUSH2 0x903 SWAP1 PUSH2 0x197C JUMP JUMPDEST PUSH1 0x40 MLOAD DUP1 SWAP2 SUB SWAP1 REVERT JUMPDEST PUSH1 0xFA PUSH1 0x1 PUSH0 CALLER PUSH20 0xFFFFFFFFFFFFFFFFFFFFFFFFFFFFFFFFFFFFFFFF AND PUSH20 0xFFFFFFFFFFFFFFFFFFFFFFFFFFFFFFFFFFFFFFFF AND DUP2 MSTORE PUSH1 0x20 ADD SWAP1 DUP2 MSTORE PUSH1 0x20 ADD PUSH0 KECCAK256 PUSH1 0x1 ADD PUSH0 SWAP1 SLOAD SWAP1 PUSH2 0x100 EXP SWAP1 DIV PUSH8 0xFFFFFFFFFFFFFFFF AND PUSH2 0x96C SWAP2 SWAP1 PUSH2 0x199A JUMP JUMPDEST PUSH8 0xFFFFFFFFFFFFFFFF AND NUMBER PUSH8 0xFFFFFFFFFFFFFFFF AND GT ISZERO PUSH2 0x9C2 JUMPI PUSH1 0x40 MLOAD PUSH32 0x8C379A000000000000000000000000000000000000000000000000000000000 DUP2 MSTORE PUSH1 0x4 ADD PUSH2 0x9B9 SWAP1 PUSH2 0x1A45 JUMP JUMPDEST PUSH1 0x40 MLOAD DUP1 SWAP2 SUB SWAP1 REVERT JUMPDEST PUSH0 PUSH1 0x1 PUSH0 CALLER PUSH20 0xFFFFFFFFFFFFFFFFFFFFFFFFFFFFFFFFFFFFFFFF AND PUSH20 0xFFFFFFFFFFFFFFFFFFFFFFFFFFFFFFFFFFFFFFFF AND DUP2 MSTORE PUSH1 0x20 ADD SWAP1 DUP2 MSTORE PUSH1 0x20 ADD PUSH0 KECCAK256 PUSH1 0x1 ADD PUSH0 SWAP1 SLOAD SWAP1 PUSH2 0x100 EXP SWAP1 DIV PUSH8 0xFFFFFFFFFFFFFFFF AND PUSH8 0xFFFFFFFFFFFFFFFF AND BLOCKHASH SWAP1 POP PUSH0 DUP1 PUSH0 SWAP1 SLOAD SWAP1 PUSH2 0x100 EXP SWAP1 DIV PUSH1 0xFF AND PUSH1 0xFF AND DUP3 DUP5 PUSH1 0x40 MLOAD PUSH1 0x20 ADD PUSH2 0xA49 SWAP3 SWAP2 SWAP1 PUSH2 0x1A63 JUMP JUMPDEST PUSH1 0x40 MLOAD PUSH1 0x20 DUP2 DUP4 SUB SUB DUP2 MSTORE SWAP1 PUSH1 0x40 MSTORE DUP1 MLOAD SWAP1 PUSH1 0x20 ADD KECCAK256 PUSH0 SHR PUSH2 0xA6B SWAP2 SWAP1 PUSH2 0x1ABB JUMP JUMPDEST SWAP1 POP PUSH32 0xBC016DD1CADEAEFCB851AF7A0A93532E0023D536894B730801F7BCFE7065BCC2 CALLER DUP5 DUP4 PUSH1 0x40 MLOAD PUSH2 0xAA0 SWAP4 SWAP3 SWAP2 SWAP1 PUSH2 0x1AEB JUMP JUMPDEST PUSH1 0x40 MLOAD DUP1 SWAP2 SUB SWAP1 LOG1 POP POP POP JUMP JUMPDEST PUSH1 0x2 SLOAD DUP2 JUMP JUMPDEST PUSH1 0x1 PUSH1 0x20 MSTORE DUP1 PUSH0 MSTORE PUSH1 0x40 PUSH0 KECCAK256 PUSH0 SWAP2 POP SWAP1 POP DUP1 PUSH0 ADD SLOAD SWAP1 DUP1 PUSH1 0x1 ADD PUSH0 SWAP1 SLOAD SWAP1 PUSH2 0x100 EXP SWAP1 DIV PUSH8 0xFFFFFFFFFFFFFFFF AND SWAP1 DUP1 PUSH1 0x1 ADD PUSH1 0x8 SWAP1 SLOAD SWAP1 PUSH2 0x100 EXP SWAP1 DIV PUSH1 0xFF AND SWAP1 POP DUP4 JUMP JUMPDEST PUSH1 0x3 SLOAD DUP2 JUMP JUMPDEST PUSH1 0x5 PUSH1 0x20 MSTORE DUP1 PUSH0 MSTORE PUSH1 0x40 PUSH0 KECCAK256 PUSH0 SWAP2 POP SWAP1 POP SLOAD DUP2 JUMP JUMPDEST TIMESTAMP PUSH1 0x2 DUP2 SWAP1 SSTORE POP JUMP JUMPDEST PUSH0 PUSH1 0x2 SLOAD TIMESTAMP PUSH2 0xB2C SWAP2 SWAP1 PUSH2 0x1B20 JUMP JUMPDEST SWAP1 POP SWAP1 JUMP JUMPDEST PUSH1 0x2 PUSH1 0x3 SLOAD EQ PUSH2 0xB3F JUMPI PUSH0 DUP1 REVERT JUMPDEST PUSH1 0x6 PUSH0 CALLER PUSH20 0xFFFFFFFFFFFFFFFFFFFFFFFFFFFFFFFFFFFFFFFF AND PUSH20 0xFFFFFFFFFFFFFFFFFFFFFFFFFFFFFFFFFFFFFFFF AND DUP2 MSTORE PUSH1 0x20 ADD SWAP1 DUP2 MSTORE PUSH1 0x20 ADD PUSH0 KECCAK256 PUSH0 SWAP1 SLOAD SWAP1 PUSH2 0x100 EXP SWAP1 DIV PUSH1 0xFF AND PUSH2 0xB91 JUMPI PUSH0 DUP1 REVERT JUMPDEST PUSH0 DUP2 EQ DUP1 PUSH2 0xB9F JUMPI POP PUSH1 0x1 DUP2 EQ JUMPDEST DUP1 PUSH2 0xBAA JUMPI POP PUSH1 0x2 DUP2 EQ JUMPDEST DUP1 PUSH2 0xBB5 JUMPI POP PUSH1 0x3 DUP2 EQ JUMPDEST DUP1 PUSH2 0xBC0 JUMPI POP PUSH1 0x4 DUP2 EQ JUMPDEST PUSH2 0xBC8 JUMPI PUSH0 DUP1 REVERT JUMPDEST DUP1 PUSH1 0x5 PUSH0 CALLER PUSH20 0xFFFFFFFFFFFFFFFFFFFFFFFFFFFFFFFFFFFFFFFF AND PUSH20 0xFFFFFFFFFFFFFFFFFFFFFFFFFFFFFFFFFFFFFFFF AND DUP2 MSTORE PUSH1 0x20 ADD SWAP1 DUP2 MSTORE PUSH1 0x20 ADD PUSH0 KECCAK256 DUP2 SWAP1 SSTORE POP PUSH0 PUSH1 0x6 PUSH0 CALLER PUSH20 0xFFFFFFFFFFFFFFFFFFFFFFFFFFFFFFFFFFFFFFFF AND PUSH20 0xFFFFFFFFFFFFFFFFFFFFFFFFFFFFFFFFFFFFFFFF AND DUP2 MSTORE PUSH1 0x20 ADD SWAP1 DUP2 MSTORE PUSH1 0x20 ADD PUSH0 KECCAK256 PUSH0 PUSH2 0x100 EXP DUP2 SLOAD DUP2 PUSH1 0xFF MUL NOT AND SWAP1 DUP4 ISZERO ISZERO MUL OR SWAP1 SSTORE POP PUSH1 0xC PUSH0 DUP2 SLOAD DUP1 SWAP3 SWAP2 SWAP1 PUSH2 0xC70 SWAP1 PUSH2 0x1739 JUMP JUMPDEST SWAP2 SWAP1 POP SSTORE POP PUSH1 0x2 PUSH1 0xC SLOAD SUB PUSH2 0xC88 JUMPI PUSH2 0xC87 PUSH2 0xEB8 JUMP JUMPDEST JUMPDEST POP JUMP JUMPDEST PUSH0 PUSH1 0x3C PUSH1 0x2 SLOAD TIMESTAMP PUSH2 0xC9C SWAP2 SWAP1 PUSH2 0x1B20 JUMP JUMPDEST PUSH2 0xCA6 SWAP2 SWAP1 PUSH2 0x1B53 JUMP JUMPDEST SWAP1 POP SWAP1 JUMP JUMPDEST DUP1 PUSH1 0x1 PUSH0 CALLER PUSH20 0xFFFFFFFFFFFFFFFFFFFFFFFFFFFFFFFFFFFFFFFF AND PUSH20 0xFFFFFFFFFFFFFFFFFFFFFFFFFFFFFFFFFFFFFFFF AND DUP2 MSTORE PUSH1 0x20 ADD SWAP1 DUP2 MSTORE PUSH1 0x20 ADD PUSH0 KECCAK256 PUSH0 ADD DUP2 SWAP1 SSTORE POP NUMBER PUSH1 0x1 PUSH0 CALLER PUSH20 0xFFFFFFFFFFFFFFFFFFFFFFFFFFFFFFFFFFFFFFFF AND PUSH20 0xFFFFFFFFFFFFFFFFFFFFFFFFFFFFFFFFFFFFFFFF AND DUP2 MSTORE PUSH1 0x20 ADD SWAP1 DUP2 MSTORE PUSH1 0x20 ADD PUSH0 KECCAK256 PUSH1 0x1 ADD PUSH0 PUSH2 0x100 EXP DUP2 SLOAD DUP2 PUSH8 0xFFFFFFFFFFFFFFFF MUL NOT AND SWAP1 DUP4 PUSH8 0xFFFFFFFFFFFFFFFF AND MUL OR SWAP1 SSTORE POP PUSH0 PUSH1 0x1 PUSH0 CALLER PUSH20 0xFFFFFFFFFFFFFFFFFFFFFFFFFFFFFFFFFFFFFFFF AND PUSH20 0xFFFFFFFFFFFFFFFFFFFFFFFFFFFFFFFFFFFFFFFF AND DUP2 MSTORE PUSH1 0x20 ADD SWAP1 DUP2 MSTORE PUSH1 0x20 ADD PUSH0 KECCAK256 PUSH1 0x1 ADD PUSH1 0x8 PUSH2 0x100 EXP DUP2 SLOAD DUP2 PUSH1 0xFF MUL NOT AND SWAP1 DUP4 ISZERO ISZERO MUL OR SWAP1 SSTORE POP PUSH32 0x3C1A1F8F38335B17F751C6DA4BA7D1865F26B3997535176F5080DE9FAD891603 CALLER PUSH1 0x1 PUSH0 CALLER PUSH20 0xFFFFFFFFFFFFFFFFFFFFFFFFFFFFFFFFFFFFFFFF AND PUSH20 0xFFFFFFFFFFFFFFFFFFFFFFFFFFFFFFFFFFFFFFFF AND DUP2 MSTORE PUSH1 0x20 ADD SWAP1 DUP2 MSTORE PUSH1 0x20 ADD PUSH0 KECCAK256 PUSH0 ADD SLOAD PUSH1 0x1 PUSH0 CALLER PUSH20 0xFFFFFFFFFFFFFFFFFFFFFFFFFFFFFFFFFFFFFFFF AND PUSH20 0xFFFFFFFFFFFFFFFFFFFFFFFFFFFFFFFFFFFFFFFF AND DUP2 MSTORE PUSH1 0x20 ADD SWAP1 DUP2 MSTORE PUSH1 0x20 ADD PUSH0 KECCAK256 PUSH1 0x1 ADD PUSH0 SWAP1 SLOAD SWAP1 PUSH2 0x100 EXP SWAP1 DIV PUSH8 0xFFFFFFFFFFFFFFFF AND PUSH1 0x40 MLOAD PUSH2 0xE72 SWAP4 SWAP3 SWAP2 SWAP1 PUSH2 0x1B83 JUMP JUMPDEST PUSH1 0x40 MLOAD DUP1 SWAP2 SUB SWAP1 LOG1 POP JUMP JUMPDEST PUSH1 0x7 DUP2 DUP2 SLOAD DUP2 LT PUSH2 0xE8C JUMPI PUSH0 DUP1 REVERT JUMPDEST SWAP1 PUSH0 MSTORE PUSH1 0x20 PUSH0 KECCAK256 ADD PUSH0 SWAP2 POP SLOAD SWAP1 PUSH2 0x100 EXP SWAP1 DIV PUSH20 0xFFFFFFFFFFFFFFFFFFFFFFFFFFFFFFFFFFFFFFFF AND DUP2 JUMP JUMPDEST PUSH0 PUSH1 0x5 PUSH0 PUSH1 0x7 PUSH0 DUP2 SLOAD DUP2 LT PUSH2 0xED0 JUMPI PUSH2 0xECF PUSH2 0x16AC JUMP JUMPDEST JUMPDEST SWAP1 PUSH0 MSTORE PUSH1 0x20 PUSH0 KECCAK256 ADD PUSH0 SWAP1 SLOAD SWAP1 PUSH2 0x100 EXP SWAP1 DIV PUSH20 0xFFFFFFFFFFFFFFFFFFFFFFFFFFFFFFFFFFFFFFFF AND PUSH20 0xFFFFFFFFFFFFFFFFFFFFFFFFFFFFFFFFFFFFFFFF AND PUSH20 0xFFFFFFFFFFFFFFFFFFFFFFFFFFFFFFFFFFFFFFFF AND DUP2 MSTORE PUSH1 0x20 ADD SWAP1 DUP2 MSTORE PUSH1 0x20 ADD PUSH0 KECCAK256 SLOAD SWAP1 POP PUSH0 PUSH1 0x5 PUSH0 PUSH1 0x7 PUSH1 0x1 DUP2 SLOAD DUP2 LT PUSH2 0xF4D JUMPI PUSH2 0xF4C PUSH2 0x16AC JUMP JUMPDEST JUMPDEST SWAP1 PUSH0 MSTORE PUSH1 0x20 PUSH0 KECCAK256 ADD PUSH0 SWAP1 SLOAD SWAP1 PUSH2 0x100 EXP SWAP1 DIV PUSH20 0xFFFFFFFFFFFFFFFFFFFFFFFFFFFFFFFFFFFFFFFF AND PUSH20 0xFFFFFFFFFFFFFFFFFFFFFFFFFFFFFFFFFFFFFFFF AND PUSH20 0xFFFFFFFFFFFFFFFFFFFFFFFFFFFFFFFFFFFFFFFF AND DUP2 MSTORE PUSH1 0x20 ADD SWAP1 DUP2 MSTORE PUSH1 0x20 ADD PUSH0 KECCAK256 SLOAD SWAP1 POP PUSH0 PUSH1 0x7 PUSH0 DUP2 SLOAD DUP2 LT PUSH2 0xFC6 JUMPI PUSH2 0xFC5 PUSH2 0x16AC JUMP JUMPDEST JUMPDEST SWAP1 PUSH0 MSTORE PUSH1 0x20 PUSH0 KECCAK256 ADD PUSH0 SWAP1 SLOAD SWAP1 PUSH2 0x100 EXP SWAP1 DIV PUSH20 0xFFFFFFFFFFFFFFFFFFFFFFFFFFFFFFFFFFFFFFFF AND SWAP1 POP PUSH0 PUSH1 0x7 PUSH1 0x1 DUP2 SLOAD DUP2 LT PUSH2 0x1006 JUMPI PUSH2 0x1005 PUSH2 0x16AC JUMP JUMPDEST JUMPDEST SWAP1 PUSH0 MSTORE PUSH1 0x20 PUSH0 KECCAK256 ADD PUSH0 SWAP1 SLOAD SWAP1 PUSH2 0x100 EXP SWAP1 DIV PUSH20 0xFFFFFFFFFFFFFFFFFFFFFFFFFFFFFFFFFFFFFFFF AND SWAP1 POP DUP3 PUSH1 0x5 PUSH1 0x1 DUP7 PUSH2 0x1040 SWAP2 SWAP1 PUSH2 0x1706 JUMP JUMPDEST PUSH2 0x104A SWAP2 SWAP1 PUSH2 0x1ABB JUMP JUMPDEST EQ DUP1 PUSH2 0x106D JUMPI POP DUP3 PUSH1 0x5 PUSH1 0x3 DUP7 PUSH2 0x1061 SWAP2 SWAP1 PUSH2 0x1706 JUMP JUMPDEST PUSH2 0x106B SWAP2 SWAP1 PUSH2 0x1ABB JUMP JUMPDEST EQ JUMPDEST ISZERO PUSH2 0x10BD JUMPI DUP1 PUSH20 0xFFFFFFFFFFFFFFFFFFFFFFFFFFFFFFFFFFFFFFFF AND PUSH2 0x8FC PUSH1 0x4 SLOAD SWAP1 DUP2 ISZERO MUL SWAP1 PUSH1 0x40 MLOAD PUSH0 PUSH1 0x40 MLOAD DUP1 DUP4 SUB DUP2 DUP6 DUP9 DUP9 CALL SWAP4 POP POP POP POP ISZERO DUP1 ISZERO PUSH2 0x10B7 JUMPI RETURNDATASIZE PUSH0 DUP1 RETURNDATACOPY RETURNDATASIZE PUSH0 REVERT JUMPDEST POP PUSH2 0x11F0 JUMP JUMPDEST DUP4 PUSH1 0x5 PUSH1 0x1 DUP6 PUSH2 0x10CD SWAP2 SWAP1 PUSH2 0x1706 JUMP JUMPDEST PUSH2 0x10D7 SWAP2 SWAP1 PUSH2 0x1ABB JUMP JUMPDEST EQ DUP1 PUSH2 0x10FA JUMPI POP DUP4 PUSH1 0x5 PUSH1 0x3 DUP6 PUSH2 0x10EE SWAP2 SWAP1 PUSH2 0x1706 JUMP JUMPDEST PUSH2 0x10F8 SWAP2 SWAP1 PUSH2 0x1ABB JUMP JUMPDEST EQ JUMPDEST ISZERO PUSH2 0x114A JUMPI DUP2 PUSH20 0xFFFFFFFFFFFFFFFFFFFFFFFFFFFFFFFFFFFFFFFF AND PUSH2 0x8FC PUSH1 0x4 SLOAD SWAP1 DUP2 ISZERO MUL SWAP1 PUSH1 0x40 MLOAD PUSH0 PUSH1 0x40 MLOAD DUP1 DUP4 SUB DUP2 DUP6 DUP9 DUP9 CALL SWAP4 POP POP POP POP ISZERO DUP1 ISZERO PUSH2 0x1144 JUMPI RETURNDATASIZE PUSH0 DUP1 RETURNDATACOPY RETURNDATASIZE PUSH0 REVERT JUMPDEST POP PUSH2 0x11EF JUMP JUMPDEST DUP2 PUSH20 0xFFFFFFFFFFFFFFFFFFFFFFFFFFFFFFFFFFFFFFFF AND PUSH2 0x8FC PUSH1 0x2 PUSH1 0x4 SLOAD PUSH2 0x1173 SWAP2 SWAP1 PUSH2 0x1B53 JUMP JUMPDEST SWAP1 DUP2 ISZERO MUL SWAP1 PUSH1 0x40 MLOAD PUSH0 PUSH1 0x40 MLOAD DUP1 DUP4 SUB DUP2 DUP6 DUP9 DUP9 CALL SWAP4 POP POP POP POP ISZERO DUP1 ISZERO PUSH2 0x119B JUMPI RETURNDATASIZE PUSH0 DUP1 RETURNDATACOPY RETURNDATASIZE PUSH0 REVERT JUMPDEST POP DUP1 PUSH20 0xFFFFFFFFFFFFFFFFFFFFFFFFFFFFFFFFFFFFFFFF AND PUSH2 0x8FC PUSH1 0x2 PUSH1 0x4 SLOAD PUSH2 0x11C5 SWAP2 SWAP1 PUSH2 0x1B53 JUMP JUMPDEST SWAP1 DUP2 ISZERO MUL SWAP1 PUSH1 0x40 MLOAD PUSH0 PUSH1 0x40 MLOAD DUP1 DUP4 SUB DUP2 DUP6 DUP9 DUP9 CALL SWAP4 POP POP POP POP ISZERO DUP1 ISZERO PUSH2 0x11ED JUMPI RETURNDATASIZE PUSH0 DUP1 RETURNDATACOPY RETURNDATASIZE PUSH0 REVERT JUMPDEST POP JUMPDEST JUMPDEST PUSH2 0x11F8 PUSH2 0x11FE JUMP JUMPDEST POP POP POP POP JUMP JUMPDEST PUSH0 PUSH1 0x3 DUP2 SWAP1 SSTORE POP PUSH0 PUSH1 0x4 DUP2 SWAP1 SSTORE POP PUSH0 PUSH1 0x5 PUSH0 PUSH1 0x7 PUSH0 DUP2 SLOAD DUP2 LT PUSH2 0x1224 JUMPI PUSH2 0x1223 PUSH2 0x16AC JUMP JUMPDEST JUMPDEST SWAP1 PUSH0 MSTORE PUSH1 0x20 PUSH0 KECCAK256 ADD PUSH0 SWAP1 SLOAD SWAP1 PUSH2 0x100 EXP SWAP1 DIV PUSH20 0xFFFFFFFFFFFFFFFFFFFFFFFFFFFFFFFFFFFFFFFF AND PUSH20 0xFFFFFFFFFFFFFFFFFFFFFFFFFFFFFFFFFFFFFFFF AND PUSH20 0xFFFFFFFFFFFFFFFFFFFFFFFFFFFFFFFFFFFFFFFF AND DUP2 MSTORE PUSH1 0x20 ADD SWAP1 DUP2 MSTORE PUSH1 0x20 ADD PUSH0 KECCAK256 DUP2 SWAP1 SSTORE POP PUSH0 PUSH1 0x5 PUSH0 PUSH1 0x7 PUSH1 0x1 DUP2 SLOAD DUP2 LT PUSH2 0x12A2 JUMPI PUSH2 0x12A1 PUSH2 0x16AC JUMP JUMPDEST JUMPDEST SWAP1 PUSH0 MSTORE PUSH1 0x20 PUSH0 KECCAK256 ADD PUSH0 SWAP1 SLOAD SWAP1 PUSH2 0x100 EXP SWAP1 DIV PUSH20 0xFFFFFFFFFFFFFFFFFFFFFFFFFFFFFFFFFFFFFFFF AND PUSH20 0xFFFFFFFFFFFFFFFFFFFFFFFFFFFFFFFFFFFFFFFF AND PUSH20 0xFFFFFFFFFFFFFFFFFFFFFFFFFFFFFFFFFFFFFFFF AND DUP2 MSTORE PUSH1 0x20 ADD SWAP1 DUP2 MSTORE PUSH1 0x20 ADD PUSH0 KECCAK256 DUP2 SWAP1 SSTORE POP PUSH1 0x1 PUSH1 0x6 PUSH0 PUSH1 0x7 PUSH0 DUP2 SLOAD DUP2 LT PUSH2 0x1320 JUMPI PUSH2 0x131F PUSH2 0x16AC JUMP JUMPDEST JUMPDEST SWAP1 PUSH0 MSTORE PUSH1 0x20 PUSH0 KECCAK256 ADD PUSH0 SWAP1 SLOAD SWAP1 PUSH2 0x100 EXP SWAP1 DIV PUSH20 0xFFFFFFFFFFFFFFFFFFFFFFFFFFFFFFFFFFFFFFFF AND PUSH20 0xFFFFFFFFFFFFFFFFFFFFFFFFFFFFFFFFFFFFFFFF AND PUSH20 0xFFFFFFFFFFFFFFFFFFFFFFFFFFFFFFFFFFFFFFFF AND DUP2 MSTORE PUSH1 0x20 ADD SWAP1 DUP2 MSTORE PUSH1 0x20 ADD PUSH0 KECCAK256 PUSH0 PUSH2 0x100 EXP DUP2 SLOAD DUP2 PUSH1 0xFF MUL NOT AND SWAP1 DUP4 ISZERO ISZERO MUL OR SWAP1 SSTORE POP PUSH1 0x1 PUSH1 0x6 PUSH0 PUSH1 0x7 PUSH1 0x1 DUP2 SLOAD DUP2 LT PUSH2 0x13B1 JUMPI PUSH2 0x13B0 PUSH2 0x16AC JUMP JUMPDEST JUMPDEST SWAP1 PUSH0 MSTORE PUSH1 0x20 PUSH0 KECCAK256 ADD PUSH0 SWAP1 SLOAD SWAP1 PUSH2 0x100 EXP SWAP1 DIV PUSH20 0xFFFFFFFFFFFFFFFFFFFFFFFFFFFFFFFFFFFFFFFF AND PUSH20 0xFFFFFFFFFFFFFFFFFFFFFFFFFFFFFFFFFFFFFFFF AND PUSH20 0xFFFFFFFFFFFFFFFFFFFFFFFFFFFFFFFFFFFFFFFF AND DUP2 MSTORE PUSH1 0x20 ADD SWAP1 DUP2 MSTORE PUSH1 0x20 ADD PUSH0 KECCAK256 PUSH0 PUSH2 0x100 EXP DUP2 SLOAD DUP2 PUSH1 0xFF MUL NOT AND SWAP1 DUP4 ISZERO ISZERO MUL OR SWAP1 SSTORE POP PUSH0 PUSH1 0xC DUP2 SWAP1 SSTORE POP JUMP JUMPDEST PUSH0 DUP2 SWAP1 POP SWAP2 SWAP1 POP JUMP JUMPDEST PUSH2 0x1443 DUP2 PUSH2 0x1431 JUMP JUMPDEST DUP3 MSTORE POP POP JUMP JUMPDEST PUSH0 PUSH1 0x20 DUP3 ADD SWAP1 POP PUSH2 0x145C PUSH0 DUP4 ADD DUP5 PUSH2 0x143A JUMP JUMPDEST SWAP3 SWAP2 POP POP JUMP JUMPDEST PUSH0 DUP1 REVERT JUMPDEST PUSH2 0x146F DUP2 PUSH2 0x1431 JUMP JUMPDEST DUP2 EQ PUSH2 0x1479 JUMPI PUSH0 DUP1 REVERT JUMPDEST POP JUMP JUMPDEST PUSH0 DUP2 CALLDATALOAD SWAP1 POP PUSH2 0x148A DUP2 PUSH2 0x1466 JUMP JUMPDEST SWAP3 SWAP2 POP POP JUMP JUMPDEST PUSH0 PUSH1 0x20 DUP3 DUP5 SUB SLT ISZERO PUSH2 0x14A5 JUMPI PUSH2 0x14A4 PUSH2 0x1462 JUMP JUMPDEST JUMPDEST PUSH0 PUSH2 0x14B2 DUP5 DUP3 DUP6 ADD PUSH2 0x147C JUMP JUMPDEST SWAP2 POP POP SWAP3 SWAP2 POP POP JUMP JUMPDEST PUSH0 PUSH20 0xFFFFFFFFFFFFFFFFFFFFFFFFFFFFFFFFFFFFFFFF DUP3 AND SWAP1 POP SWAP2 SWAP1 POP JUMP JUMPDEST PUSH0 PUSH2 0x14E4 DUP3 PUSH2 0x14BB JUMP JUMPDEST SWAP1 POP SWAP2 SWAP1 POP JUMP JUMPDEST PUSH2 0x14F4 DUP2 PUSH2 0x14DA JUMP JUMPDEST DUP3 MSTORE POP POP JUMP JUMPDEST PUSH0 PUSH1 0x20 DUP3 ADD SWAP1 POP PUSH2 0x150D PUSH0 DUP4 ADD DUP5 PUSH2 0x14EB JUMP JUMPDEST SWAP3 SWAP2 POP POP JUMP JUMPDEST PUSH2 0x151C DUP2 PUSH2 0x14DA JUMP JUMPDEST DUP2 EQ PUSH2 0x1526 JUMPI PUSH0 DUP1 REVERT JUMPDEST POP JUMP JUMPDEST PUSH0 DUP2 CALLDATALOAD SWAP1 POP PUSH2 0x1537 DUP2 PUSH2 0x1513 JUMP JUMPDEST SWAP3 SWAP2 POP POP JUMP JUMPDEST PUSH0 PUSH1 0x20 DUP3 DUP5 SUB SLT ISZERO PUSH2 0x1552 JUMPI PUSH2 0x1551 PUSH2 0x1462 JUMP JUMPDEST JUMPDEST PUSH0 PUSH2 0x155F DUP5 DUP3 DUP6 ADD PUSH2 0x1529 JUMP JUMPDEST SWAP2 POP POP SWAP3 SWAP2 POP POP JUMP JUMPDEST PUSH0 DUP2 ISZERO ISZERO SWAP1 POP SWAP2 SWAP1 POP JUMP JUMPDEST PUSH2 0x157C DUP2 PUSH2 0x1568 JUMP JUMPDEST DUP3 MSTORE POP POP JUMP JUMPDEST PUSH0 PUSH1 0x20 DUP3 ADD SWAP1 POP PUSH2 0x1595 PUSH0 DUP4 ADD DUP5 PUSH2 0x1573 JUMP JUMPDEST SWAP3 SWAP2 POP POP JUMP JUMPDEST PUSH0 DUP2 SWAP1 POP SWAP2 SWAP1 POP JUMP JUMPDEST PUSH2 0x15AD DUP2 PUSH2 0x159B JUMP JUMPDEST DUP2 EQ PUSH2 0x15B7 JUMPI PUSH0 DUP1 REVERT JUMPDEST POP JUMP JUMPDEST PUSH0 DUP2 CALLDATALOAD SWAP1 POP PUSH2 0x15C8 DUP2 PUSH2 0x15A4 JUMP JUMPDEST SWAP3 SWAP2 POP POP JUMP JUMPDEST PUSH0 PUSH1 0x20 DUP3 DUP5 SUB SLT ISZERO PUSH2 0x15E3 JUMPI PUSH2 0x15E2 PUSH2 0x1462 JUMP JUMPDEST JUMPDEST PUSH0 PUSH2 0x15F0 DUP5 DUP3 DUP6 ADD PUSH2 0x15BA JUMP JUMPDEST SWAP2 POP POP SWAP3 SWAP2 POP POP JUMP JUMPDEST PUSH2 0x1602 DUP2 PUSH2 0x159B JUMP JUMPDEST DUP3 MSTORE POP POP JUMP JUMPDEST PUSH0 PUSH1 0x20 DUP3 ADD SWAP1 POP PUSH2 0x161B PUSH0 DUP4 ADD DUP5 PUSH2 0x15F9 JUMP JUMPDEST SWAP3 SWAP2 POP POP JUMP JUMPDEST PUSH0 PUSH1 0xFF DUP3 AND SWAP1 POP SWAP2 SWAP1 POP JUMP JUMPDEST PUSH2 0x1636 DUP2 PUSH2 0x1621 JUMP JUMPDEST DUP3 MSTORE POP POP JUMP JUMPDEST PUSH0 PUSH1 0x20 DUP3 ADD SWAP1 POP PUSH2 0x164F PUSH0 DUP4 ADD DUP5 PUSH2 0x162D JUMP JUMPDEST SWAP3 SWAP2 POP POP JUMP JUMPDEST PUSH0 PUSH8 0xFFFFFFFFFFFFFFFF DUP3 AND SWAP1 POP SWAP2 SWAP1 POP JUMP JUMPDEST PUSH2 0x1671 DUP2 PUSH2 0x1655 JUMP JUMPDEST DUP3 MSTORE POP POP JUMP JUMPDEST PUSH0 PUSH1 0x60 DUP3 ADD SWAP1 POP PUSH2 0x168A PUSH0 DUP4 ADD DUP7 PUSH2 0x15F9 JUMP JUMPDEST PUSH2 0x1697 PUSH1 0x20 DUP4 ADD DUP6 PUSH2 0x1668 JUMP JUMPDEST PUSH2 0x16A4 PUSH1 0x40 DUP4 ADD DUP5 PUSH2 0x1573 JUMP JUMPDEST SWAP5 SWAP4 POP POP POP POP JUMP JUMPDEST PUSH32 0x4E487B7100000000000000000000000000000000000000000000000000000000 PUSH0 MSTORE PUSH1 0x32 PUSH1 0x4 MSTORE PUSH1 0x24 PUSH0 REVERT JUMPDEST PUSH32 0x4E487B7100000000000000000000000000000000000000000000000000000000 PUSH0 MSTORE PUSH1 0x11 PUSH1 0x4 MSTORE PUSH1 0x24 PUSH0 REVERT JUMPDEST PUSH0 PUSH2 0x1710 DUP3 PUSH2 0x1431 JUMP JUMPDEST SWAP2 POP PUSH2 0x171B DUP4 PUSH2 0x1431 JUMP JUMPDEST SWAP3 POP DUP3 DUP3 ADD SWAP1 POP DUP1 DUP3 GT ISZERO PUSH2 0x1733 JUMPI PUSH2 0x1732 PUSH2 0x16D9 JUMP JUMPDEST JUMPDEST SWAP3 SWAP2 POP POP JUMP JUMPDEST PUSH0 PUSH2 0x1743 DUP3 PUSH2 0x1431 JUMP JUMPDEST SWAP2 POP PUSH32 0xFFFFFFFFFFFFFFFFFFFFFFFFFFFFFFFFFFFFFFFFFFFFFFFFFFFFFFFFFFFFFFFF DUP3 SUB PUSH2 0x1775 JUMPI PUSH2 0x1774 PUSH2 0x16D9 JUMP JUMPDEST JUMPDEST PUSH1 0x1 DUP3 ADD SWAP1 POP SWAP2 SWAP1 POP JUMP JUMPDEST PUSH0 DUP2 SWAP1 POP SWAP2 SWAP1 POP JUMP JUMPDEST PUSH2 0x179A PUSH2 0x1795 DUP3 PUSH2 0x159B JUMP JUMPDEST PUSH2 0x1780 JUMP JUMPDEST DUP3 MSTORE POP POP JUMP JUMPDEST PUSH0 PUSH2 0x17AB DUP3 DUP5 PUSH2 0x1789 JUMP JUMPDEST PUSH1 0x20 DUP3 ADD SWAP2 POP DUP2 SWAP1 POP SWAP3 SWAP2 POP POP JUMP JUMPDEST PUSH0 DUP3 DUP3 MSTORE PUSH1 0x20 DUP3 ADD SWAP1 POP SWAP3 SWAP2 POP POP JUMP JUMPDEST PUSH32 0x436F6D6D697452657665616C3A3A72657665616C3A20416C7265616479207265 PUSH0 DUP3 ADD MSTORE PUSH32 0x7665616C65640000000000000000000000000000000000000000000000000000 PUSH1 0x20 DUP3 ADD MSTORE POP JUMP JUMPDEST PUSH0 PUSH2 0x1824 PUSH1 0x26 DUP4 PUSH2 0x17BA JUMP JUMPDEST SWAP2 POP PUSH2 0x182F DUP3 PUSH2 0x17CA JUMP JUMPDEST PUSH1 0x40 DUP3 ADD SWAP1 POP SWAP2 SWAP1 POP JUMP JUMPDEST PUSH0 PUSH1 0x20 DUP3 ADD SWAP1 POP DUP2 DUP2 SUB PUSH0 DUP4 ADD MSTORE PUSH2 0x1851 DUP2 PUSH2 0x1818 JUMP JUMPDEST SWAP1 POP SWAP2 SWAP1 POP JUMP JUMPDEST PUSH32 0x436F6D6D697452657665616C3A3A72657665616C3A2052657665616C65642068 PUSH0 DUP3 ADD MSTORE PUSH32 0x61736820646F6573206E6F74206D6174636820636F6D6D697400000000000000 PUSH1 0x20 DUP3 ADD MSTORE POP JUMP JUMPDEST PUSH0 PUSH2 0x18B2 PUSH1 0x39 DUP4 PUSH2 0x17BA JUMP JUMPDEST SWAP2 POP PUSH2 0x18BD DUP3 PUSH2 0x1858 JUMP JUMPDEST PUSH1 0x40 DUP3 ADD SWAP1 POP SWAP2 SWAP1 POP JUMP JUMPDEST PUSH0 PUSH1 0x20 DUP3 ADD SWAP1 POP DUP2 DUP2 SUB PUSH0 DUP4 ADD MSTORE PUSH2 0x18DF DUP2 PUSH2 0x18A6 JUMP JUMPDEST SWAP1 POP SWAP2 SWAP1 POP JUMP JUMPDEST PUSH32 0x436F6D6D697452657665616C3A3A72657665616C3A2052657665616C20616E64 PUSH0 DUP3 ADD MSTORE PUSH32 0x20636F6D6D69742068617070656E6564206F6E207468652073616D6520626C6F PUSH1 0x20 DUP3 ADD MSTORE PUSH32 0x636B000000000000000000000000000000000000000000000000000000000000 PUSH1 0x40 DUP3 ADD MSTORE POP JUMP JUMPDEST PUSH0 PUSH2 0x1966 PUSH1 0x42 DUP4 PUSH2 0x17BA JUMP JUMPDEST SWAP2 POP PUSH2 0x1971 DUP3 PUSH2 0x18E6 JUMP JUMPDEST PUSH1 0x60 DUP3 ADD SWAP1 POP SWAP2 SWAP1 POP JUMP JUMPDEST PUSH0 PUSH1 0x20 DUP3 ADD SWAP1 POP DUP2 DUP2 SUB PUSH0 DUP4 ADD MSTORE PUSH2 0x1993 DUP2 PUSH2 0x195A JUMP JUMPDEST SWAP1 POP SWAP2 SWAP1 POP JUMP JUMPDEST PUSH0 PUSH2 0x19A4 DUP3 PUSH2 0x1655 JUMP JUMPDEST SWAP2 POP PUSH2 0x19AF DUP4 PUSH2 0x1655 JUMP JUMPDEST SWAP3 POP DUP3 DUP3 ADD SWAP1 POP PUSH8 0xFFFFFFFFFFFFFFFF DUP2 GT ISZERO PUSH2 0x19CF JUMPI PUSH2 0x19CE PUSH2 0x16D9 JUMP JUMPDEST JUMPDEST SWAP3 SWAP2 POP POP JUMP JUMPDEST PUSH32 0x436F6D6D697452657665616C3A3A72657665616C3A2052657665616C65642074 PUSH0 DUP3 ADD MSTORE PUSH32 0x6F6F206C61746500000000000000000000000000000000000000000000000000 PUSH1 0x20 DUP3 ADD MSTORE POP JUMP JUMPDEST PUSH0 PUSH2 0x1A2F PUSH1 0x27 DUP4 PUSH2 0x17BA JUMP JUMPDEST SWAP2 POP PUSH2 0x1A3A DUP3 PUSH2 0x19D5 JUMP JUMPDEST PUSH1 0x40 DUP3 ADD SWAP1 POP SWAP2 SWAP1 POP JUMP JUMPDEST PUSH0 PUSH1 0x20 DUP3 ADD SWAP1 POP DUP2 DUP2 SUB PUSH0 DUP4 ADD MSTORE PUSH2 0x1A5C DUP2 PUSH2 0x1A23 JUMP JUMPDEST SWAP1 POP SWAP2 SWAP1 POP JUMP JUMPDEST PUSH0 PUSH2 0x1A6E DUP3 DUP6 PUSH2 0x1789 JUMP JUMPDEST PUSH1 0x20 DUP3 ADD SWAP2 POP PUSH2 0x1A7E DUP3 DUP5 PUSH2 0x1789 JUMP JUMPDEST PUSH1 0x20 DUP3 ADD SWAP2 POP DUP2 SWAP1 POP SWAP4 SWAP3 POP POP POP JUMP JUMPDEST PUSH32 0x4E487B7100000000000000000000000000000000000000000000000000000000 PUSH0 MSTORE PUSH1 0x12 PUSH1 0x4 MSTORE PUSH1 0x24 PUSH0 REVERT JUMPDEST PUSH0 PUSH2 0x1AC5 DUP3 PUSH2 0x1431 JUMP JUMPDEST SWAP2 POP PUSH2 0x1AD0 DUP4 PUSH2 0x1431 JUMP JUMPDEST SWAP3 POP DUP3 PUSH2 0x1AE0 JUMPI PUSH2 0x1ADF PUSH2 0x1A8E JUMP JUMPDEST JUMPDEST DUP3 DUP3 MOD SWAP1 POP SWAP3 SWAP2 POP POP JUMP JUMPDEST PUSH0 PUSH1 0x60 DUP3 ADD SWAP1 POP PUSH2 0x1AFE PUSH0 DUP4 ADD DUP7 PUSH2 0x14EB JUMP JUMPDEST PUSH2 0x1B0B PUSH1 0x20 DUP4 ADD DUP6 PUSH2 0x15F9 JUMP JUMPDEST PUSH2 0x1B18 PUSH1 0x40 DUP4 ADD DUP5 PUSH2 0x143A JUMP JUMPDEST SWAP5 SWAP4 POP POP POP POP JUMP JUMPDEST PUSH0 PUSH2 0x1B2A DUP3 PUSH2 0x1431 JUMP JUMPDEST SWAP2 POP PUSH2 0x1B35 DUP4 PUSH2 0x1431 JUMP JUMPDEST SWAP3 POP DUP3 DUP3 SUB SWAP1 POP DUP2 DUP2 GT ISZERO PUSH2 0x1B4D JUMPI PUSH2 0x1B4C PUSH2 0x16D9 JUMP JUMPDEST JUMPDEST SWAP3 SWAP2 POP POP JUMP JUMPDEST PUSH0 PUSH2 0x1B5D DUP3 PUSH2 0x1431 JUMP JUMPDEST SWAP2 POP PUSH2 0x1B68 DUP4 PUSH2 0x1431 JUMP JUMPDEST SWAP3 POP DUP3 PUSH2 0x1B78 JUMPI PUSH2 0x1B77 PUSH2 0x1A8E JUMP JUMPDEST JUMPDEST DUP3 DUP3 DIV SWAP1 POP SWAP3 SWAP2 POP POP JUMP JUMPDEST PUSH0 PUSH1 0x60 DUP3 ADD SWAP1 POP PUSH2 0x1B96 PUSH0 DUP4 ADD DUP7 PUSH2 0x14EB JUMP JUMPDEST PUSH2 0x1BA3 PUSH1 0x20 DUP4 ADD DUP6 PUSH2 0x15F9 JUMP JUMPDEST PUSH2 0x1BB0 PUSH1 0x40 DUP4 ADD DUP5 PUSH2 0x1668 JUMP JUMPDEST SWAP5 SWAP4 POP POP POP POP JUMP INVALID LOG2 PUSH5 0x6970667358 0x22 SLT KECCAK256 CODECOPY XOR 0xC3 0xC MSIZE 0xC7 SWAP6 0x25 0xBA PUSH32 0x375AB8A1BD3D131E6F9757F9B5D49DF7693308B16C6C64736F6C634300081A00 CALLER "
				},
				"gasEstimates": {
					"creation": {
						"codeDepositCost": "1430000",
						"executionCost": "infinite",
						"totalCost": "infinite"
					},
					"external": {
						"addPlayer()": "infinite",
						"commit(bytes32)": "infinite",
						"commits(address)": "7393",
						"elapsedMinutes()": "infinite",
						"elapsedSeconds()": "infinite",
						"getHash(bytes32)": "infinite",
						"input(uint256)": "infinite",
						"max()": "2530",
						"numInput()": "2449",
						"numPlayer()": "2470",
						"player_choice(address)": "2869",
						"player_not_played(address)": "2901",
						"players(uint256)": "5054",
						"real_players(uint256)": "2841",
						"reveal(bytes32)": "infinite",
						"reward()": "2515",
						"setStartTime()": "22345",
						"startTime()": "2536"
					},
					"internal": {
						"_checkWinnerAndPay()": "infinite",
						"newRound()": "91214"
					}
				},
				"methodIdentifiers": {
					"addPlayer()": "27b5db8a",
					"commit(bytes32)": "f14fcbc8",
					"commits(address)": "7b43a8e6",
					"elapsedMinutes()": "d97c8416",
					"elapsedSeconds()": "bc06b8cd",
					"getHash(bytes32)": "3cf5040a",
					"input(uint256)": "ce6e1c4e",
					"max()": "6ac5db19",
					"numInput()": "086f7815",
					"numPlayer()": "90d5d0c3",
					"player_choice(address)": "a040478d",
					"player_not_played(address)": "190cf745",
					"players(uint256)": "f71d96cb",
					"real_players(uint256)": "14e421fe",
					"reveal(bytes32)": "701fd0f1",
					"reward()": "228cb733",
					"setStartTime()": "a63f7c53",
					"startTime()": "78e97925"
				}
			},
			"storageLayout": {
				"storage": [
					{
						"astId": 4,
						"contract": "RPS.sol:RPS",
						"label": "max",
						"offset": 0,
						"slot": "0",
						"type": "t_uint8"
					},
					{
						"astId": 16,
						"contract": "RPS.sol:RPS",
						"label": "commits",
						"offset": 0,
						"slot": "1",
						"type": "t_mapping(t_address,t_struct(Commit)11_storage)"
					},
					{
						"astId": 595,
						"contract": "RPS.sol:RPS",
						"label": "startTime",
						"offset": 0,
						"slot": "2",
						"type": "t_uint256"
					},
					{
						"astId": 253,
						"contract": "RPS.sol:RPS",
						"label": "numPlayer",
						"offset": 0,
						"slot": "3",
						"type": "t_uint256"
					},
					{
						"astId": 256,
						"contract": "RPS.sol:RPS",
						"label": "reward",
						"offset": 0,
						"slot": "4",
						"type": "t_uint256"
					},
					{
						"astId": 260,
						"contract": "RPS.sol:RPS",
						"label": "player_choice",
						"offset": 0,
						"slot": "5",
						"type": "t_mapping(t_address,t_uint256)"
					},
					{
						"astId": 264,
						"contract": "RPS.sol:RPS",
						"label": "player_not_played",
						"offset": 0,
						"slot": "6",
						"type": "t_mapping(t_address,t_bool)"
					},
					{
						"astId": 267,
						"contract": "RPS.sol:RPS",
						"label": "players",
						"offset": 0,
						"slot": "7",
						"type": "t_array(t_address)dyn_storage"
					},
					{
						"astId": 276,
						"contract": "RPS.sol:RPS",
						"label": "real_players",
						"offset": 0,
						"slot": "8",
						"type": "t_array(t_address)4_storage"
					},
					{
						"astId": 279,
						"contract": "RPS.sol:RPS",
						"label": "numInput",
						"offset": 0,
						"slot": "12",
						"type": "t_uint256"
					}
				],
				"types": {
					"t_address": {
						"encoding": "inplace",
						"label": "address",
						"numberOfBytes": "20"
					},
					"t_array(t_address)4_storage": {
						"base": "t_address",
						"encoding": "inplace",
						"label": "address[4]",
						"numberOfBytes": "128"
					},
					"t_array(t_address)dyn_storage": {
						"base": "t_address",
						"encoding": "dynamic_array",
						"label": "address[]",
						"numberOfBytes": "32"
					},
					"t_bool": {
						"encoding": "inplace",
						"label": "bool",
						"numberOfBytes": "1"
					},
					"t_bytes32": {
						"encoding": "inplace",
						"label": "bytes32",
						"numberOfBytes": "32"
					},
					"t_mapping(t_address,t_bool)": {
						"encoding": "mapping",
						"key": "t_address",
						"label": "mapping(address => bool)",
						"numberOfBytes": "32",
						"value": "t_bool"
					},
					"t_mapping(t_address,t_struct(Commit)11_storage)": {
						"encoding": "mapping",
						"key": "t_address",
						"label": "mapping(address => struct CommitReveal.Commit)",
						"numberOfBytes": "32",
						"value": "t_struct(Commit)11_storage"
					},
					"t_mapping(t_address,t_uint256)": {
						"encoding": "mapping",
						"key": "t_address",
						"label": "mapping(address => uint256)",
						"numberOfBytes": "32",
						"value": "t_uint256"
					},
					"t_struct(Commit)11_storage": {
						"encoding": "inplace",
						"label": "struct CommitReveal.Commit",
						"members": [
							{
								"astId": 6,
								"contract": "RPS.sol:RPS",
								"label": "commit",
								"offset": 0,
								"slot": "0",
								"type": "t_bytes32"
							},
							{
								"astId": 8,
								"contract": "RPS.sol:RPS",
								"label": "block",
								"offset": 0,
								"slot": "1",
								"type": "t_uint64"
							},
							{
								"astId": 10,
								"contract": "RPS.sol:RPS",
								"label": "revealed",
								"offset": 8,
								"slot": "1",
								"type": "t_bool"
							}
						],
						"numberOfBytes": "64"
					},
					"t_uint256": {
						"encoding": "inplace",
						"label": "uint256",
						"numberOfBytes": "32"
					},
					"t_uint64": {
						"encoding": "inplace",
						"label": "uint64",
						"numberOfBytes": "8"
					},
					"t_uint8": {
						"encoding": "inplace",
						"label": "uint8",
						"numberOfBytes": "1"
					}
				}
			},
			"userdoc": {
				"kind": "user",
				"methods": {},
				"version": 1
			}
		}
	}
}