{
	"TimeUnit.sol": {
		"TimeUnit": {
			"abi": [
				{
					"inputs": [],
					"name": "elapsedMinutes",
					"outputs": [
						{
							"internalType": "uint256",
							"name": "",
							"type": "uint256"
						}
					],
					"stateMutability": "view",
					"type": "function"
				},
				{
					"inputs": [],
					"name": "elapsedSeconds",
					"outputs": [
						{
							"internalType": "uint256",
							"name": "",
							"type": "uint256"
						}
					],
					"stateMutability": "view",
					"type": "function"
				},
				{
					"inputs": [],
					"name": "setStartTime",
					"outputs": [],
					"stateMutability": "nonpayable",
					"type": "function"
				},
				{
					"inputs": [],
					"name": "startTime",
					"outputs": [
						{
							"internalType": "uint256",
							"name": "",
							"type": "uint256"
						}
					],
					"stateMutability": "view",
					"type": "function"
				}
			],
			"devdoc": {
				"kind": "dev",
				"methods": {},
				"version": 1
			},
			"evm": {
				"assembly": "    /* \"TimeUnit.sol\":132:1054  contract TimeUnit { ... */\n  mstore(0x40, 0x80)\n  callvalue\n  dup1\n  iszero\n  tag_1\n  jumpi\n  0x00\n  dup1\n  revert\ntag_1:\n  pop\n  dataSize(sub_0)\n  dup1\n  dataOffset(sub_0)\n  0x00\n  codecopy\n  0x00\n  return\nstop\n\nsub_0: assembly {\n        /* \"TimeUnit.sol\":132:1054  contract TimeUnit { ... */\n      mstore(0x40, 0x80)\n      callvalue\n      dup1\n      iszero\n      tag_1\n      jumpi\n      0x00\n      dup1\n      revert\n    tag_1:\n      pop\n      jumpi(tag_2, lt(calldatasize, 0x04))\n      shr(0xe0, calldataload(0x00))\n      dup1\n      0x78e97925\n      eq\n      tag_3\n      jumpi\n      dup1\n      0xa63f7c53\n      eq\n      tag_4\n      jumpi\n      dup1\n      0xbc06b8cd\n      eq\n      tag_5\n      jumpi\n      dup1\n      0xd97c8416\n      eq\n      tag_6\n      jumpi\n    tag_2:\n      0x00\n      dup1\n      revert\n        /* \"TimeUnit.sol\":298:322  uint256 public startTime */\n    tag_3:\n      tag_7\n      tag_8\n      jump\t// in\n    tag_7:\n      mload(0x40)\n      tag_9\n      swap2\n      swap1\n      tag_10\n      jump\t// in\n    tag_9:\n      mload(0x40)\n      dup1\n      swap2\n      sub\n      swap1\n      return\n        /* \"TimeUnit.sol\":367:438  function setStartTime() public { ... */\n    tag_4:\n      tag_11\n      tag_12\n      jump\t// in\n    tag_11:\n      stop\n        /* \"TimeUnit.sol\":557:662  function elapsedSeconds() public view returns (uint256) { ... */\n    tag_5:\n      tag_13\n      tag_14\n      jump\t// in\n    tag_13:\n      mload(0x40)\n      tag_15\n      swap2\n      swap1\n      tag_10\n      jump\t// in\n    tag_15:\n      mload(0x40)\n      dup1\n      swap2\n      sub\n      swap1\n      return\n        /* \"TimeUnit.sol\":774:1051  function elapsedMinutes() public view returns (uint256) { ... */\n    tag_6:\n      tag_16\n      tag_17\n      jump\t// in\n    tag_16:\n      mload(0x40)\n      tag_18\n      swap2\n      swap1\n      tag_10\n      jump\t// in\n    tag_18:\n      mload(0x40)\n      dup1\n      swap2\n      sub\n      swap1\n      return\n        /* \"TimeUnit.sol\":298:322  uint256 public startTime */\n    tag_8:\n      sload(0x00)\n      dup2\n      jump\t// out\n        /* \"TimeUnit.sol\":367:438  function setStartTime() public { ... */\n    tag_12:\n        /* \"TimeUnit.sol\":417:432  block.timestamp */\n      timestamp\n        /* \"TimeUnit.sol\":405:414  startTime */\n      0x00\n        /* \"TimeUnit.sol\":405:432  startTime = block.timestamp */\n      dup2\n      swap1\n      sstore\n      pop\n        /* \"TimeUnit.sol\":367:438  function setStartTime() public { ... */\n      jump\t// out\n        /* \"TimeUnit.sol\":557:662  function elapsedSeconds() public view returns (uint256) { ... */\n    tag_14:\n        /* \"TimeUnit.sol\":604:611  uint256 */\n      0x00\n        /* \"TimeUnit.sol\":646:655  startTime */\n      dup1\n      sload\n        /* \"TimeUnit.sol\":628:643  block.timestamp */\n      timestamp\n        /* \"TimeUnit.sol\":628:655  block.timestamp - startTime */\n      tag_21\n      swap2\n      swap1\n      tag_22\n      jump\t// in\n    tag_21:\n        /* \"TimeUnit.sol\":620:656  return (block.timestamp - startTime) */\n      swap1\n      pop\n        /* \"TimeUnit.sol\":557:662  function elapsedSeconds() public view returns (uint256) { ... */\n      swap1\n      jump\t// out\n        /* \"TimeUnit.sol\":774:1051  function elapsedMinutes() public view returns (uint256) { ... */\n    tag_17:\n        /* \"TimeUnit.sol\":821:828  uint256 */\n      0x00\n        /* \"TimeUnit.sol\":1036:1045  1 minutes */\n      0x3c\n        /* \"TimeUnit.sol\":1023:1032  startTime */\n      sload(0x00)\n        /* \"TimeUnit.sol\":1005:1020  block.timestamp */\n      timestamp\n        /* \"TimeUnit.sol\":1005:1032  block.timestamp - startTime */\n      tag_24\n      swap2\n      swap1\n      tag_22\n      jump\t// in\n    tag_24:\n        /* \"TimeUnit.sol\":1004:1045  (block.timestamp - startTime) / 1 minutes */\n      tag_25\n      swap2\n      swap1\n      tag_26\n      jump\t// in\n    tag_25:\n        /* \"TimeUnit.sol\":997:1045  return (block.timestamp - startTime) / 1 minutes */\n      swap1\n      pop\n        /* \"TimeUnit.sol\":774:1051  function elapsedMinutes() public view returns (uint256) { ... */\n      swap1\n      jump\t// out\n        /* \"#utility.yul\":7:84   */\n    tag_27:\n        /* \"#utility.yul\":44:51   */\n      0x00\n        /* \"#utility.yul\":73:78   */\n      dup2\n        /* \"#utility.yul\":62:78   */\n      swap1\n      pop\n        /* \"#utility.yul\":7:84   */\n      swap2\n      swap1\n      pop\n      jump\t// out\n        /* \"#utility.yul\":90:208   */\n    tag_28:\n        /* \"#utility.yul\":177:201   */\n      tag_34\n        /* \"#utility.yul\":195:200   */\n      dup2\n        /* \"#utility.yul\":177:201   */\n      tag_27\n      jump\t// in\n    tag_34:\n        /* \"#utility.yul\":172:175   */\n      dup3\n        /* \"#utility.yul\":165:202   */\n      mstore\n        /* \"#utility.yul\":90:208   */\n      pop\n      pop\n      jump\t// out\n        /* \"#utility.yul\":214:436   */\n    tag_10:\n        /* \"#utility.yul\":307:311   */\n      0x00\n        /* \"#utility.yul\":345:347   */\n      0x20\n        /* \"#utility.yul\":334:343   */\n      dup3\n        /* \"#utility.yul\":330:348   */\n      add\n        /* \"#utility.yul\":322:348   */\n      swap1\n      pop\n        /* \"#utility.yul\":358:429   */\n      tag_36\n        /* \"#utility.yul\":426:427   */\n      0x00\n        /* \"#utility.yul\":415:424   */\n      dup4\n        /* \"#utility.yul\":411:428   */\n      add\n        /* \"#utility.yul\":402:408   */\n      dup5\n        /* \"#utility.yul\":358:429   */\n      tag_28\n      jump\t// in\n    tag_36:\n        /* \"#utility.yul\":214:436   */\n      swap3\n      swap2\n      pop\n      pop\n      jump\t// out\n        /* \"#utility.yul\":442:622   */\n    tag_29:\n        /* \"#utility.yul\":490:567   */\n      0x4e487b7100000000000000000000000000000000000000000000000000000000\n        /* \"#utility.yul\":487:488   */\n      0x00\n        /* \"#utility.yul\":480:568   */\n      mstore\n        /* \"#utility.yul\":587:591   */\n      0x11\n        /* \"#utility.yul\":584:585   */\n      0x04\n        /* \"#utility.yul\":577:592   */\n      mstore\n        /* \"#utility.yul\":611:615   */\n      0x24\n        /* \"#utility.yul\":608:609   */\n      0x00\n        /* \"#utility.yul\":601:616   */\n      revert\n        /* \"#utility.yul\":628:822   */\n    tag_22:\n        /* \"#utility.yul\":668:672   */\n      0x00\n        /* \"#utility.yul\":688:708   */\n      tag_39\n        /* \"#utility.yul\":706:707   */\n      dup3\n        /* \"#utility.yul\":688:708   */\n      tag_27\n      jump\t// in\n    tag_39:\n        /* \"#utility.yul\":683:708   */\n      swap2\n      pop\n        /* \"#utility.yul\":722:742   */\n      tag_40\n        /* \"#utility.yul\":740:741   */\n      dup4\n        /* \"#utility.yul\":722:742   */\n      tag_27\n      jump\t// in\n    tag_40:\n        /* \"#utility.yul\":717:742   */\n      swap3\n      pop\n        /* \"#utility.yul\":766:767   */\n      dup3\n        /* \"#utility.yul\":763:764   */\n      dup3\n        /* \"#utility.yul\":759:768   */\n      sub\n        /* \"#utility.yul\":751:768   */\n      swap1\n      pop\n        /* \"#utility.yul\":790:791   */\n      dup2\n        /* \"#utility.yul\":784:788   */\n      dup2\n        /* \"#utility.yul\":781:792   */\n      gt\n        /* \"#utility.yul\":778:815   */\n      iszero\n      tag_41\n      jumpi\n        /* \"#utility.yul\":795:813   */\n      tag_42\n      tag_29\n      jump\t// in\n    tag_42:\n        /* \"#utility.yul\":778:815   */\n    tag_41:\n        /* \"#utility.yul\":628:822   */\n      swap3\n      swap2\n      pop\n      pop\n      jump\t// out\n        /* \"#utility.yul\":828:1008   */\n    tag_30:\n        /* \"#utility.yul\":876:953   */\n      0x4e487b7100000000000000000000000000000000000000000000000000000000\n        /* \"#utility.yul\":873:874   */\n      0x00\n        /* \"#utility.yul\":866:954   */\n      mstore\n        /* \"#utility.yul\":973:977   */\n      0x12\n        /* \"#utility.yul\":970:971   */\n      0x04\n        /* \"#utility.yul\":963:978   */\n      mstore\n        /* \"#utility.yul\":997:1001   */\n      0x24\n        /* \"#utility.yul\":994:995   */\n      0x00\n        /* \"#utility.yul\":987:1002   */\n      revert\n        /* \"#utility.yul\":1014:1199   */\n    tag_26:\n        /* \"#utility.yul\":1054:1055   */\n      0x00\n        /* \"#utility.yul\":1071:1091   */\n      tag_45\n        /* \"#utility.yul\":1089:1090   */\n      dup3\n        /* \"#utility.yul\":1071:1091   */\n      tag_27\n      jump\t// in\n    tag_45:\n        /* \"#utility.yul\":1066:1091   */\n      swap2\n      pop\n        /* \"#utility.yul\":1105:1125   */\n      tag_46\n        /* \"#utility.yul\":1123:1124   */\n      dup4\n        /* \"#utility.yul\":1105:1125   */\n      tag_27\n      jump\t// in\n    tag_46:\n        /* \"#utility.yul\":1100:1125   */\n      swap3\n      pop\n        /* \"#utility.yul\":1144:1145   */\n      dup3\n        /* \"#utility.yul\":1134:1169   */\n      tag_47\n      jumpi\n        /* \"#utility.yul\":1149:1167   */\n      tag_48\n      tag_30\n      jump\t// in\n    tag_48:\n        /* \"#utility.yul\":1134:1169   */\n    tag_47:\n        /* \"#utility.yul\":1191:1192   */\n      dup3\n        /* \"#utility.yul\":1188:1189   */\n      dup3\n        /* \"#utility.yul\":1184:1193   */\n      div\n        /* \"#utility.yul\":1179:1193   */\n      swap1\n      pop\n        /* \"#utility.yul\":1014:1199   */\n      swap3\n      swap2\n      pop\n      pop\n      jump\t// out\n\n    auxdata: 0xa264697066735822122022fb009fae9bc1435ad2a61676c2f9267c9535896d372a5f690767b5a75b59d164736f6c634300081a0033\n}\n",
				"bytecode": {
					"linkReferences": {},
					"object": "6080604052348015600e575f80fd5b506102158061001c5f395ff3fe608060405234801561000f575f80fd5b506004361061004a575f3560e01c806378e979251461004e578063a63f7c531461006c578063bc06b8cd14610076578063d97c841614610094575b5f80fd5b6100566100b2565b6040516100639190610109565b60405180910390f35b6100746100b7565b005b61007e6100bf565b60405161008b9190610109565b60405180910390f35b61009c6100d2565b6040516100a99190610109565b60405180910390f35b5f5481565b425f81905550565b5f8054426100cd919061014f565b905090565b5f603c5f54426100e2919061014f565b6100ec91906101af565b905090565b5f819050919050565b610103816100f1565b82525050565b5f60208201905061011c5f8301846100fa565b92915050565b7f4e487b71000000000000000000000000000000000000000000000000000000005f52601160045260245ffd5b5f610159826100f1565b9150610164836100f1565b925082820390508181111561017c5761017b610122565b5b92915050565b7f4e487b71000000000000000000000000000000000000000000000000000000005f52601260045260245ffd5b5f6101b9826100f1565b91506101c4836100f1565b9250826101d4576101d3610182565b5b82820490509291505056fea264697066735822122022fb009fae9bc1435ad2a61676c2f9267c9535896d372a5f690767b5a75b59d164736f6c634300081a0033",
					"opcodes": "PUSH1 0x80 PUSH1 0x40 MSTORE CALLVALUE DUP1 ISZERO PUSH1 0xE JUMPI PUSH0 DUP1 REVERT JUMPDEST POP PUSH2 0x215 DUP1 PUSH2 0x1C PUSH0 CODECOPY PUSH0 RETURN INVALID PUSH1 0x80 PUSH1 0x40 MSTORE CALLVALUE DUP1 ISZERO PUSH2 0xF JUMPI PUSH0 DUP1 REVERT JUMPDEST POP PUSH1 0x4 CALLDATASIZE LT PUSH2 0x4A JUMPI PUSH0 CALLDATALOAD PUSH1 0xE0 SHR DUP1 PUSH4 0x78E97925 EQ PUSH2 0x4E JUMPI DUP1 PUSH4 0xA63F7C53 EQ PUSH2 0x6C JUMPI DUP1 PUSH4 0xBC06B8CD EQ PUSH2 0x76 JUMPI DUP1 PUSH4 0xD97C8416 EQ PUSH2 0x94 JUMPI JUMPDEST PUSH0 DUP1 REVERT JUMPDEST PUSH2 0x56 PUSH2 0xB2 JUMP JUMPDEST PUSH1 0x40 MLOAD PUSH2 0x63 SWAP2 SWAP1 PUSH2 0x109 JUMP JUMPDEST PUSH1 0x40 MLOAD DUP1 SWAP2 SUB SWAP1 RETURN JUMPDEST PUSH2 0x74 PUSH2 0xB7 JUMP JUMPDEST STOP JUMPDEST PUSH2 0x7E PUSH2 0xBF JUMP JUMPDEST PUSH1 0x40 MLOAD PUSH2 0x8B SWAP2 SWAP1 PUSH2 0x109 JUMP JUMPDEST PUSH1 0x40 MLOAD DUP1 SWAP2 SUB SWAP1 RETURN JUMPDEST PUSH2 0x9C PUSH2 0xD2 JUMP JUMPDEST PUSH1 0x40 MLOAD PUSH2 0xA9 SWAP2 SWAP1 PUSH2 0x109 JUMP JUMPDEST PUSH1 0x40 MLOAD DUP1 SWAP2 SUB SWAP1 RETURN JUMPDEST PUSH0 SLOAD DUP2 JUMP JUMPDEST TIMESTAMP PUSH0 DUP2 SWAP1 SSTORE POP JUMP JUMPDEST PUSH0 DUP1 SLOAD TIMESTAMP PUSH2 0xCD SWAP2 SWAP1 PUSH2 0x14F JUMP JUMPDEST SWAP1 POP SWAP1 JUMP JUMPDEST PUSH0 PUSH1 0x3C PUSH0 SLOAD TIMESTAMP PUSH2 0xE2 SWAP2 SWAP1 PUSH2 0x14F JUMP JUMPDEST PUSH2 0xEC SWAP2 SWAP1 PUSH2 0x1AF JUMP JUMPDEST SWAP1 POP SWAP1 JUMP JUMPDEST PUSH0 DUP2 SWAP1 POP SWAP2 SWAP1 POP JUMP JUMPDEST PUSH2 0x103 DUP2 PUSH2 0xF1 JUMP JUMPDEST DUP3 MSTORE POP POP JUMP JUMPDEST PUSH0 PUSH1 0x20 DUP3 ADD SWAP1 POP PUSH2 0x11C PUSH0 DUP4 ADD DUP5 PUSH2 0xFA JUMP JUMPDEST SWAP3 SWAP2 POP POP JUMP JUMPDEST PUSH32 0x4E487B7100000000000000000000000000000000000000000000000000000000 PUSH0 MSTORE PUSH1 0x11 PUSH1 0x4 MSTORE PUSH1 0x24 PUSH0 REVERT JUMPDEST PUSH0 PUSH2 0x159 DUP3 PUSH2 0xF1 JUMP JUMPDEST SWAP2 POP PUSH2 0x164 DUP4 PUSH2 0xF1 JUMP JUMPDEST SWAP3 POP DUP3 DUP3 SUB SWAP1 POP DUP2 DUP2 GT ISZERO PUSH2 0x17C JUMPI PUSH2 0x17B PUSH2 0x122 JUMP JUMPDEST JUMPDEST SWAP3 SWAP2 POP POP JUMP JUMPDEST PUSH32 0x4E487B7100000000000000000000000000000000000000000000000000000000 PUSH0 MSTORE PUSH1 0x12 PUSH1 0x4 MSTORE PUSH1 0x24 PUSH0 REVERT JUMPDEST PUSH0 PUSH2 0x1B9 DUP3 PUSH2 0xF1 JUMP JUMPDEST SWAP2 POP PUSH2 0x1C4 DUP4 PUSH2 0xF1 JUMP JUMPDEST SWAP3 POP DUP3 PUSH2 0x1D4 JUMPI PUSH2 0x1D3 PUSH2 0x182 JUMP JUMPDEST JUMPDEST DUP3 DUP3 DIV SWAP1 POP SWAP3 SWAP2 POP POP JUMP INVALID LOG2 PUSH5 0x6970667358 0x22 SLT KECCAK256 0x22 0xFB STOP SWAP16 0xAE SWAP12 0xC1 NUMBER GAS 0xD2 0xA6 AND PUSH23 0xC2F9267C9535896D372A5F690767B5A75B59D164736F6C PUSH4 0x4300081A STOP CALLER "
				},
				"gasEstimates": {
					"creation": {
						"codeDepositCost": "106600",
						"executionCost": "151",
						"totalCost": "106751"
					},
					"external": {
						"elapsedMinutes()": "infinite",
						"elapsedSeconds()": "infinite",
						"setStartTime()": "22255",
						"startTime()": "2402"
					}
				},
				"methodIdentifiers": {
					"elapsedMinutes()": "d97c8416",
					"elapsedSeconds()": "bc06b8cd",
					"setStartTime()": "a63f7c53",
					"startTime()": "78e97925"
				}
			},
			"storageLayout": {
				"storage": [
					{
						"astId": 595,
						"contract": "TimeUnit.sol:TimeUnit",
						"label": "startTime",
						"offset": 0,
						"slot": "0",
						"type": "t_uint256"
					}
				],
				"types": {
					"t_uint256": {
						"encoding": "inplace",
						"label": "uint256",
						"numberOfBytes": "32"
					}
				}
			},
			"userdoc": {
				"kind": "user",
				"methods": {},
				"version": 1
			}
		}
	}
}